:020000041004E6
:1000000000600020BDA5041039860410D5620410DC
:10001000AA5555AA45554C420000000000000000BA
:1000200000000000000000000000000087C1041074
:100030000000000000000000379E041005C50410F9
:100040009340041009870410000000000000000025
:1000500039C9041085C104106D210410C5CA0410EB
:100060000000000000000000000000000000000090
:1000700000000000E9090410D9620410D7620410DE
:10008000000000001F81041021810410238104104E
:1000900025810410DDA504106587041021270410B4
:1000A0000000000000000000000000000000000050
:1000B0000000000000000000000000000000000040
:1000C000EFF31482EFF309811C4880F31488BFF327
:1000D0006F8FF0B543464C4655465E466746F8B4CA
:1000E000174CEFF30883236006B4164C2068164CB7
:1000F0002060164C2068164C2060164C2068164C68
:100100002060164C276800202060BFF34F8F30BF5F
:1001100027600B4C246884F3088882B003BCF8BCC9
:100120009846A146AA46B346BC46F0BC04BC80F340
:10013000098881F31488BFF36F8F10470000000017
:100140000800002004ED00E0E802002024ED00E0BB
:10015000EC02002000E200E0F00200200800204055
:100160000448854600F0F2FB00480047413C05107A
:10017000C046C0460060002030B50B460146002056
:100180002022012409E00D46D5409D4205D31D469D
:100190009540491B2546954040191546521E002D95
:1001A000F1DC30BD10B5441A0346944209D28318DD
:1001B000891803E0491E0C785B1E1C70521EF9D290
:1001C00010BD0C460443A40703D009E010C9121F58
:1001D00010C3042AFAD203E00C781C70491C5B1C83
:1001E000521EF9D210BDD2B201E00270401C491E6D
:1001F000FBD270470022F6E710B513460A460446C4
:100200001946FFF7F0FF204610BD30B50446002028
:10021000034600E05B1C934203D2E05CCD5C401BD4
:10022000F8D030BD0321001D401E037812021A438E
:10023000491EF9D510467047034603220870000A8C
:10024000491C521EFAD518467047F8B502464A4076
:10025000D40F42004B0052085B089A4202D2024679
:10026000084611464A0023D0C30D4A00DDB2120EE3
:10027000AD1A202D35DA49020126490AF6058A19F8
:10028000002C00D0524220214F1B1146B9402A4178
:100290001018C20D9A4221D0002C17D0012D08DC75
:1002A000DA05801AD20F8019D207DBB200F082FA89
:1002B000F8BDDA05801A012340001B06C01880181B
:1002C0005A428018CA0F1043490007E04908C20784
:1002D0001143DA05801A80194008801800F062FA8C
:1002E000F8BD61000122511A001BF7E70122D20775
:1002F0005140AAE70122D2075040A6E7F0B50746D1
:100300000846584087B0C00F049048000E46590078
:1003100040084908BC1A884105D2384631461E4675
:1003200017460B4602465800400810434DD0300D8A
:10033000039040055900400D490D0590401A029068
:10034000402873DA18030121000B090508430190C6
:1003500004980092002806D01146019A49420020D4
:10036000904100910190029840210A1A0199009849
:1003700000F0F5F905460C466B4607CB00F0FFF997
:10038000C0197141039A0E0D0023D71756401A4623
:100390007A40164344D0049A002A2DD0029A012AAA
:1003A000039A15DC1205C01A914101263605001C7E
:1003B0007141D20F059ED2070093019202962A4600
:1003C000234600F03DFA07B0F0BD38463146FAE763
:1003D0001605234A0F46B218C01AB7410121090574
:1003E000001C4F4100187F41114618187941E20F57
:1003F00010436D19644113E0E2076D08154364086A
:10040000C2071443039A01261205C01A914136050A
:10041000001C7141CE07400830434908C0185141C3
:100420002A46234600F0FFF9CDE7FFE704980122B2
:100430004000C117121A00238B4104983146C4179B
:10044000381AA141EEE730B40124E407634030BC20
:1004500054E730B40124E407614030BC4EE70000AB
:100460000000E0FFF0B51FB488B00B990998002494
:1004700048400999C00F490049080991C0070B99E4
:100480000090490049080B9109990898A64608432D
:100490001CD00B990A98084318D0099801244000F1
:1004A000420D4800410D099824050003000B20432C
:1004B00009900B980003000B20430B9050181C4927
:1004C0004018002201901446104605E00020014625
:1004D0000DB0F0BD032801DA034600E003239C467B
:1004E000C11A0AAE0AE05F0008ADED5B4F00F75B92
:1004F0007D430027AA187C41491C5B1E6145F2DD43
:10050000410004AB5A522104120C0A43240C401C33
:100510000828DFDB01980290009970460191009055
:10052000059B049A0799069800F08AF9D0E7000025
:100530000DFCFFFFF0B50C465C4085B0E40FE4070E
:1005400003944C000026640859009446490802466A
:100550000296224321D062460A431ED06200570D04
:100560004A000E032303550D012402462C4924059D
:10057000781B1B0B360B4018234326436146009023
:100580001C46501AB44103D30098401C009002E06E
:10059000921800985B41002803DA0020014605B05C
:1005A000F0BD0020012109050746864611E064469A
:1005B0001D46141BB54106D36546521BB341744614
:1005C00007430C43A646CD07400849082843921824
:1005D0005B4105460D43EAD11046184313D06046EF
:1005E000194650407140084306D06046101AB34186
:1005F00006D20122002306E000220123DB0702E0ED
:100600000122D2435310009874460105381C614101
:10061000029C039D0019694100F005F9BFE7000045
:10062000FD03000070B54B005B0803430BD04B008B
:100630005C0D002633466542B341D417AD1AA34181
:1006400002DB0020014670BD12053018514170BD1B
:100650000EB505490291002100910A460B46019111
:1006600000F0EEF803B000BD33040000C20F4100FB
:1006700040020123400ADB05D207090EC0187F297A
:1006800001DA00207047962903DC9623591AC840E6
:1006900001E096398840002AF4D040427047C20FEA
:1006A000D207400040080BD0C10D0723DB01C91859
:1006B00040020905400A1143C20840071143704730
:1006C000002001467047CB0FDB07490010B54908F1
:1006D00002460A4307D00A0D07240903E401090B67
:1006E000121B002A01DC002010BDC900440F0C437E
:1006F000C100E018D205801800F054F810BDF0B524
:100700001FB40646002082B00546402401910090A7
:100710001BE0019922460F46304600F029F9049A61
:10072000059B801A994110D310461946224600F0C5
:1007300016F8361A8F410197224601200021009FAA
:1007400000F00DF838184D4100902046641E002836
:10075000DFDC019B00982946324607B0F0BD10B59A
:10076000202A04DB0146203A9140002010BD914030
:1007700020239C1A0346E3401943904010BD10B556
:10078000202A06DBCB170846203A1041C1170B433D
:1007900006E00B461341D0402024A21A91400843A2
:1007A000194610BD002904DA401C490001D1400857
:1007B0004000704770B40024050C05D110240004DB
:1007C00002D1002921D01124050E01D100020834E4
:1007D000050F01D10001241D850F01D18000A41C4B
:1007E000002801DB4000641C002908D020252E1BB6
:1007F0000D46F540A14000D00121294308430106E0
:100800001B1B000ADB1D02D5002070BC7047DB05F6
:10081000181880180029F8DA401C4900F5D170BC7E
:1008200040084000704710B5002B08DA0024401C37
:10083000614192185B411A4301D14008400010BD4C
:10084000F0B51FB482B005460C0003D008460CF08A
:1008500009FC02E00CF006FC203002460090214624
:100860002846FFF77CFF049B059A04460F46184371
:100870001143084314D0184610431BD00098402160
:100880000A1A1846059900F073F805460E46009AB4
:1008900005990498FFF763FF084305D0012004E0A1
:1008A0002046394607B0F0BD0020C11705430E436E
:1008B0002C43374300990E986305401A7905E40AE2
:1008C00000220C43FD0A0A3002D500200146E9E768
:1008D0000105101969410C9C0D9D00196941FFF734
:1008E000A2FFDFE74A0009030123090B1B05194397
:1008F0000A4B10B5520D9A4202DA0020014610BD93
:10090000064B34339A4203DC9A1A00F031F810BDDA
:10091000034BD218FFF723FF10BD0000FF030000B8
:10092000CDFBFFFF10B5002904DB0124E4074042A2
:100930008C412146002B04DB1C460123DB0752427D
:10094000A341994200D1904210BD0000064C012500
:10095000064E05E0E36807CC2B430C3C9847103467
:10096000B442F7D3FFF700FC947C0510347D0510EA
:1009700010B5202A04DB0846203AD040002110BDE3
:100980000B46D340D0402024A21A91400843194678
:1009900010BD70B58C180578401C6B075B0F01D13A
:1009A0000378401C2A1106D10278401C03E0067827
:1009B0000E70401C491C5B1EF9D12B0705D4002387
:1009C000521E0DD40B70491CFAE70378401CCB1A59
:1009D000921C03E01D780D70491C5B1C521EF9D55A
:1009E000A142D8D3002070BD7047F0B50F46B5B016
:1009F0001546002130AA0F23445C5E1A491C945509
:100A00001029F9DB1022694630A800F013FB0026FC
:100A1000B400E019401CFFF705FC395D00020843F3
:100A20000321891B89002CAC761C6050042EEFDB5F
:100A3000214610236A46084600F0C6F90020032626
:100A4000311A8900635C8200AB54635A52191B0A45
:100A500053706358401C1B0C93706158090ED17081
:100A60000428EDDB35B0F0BD70B5BAB00546002006
:100A70000C46009020206946087210200A90389099
:100A80001E46039201A800F085F92246294601A8D6
:100A900000F008F86A46314601A800F045F93AB07E
:100AA00070BD0000F7B592B00F46040004D0002FCF
:100AB00006D11498002803DD6120400115B0F0BD77
:100AC0001498002804DB102804DA2079800601D469
:100AD0009448F3E72079410701D4810702D5914872
:100AE000401CEBE7402108432071204614300025CC
:100AF0000F90143001901EE00026B00004904019C1
:100B0000C0190390FFF78EFB00BA010A039809028F
:100B1000C07807AA01430498761C00194069414037
:100B20000498042E1150E8DB636A07A8019A0F9914
:100B300000F07CFA059D28461030059014998842F3
:100B4000DADB2079800620D400291EDD0026B000E3
:100B500004904019C0190390FFF764FB00BA010A22
:100B600003980902C07807AA01430498761C00196B
:100B7000406941400498042E1150E8DB636A07A8DD
:100B8000019A0F9900F052FACAE000200B900C90E5
:100B90000D900E900BA9636A0846019A00F046FA80
:100BA0000B988721C00F48430B990C9A4900D20F2C
:100BB00011430B910C990D9A4900D20F11430C91DE
:100BC0000D990E9A4900D20F11430D910E99149A66
:100BD00049004140284610300E9190421CD1002619
:100BE000B00002904019C0190490FFF71BFB00BA37
:100BF000010A04980902C0780BAB01430298761CE5
:100C0000001942690298185842405140029807AAB8
:100C10001150042EE4DB79E00B988722C00F50437B
:100C20000B9A0C9B5200DB0F1A430B920C9A0D9BF4
:100C30005200DB0F1A430C920D9ACB0F52001A434D
:100C40000D924A00424014980E92401B0390C01728
:100C5000820F0398002610188010029019E0B0004F
:100C600010904019C0190490FFF7DCFA00BA010A8D
:100C700004980902C0780BAB01431098001942692F
:100C80001098185842405140109807AA11500298E5
:100C9000761CB042E3DCB00001190BAA4969125876
:100CA000514007AA1150039B00211B1A42199C4670
:100CB00096460BE072465218BA5CCD0018235B1BB7
:100CC0009A4007AB1D586A401A50491C8C45F1DC0C
:100CD000002909D0CD00182107AA4D1B13588021E7
:100CE000A9404B40135005E007A90A580123DB0730
:100CF0005A400A5007A90BAA05E0B00003195B6926
:100D000015586B400B50761C042EF6DB636A07A85F
:100D1000019A0F9900F08AF9207904210843207183
:100D20000020CBE61D0C0000F8B516460F46040067
:100D300009D0002E07D025468035E86D401E1028CA
:100D400004D31348F8BD61204001F8BD2079400666
:100D500004D4002211462046FFF7A4FE2079022188
:100D600008432071002018210CE0C217920F1218BE
:100D700092089200121983075269DB0ECB1ADA40EF
:100D80003A54401CEA6D8242EFDC00203260F8BD2C
:100D90001F0C000010B5040007D002230022A16838
:100DA00000F00CFA010003D00CE06120400110BDFE
:100DB000102020610020024683001B19401C5A614C
:100DC0000428F9DB084610BDFFB5D908490083B0F7
:100DD000891D02910368116854684B404168956809
:100DE00061408468C0686C40A446D4681E0E6040B0
:100DF0008B4CC5B2A65D655D3606354367460E026F
:100E00003F04360E3F0EA65DE75D36043F023E43CB
:100E10003543AE460F0EDDB2E75D665D3F063E43ED
:100E200065462F0205043F0E2D0EE75D655D3F040C
:100E30002D022F433E43CDB20096665D65462F0ED0
:100E4000E75D1D043F063E4307023F0E2D0EE75DA2
:100E5000655D3F042D022F433E4301966546EDB28A
:100E6000070E665DE75D0D043F063E431F023F0E21
:100E7000E75D2D0E645D3F0424022743029C3E4340
:100E8000641E10320294002C63DD664C70462040D4
:100E9000430070466449C00908401B214843434051
:100EA000704658401821C841434070461021C8413F
:100EB000434070460821C841434010685A4D4340A2
:100EC0000098594F204041000098C00928401B2538
:100ED00068434140009818254840E8414140009847
:100EE0001025E841414000980825E84141405068FC
:100EF000019D41400198ED0920403D4040001B27E5
:100F00007D436840019F05467D401827FD416840AC
:100F1000019D1027FD416840019D0827FD41684063
:100F2000956868408446304620403F4DF4092C4087
:100F300040001B256C436040044674401825EC417A
:100F4000604010243546E54108246840E641704081
:100F50004BE7334CC5B2665D1D0E645D2406264327
:100F60000C02250E2E4C645D65462D042F0E2C4D73
:100F70002404ED5D2D022C432643294C0096DDB25E
:100F8000655D0E0EA45D2406254364462402260EEC
:100F9000234CA45D0604370E214E2404F65D360270
:100FA00034432543AE461E4CCDB2645D65461C4EAF
:100FB0002F0EF55D2D062C4305022F0EF55D1F0447
:100FC0002E043D0E164F7F5D65463F023E4334437F
:100FD000EEB2134DAF5D050E1148405D00060743AC
:100FE0001802030E0E48C05C09040B0E0C490004E5
:100FF000C95C93680902084307431068009E634078
:101000005168049C7040D26820607546049869401D
:10101000416004987A4083600498C26007B0F0BDD4
:101020003C7A05107F7F7F7F0101010100B5FFF74A
:10103000CBFE00BDF7B50298860800240DE00098AD
:10104000A7003D182846FFF7EDF800BA000AE97836
:10105000000208430199641CC851B442EFDB0199B6
:10106000029A084600F002F8FEBD0000F0B59208B2
:10107000002303E09C0005590D515B1C9342F9DBF2
:101080004D4FF81FF938042A48D0062A6DD0082A97
:1010900043D10023CA6915022D0E140E455D045D6F
:1010A0002D062C4315042D0ED2B2455D825C2D0415
:1010B000120215432C439D007D590A686A40544032
:1010C00001225B1C0C62940065180C59EE69521CDD
:1010D00066402E62042AF6DBCA6A150ED4B2455D5C
:1010E000045D2D062C4315022D0E1204455D120ED3
:1010F000825C2D04120215430A692C4354400522D8
:101100000C63940065180C59EE69521C66402E62FF
:10111000082AF6DB2031072BBCDDF0BD0022CB68AE
:101120001D022D0E1C0E455D045D2D062C431D0475
:101130002D0EDBB2455DC35C2D041B021D432C4309
:1011400095007D590B686B405C400123521C0C617B
:101150009C0065180C59EE685B1C66402E61042BE0
:10116000F6DB1031092ADADDF0BD0022CB681D0262
:101170002D0E1C0E455D045D2D062C431D042D0E09
:10118000DBB2455DC35C2D041B021D432C4395005F
:101190007D590B686B405C400123521C0C619C0024
:1011A00065180C59EE685B1C66402E61042BF6DB5B
:1011B0001831092ADADDF0BD3C7B0510F8B59E46F2
:1011C0008C46002807D0002905D059078C0F002A2B
:1011D00004D1012C02D061204001F8BD416A1029E0
:1011E00003D0182901D0202905D1012C05D001698F
:1011F000491E102901D31E48F8BDC2600179F923A8
:1012000019400171012C20D000210B468D002D18B2
:10121000491C6B610429F9DB0021182712E0CB1768
:101220009B0F5B189B089B001D182B4614330093E3
:101230008B07565CDB0EFB1A6D699E403543009BA5
:10124000491C1D6003698B42E9DC0179C9070CD197
:10125000614681607146C90701D0032C05D1014662
:10126000426A28316046FFF7E5FE0020F8BD000025
:101270001F0C0000F0B5AD4D85B0E8680226800770
:10128000002806DA06F054FF002868D1E868B04369
:10129000CFE0E868C00762D0E8680104A4480068AD
:1012A000440000290CDAA14818300BF0C9F90028D5
:1012B00006D09E48214618300BF087FA13F0DEF86E
:1012C000E868400409D568880CF0CCFF002804D1F8
:1012D000E868012189038843E8602869954FC105C2
:1012E00004D512F065FE2869B84344E0810701D1B6
:1012F000410720D5C10703D01B244008400009E066
:10130000810702D56424B04304E0410703D5FB24E0
:10131000042188432861224687A189A00BF092FE10
:101320006888E200214670320FF092FF002816D044
:1013300081A18FA011E00107402600291DDAE8688D
:1013400008240006002812DBE86840060FD46888ED
:101350000DF050F8010004D08FA00BF073FE05B023
:10136000F0BDE8683043E8602869A04303E097A037
:101370000BF068FEF8E72861F1E7C10620D5E868C0
:10138000A1498004E86805D58843E8609FA00BF078
:1013900059FE11E00843E860A3A00BF053FEE86893
:1013A000000409D46148214618300BF00EFAE868B1
:1013B0000121C9030843E860286910218843DAE75E
:1013C00001060CD50222A988688813F065FC002864
:1013D000C5D1286980218843286199A00CE0400686
:1013E0000DD50122A988688813F056FC0028B6D1D3
:1013F0002869B04328619AA00BF024FEAFE7E868A3
:101400009F4C8005E86816D4C005A8D410229D49D9
:1014100001A807F07EF901A80090022322460121CD
:1014200068880CF023FF010001D0974895E7E86831
:101430003843E86093E70005E86817D440058ED488
:101440001022924901A807F064F901A80090022334
:101450002246012168880CF009FF010001D08C4868
:101460007BE7E868012189020843E2E7400705D4E9
:101470000122A988688813F00FFC70E7E8688004EF
:10148000BCD5E868810683484BD404462C34C06838
:101490002146FEF7D1FE26460836244800960089EC
:1014A00000230B3885B26F0805E00FF059F859009A
:1014B0005B1C7052DBB29F42F7D8294600980EF0B1
:1014C000F9FF211DFEF7B8FE0835EAB2174D714B42
:1014D000E8882C33401C81B268880DF049F901007E
:1014E00003D0642914D06CA037E76A4C60690028E7
:1014F00002D101F0F7F82060E068401CE060288924
:101500006169C01E0818606101F0ECF8606026E7B0
:10151000E86820210843E8605E49486A401C486248
:101520001DE7416A491C416219E70000F4020020EE
:10153000A077051000010000434C49454E540000BF
:1015400025732053656E642064617461206C656E40
:10155000207570646174652072657175657374209F
:10156000776974682076616C75652025640A0000CF
:101570002573204572726F7220696E206863695FFF
:101580006C655F7365745F646174615F6C656E67E1
:10159000746828290A0000004572726F7220696E13
:1015A000206163695F676174745F65786368616E09
:1015B00067655F636F6E66696728292072657420AE
:1015C0003D20307825303278720A00004572726F03
:1015D00072206163695F676174745F6578636861D5
:1015E0006E67655F636F6E6669672063616E206218
:1015F000652063616C6C6564206A757374206F6E1E
:10160000652074696D650A00002000005365742030
:10161000756E69646972656374696F6E616C206D63
:101620006F64650A00000000536574206269646994
:1016300072656374696F6E616C206D6F64650A001A
:1016400053656E7420496E6469636174696F6E20BE
:10165000737562736372697074696F6E0A0000005B
:1016600053656E74204E6F74696669636174696F47
:101670006E20737562736372697074696F6E0A00AD
:10168000FFFF0000F87705104C7C05100878051066
:10169000047C0510840700204572726F7220307838
:1016A000253032580D0A00007FB5054698680122A2
:1016B00002739A681C4651739868022202A90E3080
:1016C00007F027F8A16805200D74E0807FBD0000B9
:1016D00010B508480C460068074902224118A06866
:1016E0005C310273A0680D3007F013F80320E0802E
:1016F00010BD00002C0700202C07000070B5064626
:1017000008881D460C46001D81B213460222304651
:1017100007F0D6FA21882B46891C2180091D89B241
:101720000222304607F0CCFA2088801C208070BD51
:10173000FEB500240E462746056845E0286802905D
:10174000A968022230460D3106F0E3FF3088B84226
:1017500009D087B2384603F001FA014601AA38469B
:1017600004F0A0FB019CA968022268460F3106F034
:10177000D0FFE888401F81B22220005D002806D0FB
:1017800001280BD0002811D0012814D01BE0E08BD9
:101790006A461288401E904206D307E0208C6A46B3
:1017A0001288401E904206D20720FEBD684600887F
:1017B0000818E18B03E0684600880818218C8842ED
:1017C00001D90D20FEBD029D002DB7D10020308033
:1017D000FEBDFFB5C8880025401E83B00E4687B207
:1017E000012427E0B0680222083001196846091D6B
:1017F00006F08FFF6846008803F0B0F901001DD0A5
:1018000068460A8D0088824212D001AA04F04AFB81
:1018100000280DD101992620405C400708D5069884
:101820006A00101802221C3106F073FF6D1CADB265
:10183000A41CA4B2BC42D5D30C98058007B0F0BD5F
:10184000FFB5074683B0002000900D9803F086F99D
:10185000069905460C310191002826D00837BD4273
:1018600023D0288D0E9988421FD80D99884213D312
:101870000E99884210D8294602222A31019806F092
:1018800048FF10220C99069806F03FFF002809D067
:10189000298D0E98814208D02E462C6A2036B442FB
:1018A0003FD140E005980021018007B0F0BDA18B39
:1018B0000D98814234D30E98814234D8204620308E
:1018C0000290C078012808D02046083010220C99D8
:1018D00006F01BFF002808D022E021460222083132
:1018E000019806F016FF0698F0E702988079400705
:1018F00016D50098002801D1E08B0090E18B814241
:1019000011D1059802220088410004980818214648
:101910001C3106F0FEFE059805990088401C0880E1
:101920002468B442C3D12D6899E70000064800211D
:10193000026849204001101801724172032181722E
:10194000C1720020704700002C07002070B50D4DBB
:10195000044601232868D902401890261A46406997
:1019600031460CF075FA010003D030464C600CF0A3
:101970005BFA4920296840010918087A401C08725E
:1019800070BD00002C07002010B504460020208206
:10199000A074A168A16161612060204605F046FF46
:1019A000452801D0412010BDA08803210EF064FE1F
:1019B00004460FF051FE002813D072B60A480122E7
:1019C00001680920000209184878A24010434870B5
:1019D00062B6002013F0C6F9002802D000200DF0F6
:1019E00047FB002010BD00002C07002070B5C17C13
:1019F0000E4D4906490EC174044601232868D902D8
:101A0000401890260022406931460CF021FA01006E
:101A100003D030464C600CF007FA49202968400199
:101A20000918487A401C487270BD00002C0700203D
:101A3000F8B516460D46074600240AF08FF900282F
:101A400006D032462946384600F0DAFD044604E066
:101A500020356879002802D00E242046F8BD287968
:101A6000C10701D1012E09D0810701D4022E03D074
:101A70004007F2D4042EF0D10324EEE70224ECE771
:101A800088681E2202730120C88000207047FFB5BD
:101A900081B00646684680890C9F0C46002837D0E6
:101AA0006946098A884233D87088C01FB8422FD34C
:101AB000FD1DAAB20021204608F0CCF9002802D072
:101AC000642005B0F0BDA06806210173A068022261
:101AD00003A90D3006F01DFEA068022204A90F30F4
:101AE00006F017FEA06802220AA9113006F011FEC6
:101AF0003A460B2120460B9B07F0E2F8E5802121B6
:101B000030698901084330610720B0730020D8E7AD
:101B10004220D6E77FB50546684600890C46002876
:101B20001ED06946898988421AD8A06804210173A9
:101B3000A068022202A90D3006F0EBFDA068022287
:101B400003A90F3006F0E5FD0520E080212128697A
:101B50008901084328610520A873002004B070BDE6
:101B60004220FBE77FB50546684600890C46002801
:101B70001AD0A0680C210173A068022202A90D30BE
:101B800006F0C7FDA068022203A90F3006F0C1FDD0
:101B90000520E080212128698901084328610D2062
:101BA000A873002004B070BD4220FBE77FB5054656
:101BB000684600890C9E0C46002816D06946898923
:101BC000884212D8A06810210173A068022202A9DD
:101BD0000D3006F09EFDA068022203A90F3006F02A
:101BE00098FD012E04D0022E0AD0422004B070BD10
:101BF000A068022208A9113006F08BFD072006E03C
:101C000008AB10220921204607F05AF81520E08081
:101C1000212128698901084328611120A873002027
:101C2000E4E77FB50546684600890C9E0C4600280F
:101C300016D069468989884212D8A06808210173A4
:101C4000A068022202A90D3006F063FDA0680222FE
:101C500003A90F3006F05DFD012E04D0022E0AD03C
:101C6000422004B070BDA068022208A9113006F01D
:101C700050FD072006E008AB10220921204607F09E
:101C80001FF81520E0802121286989010843286177
:101C90000920A8730020E4E7FFB581B08C680A9E94
:101CA0005220207388680D461F46022203A90D307A
:101CB00006F02FFD3B4632460721284607F000F884
:101CC000F61CEE80002005B0F0BDFFB581B00646E1
:101CD000684680890A9F0D46002827D07088C01E5C
:101CE000B84223D3FC1CA2B20021284608F0B2F867
:101CF000002802D0642005B0F0BDA868122101734D
:101D0000A868022203A90D3006F003FD3A46072118
:101D10002846049B06F0D4FFEC802121306989011C
:101D2000084330611320B0730020E4E74220E2E76B
:101D3000034900280A7801D0002008701046704737
:101D40003007002070B5124C0E462178012500297D
:101D50001BD10146012006F0C7FD6070314602200C
:101D600006F0C2FD617840186070314620310320D2
:101D700006F0BAFD617840180006000E607004D1CC
:101D800006F02AFE022020700025284670BD0000C3
:101D90003007002070B5184D90B02878002802D088
:101DA000012010B070BD6E46002404F08AFAA10034
:101DB000641C7050082CF8DB6946012006F094FD85
:101DC0000128F1D020220D496846FEF7EBF90B49B6
:101DD0002022203108A8FEF7E5F96946022006F026
:101DE00083FD08A9032006F07FFD06F0F5FD012024
:101DF00028700020D5E7000030070020CC790510BE
:101E00007EB5044616460D46684604F003F968465A
:101E100003782370407828706846807830707EBDE3
:101E200070B500210C4A03E0535C491C5918C9B233
:101E3000535C002BF8D1CE1C02243525202E04D271
:101E4000545451184D708870CB7004490C704D700B
:101E50008870CB7070BD0000380700201C00002087
:101E600070B50AF01FFC1D4C01252068ED024119D8
:101E70000979002909D1A0300079C00727D00EF0D8
:101E80004DFF00F03FFC01F02DF800F0FFF8206856
:101E9000014640310A78C9798A4317D13E21095C4D
:101EA000002913D10E490A8812070FD50922D2063C
:101EB0001269497A836A4019006FC900801A0002CA
:101EC00059180012814201DA0DF026F870BD01F0B8
:101ED000D3FF02F09DFE09F031FDD2E72C07002070
:101EE000C000002010B5837F0122002492024168C7
:101EF000082B03D94224914202D310E0914201D22F
:101F000042240CE001463422064806F002FC00F0B0
:101F10007FF8002801DA482401E00AF0EDFF2046AE
:101F200010BD0000C00900203EB5174D15482968B6
:101F3000827F0846A0310A7300246030047644761C
:101F40008476E122C2768022027702224277302014
:101F500008704C7002AA01A96846FFF751FF684655
:101F60000078A22201016846007A891C0002014320
:101F7000684600790003014328681152A0300471BB
:101F80003EBD0000C00900202C07002070B50AF0FB
:101F90006FFB05F04FFB06F005FEFFF7C7FC04F0F2
:101FA0001BFB184C18492068184D40188110092057
:101FB0002A68000210184167616889088167A16872
:101FC0008908C16709F0F6FB0F202968C001228B40
:101FD00008188281628BC281A28BC280628C0281CE
:101FE00022462032127882723B2252010020891848
:101FF000087501F083FD04F009F90DF0A5FB00F070
:10200000F7FF70BDC00900200000FCEF2C07002086
:1020100070B50025ED430EF067FA01282FD000239C
:1020200018490322888BFF24401E10438A7F5134B5
:1020300062438218088B282460431218488B30248E
:10204000604312180846203040782C246043101852
:102050000D4A181884184869A0420ED11320C001F7
:1020600084420AD90D690EF03FFAC1B2284600F049
:10207000FFFD00F02FFF401B251A284670BDFF23EF
:10208000B533CDE7C009002051190000F8B52C4F39
:102090003C68206E5C34401C002814D00025294880
:1020A0000023C07B00283ED00926F6062648002DD6
:1020B0001CD000210A460B464169521C994204D1AA
:1020C000002902D004E00125E9E7204B9A42F2D32F
:1020D0002160006960603069A1680002090E000A91
:1020E00009060143A16000F033F81DE03169A268E0
:1020F0000902090A150E08D0018BC90712D04169DF
:10210000216000696060E37210E0881A00027D239C
:1021100000121B03984205DD100E00060843A06064
:1021200000F016F8F8BD6360002DFBD003CC12F070
:102130006FFDFA2011F074FD39688862F8BD000067
:102140002C070020E0090020000010488813000040
:102150000449002008610448012100686030C17111
:1021600070470000000010482C07002010B508F050
:1021700019F910BD70B5234A00211068044640309B
:102180004176017609231B02E01841700F253620A5
:10219000055508461468E418E46C21541468E418E2
:1021A000E56C0446303429551468E418E56C04469F
:1021B000603429551468E418E56C04469034401CDA
:1021C000C0B229552D28E5D31268D318D86C5862AF
:1021D000044630341C629030D8610B4814464834B1
:1021E00001800921417105238371C171037242810C
:1021F00000F00CF8FF2020706070A070E0701F20CD
:10220000207170BD2C070020C000002010B50648CA
:1022100001680648406A002803D020220EF07FF8AB
:1022200010BD0020087010BD2C070020C009002040
:10223000F8B5069C1F4615460646002C13D0A0682C
:1022400002220D3006F065FAE81E82B23B460721F5
:10225000204606F035FDE580A068012E05D01D2141
:1022600001730020F8BD4720F8BD1B21F8E770B5C9
:1022700015460646FFF7DCFB0446082D0BD1052C5E
:1022800009D1304609F06AFD002804D000894004D5
:10229000800F00D00024204670BD2423184204D0B3
:1022A000C81F092803D82032D1710020704742206E
:1022B00070470000F1B5FFB001248BB060020590BB
:1022C0000027CC4807970168CB48C94D08180390F0
:1022D0008A980AAA0005000D05A909F09FF8069042
:1022E000002872D104260AA805994218203AD27F04
:1022F0000B2A23D00026002004900AA8811902226C
:1023000001A8029106F005FA6846818809AB08AA7F
:10231000039803F0A9FD012817D002287ED0684653
:102320008088854200D30546844200D92046044671
:1023300002988078012872D013363CE1491E761E3F
:1023400036040591360CCFD1D5E708980090002FC0
:1023500066D1009902222831029806F0D6F90028A9
:102360001ED100982030017B02988078814217D1DD
:10237000012808D10098029902220830C91C06F0F1
:10238000C4F9002815D002988078022808D1009856
:10239000029910220830C91C06F0B7F9002808D0AD
:1023A0000098008DA84200D80546A04200D22046E1
:1023B000044602990AA88978012907D0133605999D
:1023C000B6B28E4204D3012707E006E1761DF6E798
:1023D0008119022201A806F09CF90399009808319E
:1023E0008E462FE084466946026A8B8820300DE0D5
:1023F000918B994203D3012F7ED199427CD9A94276
:1024000000D80D46A14200D30C4612688242EFD19B
:102410000498002804D16046006802E015E0BFE09F
:102420008AE070450ED0018D994203D3012F09D166
:10243000994207D98D4200D30D468C4200D80C46F4
:10244000012F59D17045CDD1BAE008980090002FE6
:1024500072D1009902221C31029806F056F9002828
:102460001ED100982030C17802988078814217D11F
:10247000012808D10098029902220830C91C06F0F0
:1024800044F900281AD002988078022808D10098D0
:10249000029910220830C91C06F037F900280DD027
:1024A0000098808BA84200D80546A04200D2204662
:1024B000044602988078012826D003E002988078AC
:1024C000012805D013360798B6B201281ED021E0A6
:1024D00000984A490089884216D18A9801F042F84A
:1024E0000146009800F01EFF0099098C48430099AE
:1024F00089694018022200E038E00299491D06F07F
:1025000008F901200790D4E7761DDCE7B61C00200F
:10251000B6B207900598864201D3012705E00AA8C4
:102520008119022201A806F0F4F8039A00990832F2
:1025300009980968944630E01AE086466A4693880E
:1025400020300DE08A8B9A4203D3012F0ED19A429C
:102550000CD9AA4200D81546A24200D314460968F5
:102560008142EFD1049800282AD102E00120049092
:1025700026E07046006860450FD0028D016A9A42DD
:1025800003D3012F09D19A4207D9954200D31546AA
:10259000944200D81446012FE8D16045CDD10FE018
:1025A0000298C078022805D102980079292801D123
:1025B000B61CB6B2761D0598B6B2864200D3012786
:1025C0000598811B042902D3864200D293E6049821
:1025D0000028FBD1A54203D906987FB00CB0F0BD0E
:1025E000224629468A9803F00DFF0690F5E7000081
:1025F000FFFF00002C0700202C070000022900002C
:1026000070B515460C46064609F090FB20346179FA
:10261000012D09D00A0702D54207920F0FD0CA0632
:1026200025D5020709D522E0CA0702D04207920F3A
:1026300005D08A0705D5020703D4082070BD052000
:1026400070BD490707D5C00709D0E179304609F0C8
:10265000E1FA5F2805D02079C00704D005E00F20FB
:1026600070BD0C2070BD022070BD002070BD8906B9
:1026700007D5C007F3D0E179304609F0CBFA5F28DF
:10268000EFD02079810701D4022D07D0410701D472
:10269000042D03D00007E8D4082DE6D1032070BD37
:1026A00000B500F05FFF002805D085220169920186
:1026B000114200D0002000BD10B508480649416114
:1026C00007490723CA691202120A44042243CA6155
:1026D00000218161036110BDFE7C000000E000E08C
:1026E00004ED00E00148006870470000CC020020C3
:1026F00003490A680B689B1A8342FBD370470000AA
:10270000CC02002010B507F0F5F806F0DFF80DF068
:10271000EBFE012801D100F02FF800F085FA10BD82
:102720007047000070B513490922096812020020A1
:102730008B18AC22525C1AE058241D6B44432C19B0
:1027400054252D5DED0610D5412040010818C030FC
:10275000428A018A608905F057FA3A2804D0403449
:10276000207DEF210840207570BD401CC0B2824220
:10277000E2D870BD2C07002010B5FFF7D3FF10BDC5
:10278000FFB50746464881B000880D4645490922F5
:102790000968120240078A18400F126B58235843E9
:1027A0001418412040010E180DF09EFE002822D082
:1027B000142D04D0152D20D0072D59D05CE02146D2
:1027C000039804F033FC0121206989040843214661
:1027D00040312061087D022210430875820609D528
:1027E0006279520852006271DF2210400875002F92
:1027F0004ED151E0012005B0F0BD25464035287D81
:10280000C007F7D02146039804F010FC204604F0DE
:10281000DFFB002825D0A18FE08F814200D208463F
:10282000E8806989A889814200D2084668822A899D
:10283000E9898A4200D211462982628F2888824221
:1028400000D21046C9080E3989B26880884200D388
:102850000846A880049800680121490608430499A5
:102860000860287D400840002875002F10D113E033
:102870000398C078142802D0002005B0F0BD403481
:10288000207D04214008400008432075002F03D01C
:102890000820C036F073ADE70820C036B073A9E752
:1028A000C00000202C07002010B5FFF769FF10BD05
:1028B000002101E000BF491C8142FBD370470000AA
:1028C000F3B58BB005461C2248A103A8FDF76AFCAE
:1028D000684603F09FFB09240126E406002D67D01B
:1028E0004420694688764848017A314301724C2079
:1028F0006946C87520200875B22048775B2008A972
:102900000870424A906A4249030C8B420AD108AFD0
:10291000FB788F273B4008AFFB70FB784007400EE9
:102920000343FB70506A020C8A420AD16B465A7C00
:10293000CF231A406B465A745A7C8007800E02439C
:102940005A7432484038006B020C8A4209D108AAF6
:10295000D17889088900D170D1788007800F014330
:10296000D1706946C87DFB2108406946C875487822
:10297000897800010843122808D308A9C8780421DF
:10298000084308A9C870C878FFF74AFA03A80121CC
:1029900080B209044018E060E068C003FCD46946D6
:1029A0004878897800010843122801D309F006FD10
:1029B0001849088B0028FCD00E831720888100203E
:1029C00008610C98002806D0216910200140226976
:1029D00002408A42FBD0002D02D00F49152008701A
:1029E0000F490E4808600DB0F0BD0000023F000224
:1029F0003E30023C20023B4C023A400239B20234E3
:102A00005B02350B0000000000002040C0070010F2
:102A100055AA0000000010480000C040CCBCECFCEF
:102A20001400002030B531A003C88BB00690079188
:102A300030A003C804250991089011F0B1FE08AA3E
:102A4000062100200BF0D7FE040003D002462BA184
:102A50002CA036E0042101200BF0C9FE0BF030FD64
:102A6000040003D0024625A12FA02AE023A138A00C
:102A70000AF0E8FA0AA904A80191009005AB08221F
:102A8000002128460BF0ADFA040003D002461BA13A
:102A900038A016E019A140A00AF0D4FA08200025B9
:102AA00006A900900290019503916846028A818AE6
:102AB0002B4628460BF010FE040007D002460FA15B
:102AC0003DA00AF0BFFA20460BB030BD0BA148A0D4
:102AD0000AF0B8FA5348172101810561C560C16841
:102AE00002221143C1600020EEE70000426C7565D0
:102AF0004E524732AA0003E180020000434C494590
:102B00004E54000025732053657474696E6720422B
:102B1000445F41444452206661696C65643A2030E8
:102B200078253032780D0A002573204572726F7255
:102B300020696E206163695F676174745F696E69A3
:102B40007428293A203078253032780D0A000000A8
:102B50002573206163695F676174745F696E69746E
:102B60002829202D2D3E20535543434553530D0A0C
:102B7000000000002573204572726F7220696E207C
:102B80006163695F6761705F696E697428292030CD
:102B900078253032780D0A002573206163695F67FC
:102BA00061705F696E69742829202D2D3E20535570
:102BB00043434553530D0A002573204572726F72CB
:102BC00020696E20476174742055706461746520BB
:102BD0006368617261637465726973746963207696
:102BE000616C7565203078253032780D0A00000060
:102BF0002573206163695F676174745F75706461D8
:102C000074655F636861725F76616C75655F657836
:102C1000742829202D2D3E20535543434553530DF1
:102C20000A000000F4020020F8B5104E3068203091
:102C3000C57D002D19D0002409273F0210E0E907C7
:102C40000BD0C019016B5820604308184030417DFB
:102C5000204604F013FE002807D06D08641CE4B27F
:102C60003068AC21095CA142E9D8F8BD2C070020EE
:102C7000F3B581B01322D201012101A805F0D1FCE6
:102C8000914C04222060432101A805F0CAFC0125D3
:102C90002168ED02491988600422432101A805F04A
:102CA000C0FC216804224919C860FF21843101A8B1
:102CB00005F0B7FC21680C224919844D0861A97FF1
:102CC00001A80B3105F0ADFC0926216836028919EF
:102CD0004865A97F202201A805F0A3FC21681022E5
:102CE00089194864A97F01A805F09BFC2168282266
:102CF00089198864052101A805F093FC2168302218
:102D000089190865052101A805F08BFC2168FF22BF
:102D10008919C8640132012101A805F082FC2168EB
:102D200058228919C865A97F01A805F07AFC216895
:102D3000202289190863A97F01A805F072FC216887
:102D400089194863AA8B012101A805F06AFC0F27A5
:102D50002168FF01C9190860298B282201A805F004
:102D600060FC07212268090251188867698B3022AC
:102D700001A805F056FC0721226809025118C8670E
:102D80000C22012101A805F04CFC21680C228919B4
:102D9000C862012101A805F044FC21682822891994
:102DA000C96A8860284620300090417801A805F063
:102DB00038FC216804228919C96A896888600098EA
:102DC000417801A8491C05F02CFC216810228919C2
:102DD000C96A89684860A97F01A805F022FC2168BA
:102DE0000222C919C867A97F01A805F01AFC216849
:102DF0000222C9194865A97F01A805F012FC2168C3
:102E00000222C9198865A97F01A805F00AFC21687A
:102E10000222C919C865A97F01A805F002FC216832
:102E20000122C9190866A97F01A8491C05F0F9FB10
:102E300021681022C91988670B2101A805F0F1FB50
:102E4000072122680902511888610422802101A803
:102E500005F0E7FB216889198863029ADC20424368
:102E6000012101A8443205F0DCFB21688919C863FF
:102E7000029AD8204243012101A82C3205F0D1FB4F
:102E80002168F02289190864012101A805F0C9FB15
:102E90000F4C7C222060A97F01A805F0C2FB2168AD
:102EA0000822C867032101A805F0BBFB216828227E
:102EB00080310860012101A805F0B3FB2168803151
:102EC00048600198FEBD00002C070020C0090020CA
:102ED00034070020704710B5C001000C00F0E8F97D
:102EE000002010BDFEB572B63F4D0823286801468C
:102EF0004030C2791A43C27162B6002001276C4685
:102F0000FF0282005218D219526952884300401CB5
:102F1000C0B2E2520328F4D372B6C8190021066881
:102F2000016062B6F00702D000200DF09FFFB007ED
:102F300002D501200DF09AFF700702D502200DF096
:102F400095FF300702D503200DF090FF002623E007
:102F50000D281AD2211D254A80001258204690477C
:102F6000002812D072B62868F7224030C17911408B
:102F7000C17162B630E03A2807D21C49231D800097
:102F8000E8390A581946204690470298296840189F
:102F9000C01940692188018071006846415AB0001B
:102FA00002902A688018C01940690288920892002D
:102FB0001418028808348A420ED0A27891070BD0E8
:102FC0009107890F012901D104460834A0788008AF
:102FD000C006E078CFD5BBE7761CF6B2032EDBD374
:102FE0000DF002FEFEBD00002C07002098790510B0
:102FF00070B50DF013FE104C01252068ED0240194C
:10300000806840210DF0F2FA216849194861C868CA
:1030100040210DF0EBFA2168491988610869FF2108
:1030200081310DF0E3FA216808224B19D8610021A3
:10303000184605F072FB70BD2C070020FEB5064651
:10304000294814460068294A8518C888032806D0EC
:103050002346002202210420FEF726FB42E0896875
:10306000022268460D3105F054FB326990052ED4DA
:1030700068460188172903D35C20405B172801D2DA
:10308000172002E0814200D20846708001204002F1
:103090000243022032610190134837210068490140
:1030A00041183788097B7688012349070FD5D90253
:1030B000083040182422406902210AF0C9FE002885
:1030C00005D08780C680014601980AF0ADFEA06851
:1030D00003260673A068294602225C310D3005F0F4
:1030E00018FBE6800020FEBD2C0700202C07000006
:1030F000F7B590B000206A460D9090826A4A6B4BFB
:1031000012680446D218CB88022B08D0002218215E
:103110000420129BFEF7C8FA002013B0F0BD8B68A4
:1031200000205E7B0A900B908888303201920990D3
:10313000002701980BF0B4FB054620E028680890B2
:10314000A9880998814219D1A968022207A80D31DE
:1031500005F0DFFA002F01D16846878B6846808B27
:1031600087420BD1294601980BF0E7FB002028602D
:103170000A98002811D00B9805600B95089D002D2A
:10318000DCD1002FD4D1129819218068017301215C
:103190001298012EC18002D081E00A95EDE702A9C4
:1031A0000AA8FEF7C5FA002879D069460A891821CD
:1031B000129BFEF779FA002671E08168054602222B
:1031C00002A80D3105F0A5FA012E66D168460089E6
:1031D00001F0C4FC014668460EAA008902F062FEB6
:1031E0000E9C1099204600F09DF80D9055E02F6838
:1031F000012E3FD1002F06D0B968022205A80D315B
:1032000005F087FA02E0002069468882A968022258
:1032100004A80F3105F07DFAE8880D99401F80B2AF
:103220000090208CA269484369461018098A009AC8
:1032300043180921284605F04BFC2220005D012897
:1032400004D16846018A00980818E083684601891D
:10325000808A81420ED0208C0D99A26948431018B3
:103260000021019000911098E38B0188A28B02202D
:103270000AF0BCFF0A9908680A90002008600A99C1
:10328000002900D10B900121284605F0C5FC6946B4
:103290000889898A884202D13D46002DA7D10A9823
:1032A00000288AD139E700002C0700202C070000F5
:1032B00000B508490968084A914209D14006010C45
:1032C00006483F22028181611121018000F022F82D
:1032D00000BD000014000020CCBCECFC000010403D
:1032E00000B5094A1268094B9A420BD1084A3F239C
:1032F00013818008906106484030016033201080BF
:1033000000F008F800BD000014000020CCBCECFC6C
:10331000000010400248018AC907FCD07047000035
:103320000000104030B5024623239B5C0020012B97
:103330001AD112890D4B9A4216D10D4A09231268EF
:103340001B02D318A0325B6B127B0AE045010C888C
:103350005D5B24052D05240D2D0DAC4204D0401CD1
:10336000C0B28242F2D8002030BD00000229000025
:103370002C070020F7B578480F460068774988B0D9
:103380004418F888072804D20022062104200A9B4A
:103390002AE0B968022268460D3105F0BAF9B96829
:1033A000022201A80F3105F0B4F9B968022204A87D
:1033B000113105F0AEF9F888C01F80B2039068465D
:1033C0000288808882420CD8002A0AD008980021FE
:1033D00042880A9806F037FD002808D045200BB037
:1033E000F0BD062101200A9BFEF75EF9ABE00A98CA
:1033F0000721806808340173012168460181059422
:10340000008801F0ABFB05007CD086E06846008AAE
:103410000522D202904202D0521C904226D1684628
:103420000088814278D329460B2208313846039B15
:1034300005F0ECFB69466A8D098A8A426CD10399D2
:10344000022901D0102967D1002865D12A462846D3
:10345000296A28322030814202D06B6A1C3300E096
:10346000134602A90A98FEF749F955E02E462C6A40
:103470002036B4424ED14FE06946A08B098888427D
:1034800047D369468988884257D82320005D0128A0
:103490003FD120460899FFF745FF218CA26941439F
:1034A00051180B223846039B05F0B0FB0690089894
:1034B0000122008821460005000DFEF7B9FA0146F9
:1034C0006A462089128A904223D1002921D1E28BB9
:1034D00003998A421DD1069900291AD108996A4692
:1034E00049881289891A042927D322461C491C328B
:1034F000884208D12068B04205D00089884202D0B5
:103500002468F7E719E023461C3302A90A98FEF75E
:10351000F5F82468B442AFD12D68059885420CD0E7
:103520006846298D8088814207D808986A46408875
:103530001289801A042800D368E7684600890128A8
:1035400003D90A99C880002049E768460288062105
:103550000A200A9B48E700002C0700202C070000E7
:103560000328000010B50D4900050B680921090268
:1035700059184A6B0021000DA0331B7B0AE04C0157
:10358000145B2405240D844202D14801801810BD2B
:10359000491CC9B28B42F2D8002010BD2C07002074
:1035A000FFB589B0002405460794D0881646052843
:1035B00004D00022042108460C9B20E0B1680222BE
:1035C00008A80D3105F0A5F8B168022268460F3150
:1035D00005F09FF86846028C008882420CD8002AC9
:1035E0000AD00A98002142880C9806F02CFC00288A
:1035F00008D045200DB0F0BD042101200C9BFEF742
:1036000053F8B9E06846008C01F0A8FA060076D0BD
:10361000083504950498864272D06946308D098C2D
:10362000884230D36946098888422CD8002C0AD1B8
:10363000012107910C9805218068022401730C98E0
:103640000799806841730A984088001B042857D363
:103650000798012854D1201D81B233462833022215
:103660000C9805F02DFBA01D81B233462A330222AF
:10367000A41C0C9805F024FB6946A41C308D098815
:10368000A4B2884274D03746356A2037BD42C1D0D3
:1036900060E06946A88B098C88425AD3694609883C
:1036A000884265D8002C36D02320415D079881429E
:1036B00060D10A984088001B042802D30799012989
:1036C00004D0122856D30798022853D1201D81B266
:1036D0002B461C3302220C9805F0F2FAA41C079822
:1036E000A4B201280DD0201D81B22B460833102230
:1036F0000C9805F0E5FA2046103084B229E03DE050
:1037000036E0201D81B22B46083302220C9805F0CA
:10371000D7FAA01CF1E72320415D07910C98052101
:103720008068022201730C980799806841730C9895
:10373000294680681C310E3004F0EBFF07990129FF
:103740000CD02B460833102208210C9805F0B8FA4B
:1037500014242D68BD429CD136685BE70C9829463D
:10376000806802220831103004F0D3FF0624F0E70D
:10377000002C03D00C98C48000203BE76846028CE4
:1037800004210A200C9B3AE7064909220968120223
:1037900089188008496B400108180188002900D168
:1037A000002070472C07002070B50C460B4E81009E
:1037B0000B4832680D1801232032D3772146284662
:1037C000FFF78EFD28680021844201D1084600E001
:1037D000FB2032682032D17770BD00002C0700201A
:1037E0000000041038B5184A14682246BA32AE34C4
:1037F000A378DD0701D001290AD05B070CD5012988
:103800000AD0217949070BD5E17A002905D007E0D4
:10381000E07880210843E07038BD0121E1725080DA
:1038200020794106090FF7D07821084069460870D1
:10383000002048706A46022142200AF075FC207977
:1038400087210840207138BD2C070020F8B50546B7
:10385000002768460770154846260468AE3420796C
:103860008006800F03D00021084603F027FDA078D2
:10387000400718D520794C21084214D10023287E16
:103880006A46194600F0E4F900280DD16846007830
:1038900028762F74284603F063FA060003D12079B6
:1038A0004021084320713046F8BD00002C0700205D
:1038B00038B51048002104680846AE3403F0FEFC19
:1038C000694648702079C10704D001216A46117009
:1038D00088432071C0B2810705D502216A46117064
:1038E000FD210840207102216A4608460AF01CFCAE
:1038F00038BD00002C07002010B5FFF7D9FF10BD20
:10390000FFB50C4678A103C995B001910090002144
:1039100008A801730321C90268464186012108A84D
:10392000734E017435681746AE3502F0D7FC002897
:1039300008D170493068401802F028FBA8780028A8
:1039400002D0462019B0F0BD0BA8159900F0D5FAA9
:103950000028F7D1072010A90871012C05D0022CEE
:103960000AD0002C0ED04220ECE708A8017B1020E2
:10397000014308A8017305E011A90BA800F00AFB98
:103980000028DFD110A8027901230CA9284600F0F5
:10399000EFFE00287ED102222946189804F0B9FED5
:1039A0002988684681811521490201820784012600
:1039B00086734E2108A881700024C4700671072107
:1039C0004171867103A902A800F088FC002861D12A
:1039D000022202A91E9804F09CFE082F02D268461B
:1039E000478502E008206946488569460C850B46F4
:1039F00028880AAA098901F0C7FF00286DD13E492D
:103A0000684601820227078408A8847103A902A8D6
:103A100000F064FC002860D1022202A91F9804F083
:103A200078FE68460470694644704F850B462888C6
:103A30000AAA098901F0A8FF00284ED108A8007B36
:103A4000C00723D02C496846C91C01820821018483
:103A500008A88770047103A902A800F03FFC0028A1
:103A60003BD1FF216846C1718171C1708170417085
:103A70000170447104716946082048850B46288806
:103A80000AAA098901F080FF002826D108A8007B36
:103A9000800600E021E022D5298868468181164908
:103AA000A53101820684867308A88770C4700471EA
:103AB00007214171847103A902A800F00FFC0028BE
:103AC0000BD169460E700C854E850B4628880AAAD4
:103AD000098901F059FF002801D0472032E708A8E2
:103AE000007BA87000202DE7626C75656E726721FF
:103AF0002C070020EF060000012A000003480021E7
:103B00000068AE30C1708170704700002C07002043
:103B100070B50D4B1C68AE342379DD0612D45B07FB
:103B200010D533280ED1E07A02280BD10420107072
:103B300000205070C9B202200AF0F6FA2079FB2169
:103B40000840207170BD00002C07002038B50246E7
:103B5000174801240068AE30022A1FD0052A03D07E
:103B6000072A07D00B2A20D1084609794088FFF799
:103B700039FE1AE000790024020600D501248207EC
:103B800003D1C20601D480060FD5084600216A463B
:103B90001170694609F024FA044606E08178490765
:103BA00003D50179FB2211400171204638BD000088
:103BB0002C07002010B509480468AE34E07880076F
:103BC0000BD5002003F06CFA02200AF025FAE07809
:103BD00001210843FD210840E07010BD2C070020A2
:103BE0000FB410B5079C01282DD16846808917496C
:103BF000884210D103A80FC800F0F2F900281DD1A7
:103C000007F022FBFA281ED001281CD92078F321C6
:103C10000840207017E00D49491C884208D0C91E91
:103C2000884205D0491C884202D0C91C88420AD16A
:103C300003AC0FCC00F0D4F9002800D0632010BCF6
:103C400008BC04B018470020F9E70000022A000071
:103C5000FFB5074673480D4604688FB0AE34A178AF
:103C60001E46C80602D5E078C0067DD4880607D572
:103C7000E0788006800F03D0022F01D0002E73D091
:103C80008806800F06D0022F08D0032F06D0002E02
:103C90006AD003E0012F01D0002FF8D1880603D4A9
:103CA000002D01D0012D5FD1002E06D13020014022
:103CB000384602F035FF002856D1119900200870CF
:103CC000A17889068A0F7DD00CA908A803F072FCA0
:103CD00007900DA90AA803F08DFC0690079800280C
:103CE00002D00698002801D1012E58D1022F04A835
:103CF00007D002F0FFF8002E3CD00798002803D030
:103D000012E008F007FAF6E7464F47483B680622FC
:103D100008A9181804F0F9FC0028386808D04030C9
:103D2000417E4908490041760698002805D014E0F4
:103D30004030417E01221143F5E73A4F3A483B6853
:103D400006220AA9181804F0E0FC002838680CD0F4
:103D50004030417EFD22114041760798002809D06D
:103D60000698002806D01AE043E04030417E022247
:103D70001143F1E72B48062203682B4804A91818C1
:103D800004F0C7FC052069460873002E02D10846DE
:103D900008F06EFD25480290684608F01DFDA078E9
:103DA000800611D51198032101702079C10603D531
:103DB000002D01D0022D1CD1800605D5012D03D088
:103DC000032D00E018E014D1A078C00627D5119982
:103DD000012008702079C10601D5002D09D1810686
:103DE00001D5012D05D1000619D5002D17D0012DC3
:103DF00015D0422013B0F0BD012F01D1002E03D009
:103E0000890F314309D00AE00648062203680648B4
:103E1000611D181804F07DFC012011990870002024
:103E2000E8E700002C070020EF060000A0BB0D0013
:103E30003EB50CF0FDFB04460CF086FC082C01D1CD
:103E4000082813D00A480B49006806224118684622
:103E500004F05FFC68464079400601D5022000E08E
:103E60000320012302AA0021FFF7F2FE3EBD00005D
:103E70002C070020EF0600001FB50E480468AE3482
:103E8000E078010612D5A178C9070CD0800708D5C3
:103E9000042069460873684608F0EAFC02200AF02C
:103EA000BBF80020E0704006400EE07000F04CF8D7
:103EB0001FBD00002C0700200949B2220968142305
:103EC000525CBA311A4208D0498800050905090D2B
:103ED000000D814201D10120704700207047000091
:103EE0002C07002010B503F0BDF810BD02780907BB
:103EF000090F0A4302700020704710B5FFF7F6FF64
:103F000010BD000030B50E4885B005682C46AE35B2
:103F10002879BA34400711D5E87A01280ED1152145
:103F20004902684641800121017060886B46054A5C
:103F300000F03CFF002801D10220E87205B030BD3E
:103F40002C070020FFFF000010B5FFF7DBFF10BDBE
:103F50007CB50446E1200D46800003F055FC0BA122
:103F600003C90090019168460DF086F9012003F025
:103F70009DFD002801D047207CBD207820210843EA
:103F800020700920287000207CBD00001F02000066
:103F90000000000010B5FFF7DBFF10BD10B50446B0
:103FA000022000F05DF80D4800210268092000029F
:103FB0001018A032436B107B05E04A019A5A002A80
:103FC00004D0491CC9B28842F7D810BD48011C5220
:103FD000C018026904210A43026110BD2C070020A9
:103FE0001FB582B0002401F0C9FF694601F06AFFE5
:103FF000009A6846116A0089203209E023235B5C3D
:10400000012B04D10B89834201D1641CE4B20968FD
:104010009142F3D1204606B010BD000010B5044611
:104020000146042002F00EFC002808D0044805498F
:104030000068401821463C300AF062FC432010BD65
:104040002C0700202C07000004490A683B21490185
:1040500051180A7D02430A75704700002C070020A2
:1040600004490A683B21490151180A7D02430A7537
:10407000704700002C07002000B51138C0B2FFF7D0
:1040800083FB002804D0012201695205114301611C
:1040900000BD7047F0B5027901239B070168002A33
:1040A00002D0062A03D006E05C688C4302E05C681C
:1040B00000220C435C6000210F240568CD40ED0711
:1040C000ED0F37D0082909D2DE6A8D002746AF40B0
:1040D000BE431746AF403E43DE622BE00D46083D2F
:1040E000082D0AD28D002646203D1F6BAE40B743F7
:1040F0001646AE4037431F631CE00D46103D082DA9
:104100000AD28D002646403D5F6BAE40B74316464F
:10411000AE4037435F630DE017290BD9114E8D0078
:104120002746603D368BAF40BE431746AF400D4D2E
:104130003E432E83491CC9B21A29BED341790129B5
:10414000D968026809D09143D960817901299968B9
:10415000006804D081439960F0BD1143F4E7014346
:10416000F9E700002000004003480068AE30807886
:104170008006800F704700002C070020F3B597B031
:104180000D8848880590081D1DC80DAE1DC68C8A77
:10419000CE8A087E1390C86920310190087800907B
:1041A0004878049088780390C87802900F7900F0DE
:1041B000C1FE002817D10120400284425FD8B442DA
:1041C0005DD8002F01D1B44259D114A9284601F07D
:1041D00079FE002806D115AA1499059801F062FE0F
:1041E000002802D0602019B0F0BD149D11A9284606
:1041F000183003F05BFF10A88088002810D02846F4
:1042000012A9203003F052FF10A8838800892A8D5C
:104210001818696A10188A8B904203D16120E2E76E
:104220004820E0E715982C4B02899A4227D1232297
:10423000125C012A23D100680068169013980128A7
:104240001FD16846808E29221202801A030008F0CE
:104250002DFF0604180404070A18022C0FD110E0E1
:10426000072C0CD10DE0042C09D3E00707D1012F56
:1042700007D1A64203D3042E01D3F00701D0422078
:10428000B1E702980B90039B049A0A930992009855
:10429000019A0C9708900696059407920DA81DC8E0
:1042A000019002A81CC013980B4600902A4616994C
:1042B000179800F0B1F9002895D168460649808E1C
:1042C000FF31884205D01798018800200A4602F085
:1042D00099F8002087E7000003280000F3B5A5B097
:1042E00008881A9088780C4611901022091D13A88E
:1042F000FBF758FFA08A1090A17D68460172E07D0F
:104300000F90207E2090677EA07E1F9000200646A2
:104310000146129020A801810F20BB4C2390BB497D
:1043200020684018199000F005FE00280BD10121EB
:104330001098490288425FD821A91A9801F0C2FD5D
:10434000002802D0602027B0F0BD2198179001F01E
:1043500015FE1A9988420CD102A801901698009077
:1043600013AD0ECD1198FFF73BFC002801D0632060
:10437000E9E76846017A8806800F05D0012012908F
:104380002068A030007B4600C80703D01298401C6C
:10439000B61C1290080603D51298401CB61C129049
:1043A00017980DA918301D9003F080FE6846129CE6
:1043B000808EA41CA04237D317980EA920300190FC
:1043C00003F074FE6846018F00290DD01798179AE4
:1043D0006B46406A9B8E128D5918808B5118081AB3
:1043E000A04201D26120AEE7179884691198256830
:1043F000012803D0022803D04220A4E7052000E0D2
:104400001320E0832A4639460F98FDF746FF4228DD
:1044100099D0199FE28B4037788B398B411A1098CD
:1044200010188019814201DA48208CE70EA9019802
:1044300003F03CFE6846008F0028179802D0406ABF
:10444000808B00E0008D2599401C08802598012173
:104450000088A083259802220088401CA8836C480D
:104460002081204620301790C17000218170817119
:104470001998398B406D40186946A061097A01701E
:10448000A06929461C31401C04F043F91198012809
:10449000A0697DD0102213A9C01C04F03AF9284667
:1044A000102213A9083004F034F9388B1330388304
:1044B0002E4620361198F0701098E8831F98B0703F
:1044C00010982084109828841998398B406D4018D2
:1044D000A8610021109A04F020F9398B109808186F
:1044E000388317990120087117990020487130719D
:1044F0006846007A810701D5012131710107022741
:10450000002902DA317939433171410703D5317914
:10451000042211433171400603D530790821084344
:1045200030710F9870712098B07121461D9803F07A
:10453000E6FD2146019803F0C3FD29461D9803F0CE
:10454000DEFD2946019803F0BBFD1298002841D0FA
:1045500068461A998181A18BC1810784478401240F
:1045600008A8047122A80A9008A8847323994173AB
:104570000F993820014008A801730721C173002555
:1045800005746846007AC00708D02248694600E0F2
:104590002BE0088203A924A8FFF7F0FD6846007A03
:1045A0008006800F07D01B486946401E088203A979
:1045B00024A8FFF7E3FD6846007A00060AD5292102
:1045C00009026846018208A84473057303A924A858
:1045D000FFF7D4FD259801881298401C081882B274
:1045E000002001F00FFF0020ADE6022213A9C01C3D
:1045F00004F08FF82846022213A9083004F089F845
:10460000388B401D53E700002C0700202C070000CA
:104610000328000003290000FFB55248524A0068F1
:1046200087B08218069210AA109B0126169F9288C6
:10463000012B04D14D4B9A4201D1A030067B069D3F
:1046400034464035688B2B8B7C43C31A0998203045
:104650000390A34222DA48200BB0F0BD2320405C37
:10466000012819D108896C46208098420CD03F4C13
:10467000641EA04208D0641CA04205D0641CA04265
:1046800002D0A41CA04207D1384CFF3CA04201D06C
:10469000904201D16220DFE7096801E029231B0273
:1046A00003988142DAD109981B99846918982246A7
:1046B000FDF7F3FD4228CFD01C98012804D11598AE
:1046C000874201D24220C7E71598E0832046203078
:1046D0001C990590817027840A98808B401CA083C8
:1046E0001098012814D02046102211A9083004F097
:1046F00010F805991098C8700698298B406D4018DD
:10470000A061298B384670430818288300250FE0E4
:1047100011A80FC808340FC4183CEAE72846A1695D
:1047200078430818159A179903F0F3FF6D1CEDB242
:10473000B542F3D3059918984871059919980871ED
:1047400005991A98887109982146183003F0D7FC0A
:104750002146039803F0B4FC0798A18B0180002048
:104760007AE700002C0700202C0700000229000037
:10477000FFB58FB014460E78102205A8891CFBF7F0
:1047800011FD4F484F490068451800F0D3FB002841
:104790001ED1002C57D0012E09D16846808A4A4983
:1047A000884204D12846A968083081424BD1284666
:1047B000103029690390814209D00AA9284603F0E4
:1047C00075FC6846018D601E0D90814202D2482022
:1047D00013B0F0BD284608300CA9049003F066FC25
:1047E0006846008E002814D0EF680AA938461830B1
:1047F00003F05CFC384620300CA903F057FC6846F7
:10480000398D008D09186846008E401C081887B243
:1048100000E0012701200004C01BA04201D261205A
:10482000D6E72C69286801901298012802D0022846
:1048300003D008E00520C00200E024486085012E76
:1048400003D0022E05D04220C2E7204608300222C3
:1048500002E020460830102205A903F05AFF204646
:1048600031462030064601730F9821460780278580
:10487000039803F044FC2146049803F021FC2746EA
:104880001837E7616662A76126620D9884B20BE073
:104890002846019903F033FC3846019903F010FCD7
:1048A0002868641EA4B20190002CF1D10F980188F1
:1048B0000D98081882B2002001F0A4FD002087E7BF
:1048C0002C0700202C070000011800000128000020
:1048D000FEB58C68CD88267B012E01D00020FEBD60
:1048E0004126052D01D01E7019E0247C0A2C00D031
:1048F0001E70002A0DD08968052268460C3103F02D
:1049000008FF6D1E00AAA9B232200132FFF700F99C
:1049100005E000880A460146022009F02FFD4120EB
:10492000FEBD70B50546FEF71DFE040019D0208AB5
:10493000C00416D520222946002004F011F90500F4
:104940000DD001462046FDF79BF82846FFF766FB91
:1049500001212069090388432061002070BD642083
:1049600070BD462070BD10B5102100F0B5FD10BD22
:10497000FFB589B0074646261D781022991C05A868
:10498000FBF710FC012D04D0022D02D042200DB007
:10499000F0BD3846FDF784FE040037D020223946AA
:1049A000002004F0DDF807002FD019486946088080
:1049B00001200490394620460B9B0A9AFDF731F9F5
:1049C000060004D00021384604F026F91EE00B98BA
:1049D000A081A068012D0FD0102205A903F099FE37
:1049E0002571012120694903084320610948A0611C
:1049F0003846FFF713FB09E01022074903F089FE50
:104A0000A068022205A90C30E8E764263046BEE71C
:104A100003280000674904102C7A051070B506467B
:104A20004625FDF73DFE04001CD0208A800519D4E0
:104A300020223146002004F093F8060011D00146F0
:104A400000252046FCF744FEA12120698901084386
:104A500020610548A0610320A0733046FFF7DEFA0D
:104A600000E06425284670BD6D4A0410FEB504467A
:104A70002D482E490068E2694618906800250146D5
:104A8000007BD3880831012834D0032B01D0412585
:104A900037E002226846491D03F03BFE2169880584
:104AA0000BD440366846B28B0088824200D2104652
:104AB00060800120400201432161022001901A48D8
:104AC0003721006849014118097B2788668801233E
:104AD000490716D5D902083040182422406902211E
:104AE00009F0B6F901000CD08F80CE80019809F052
:104AF0009BF906E04125052B03D12188022009F00E
:104B00003DFC0121E06904F087F80020E06101200C
:104B1000216940038143216121882A46022009F04E
:104B200045FD0020FEBD00002C0700202C070000E2
:104B3000024608480849006841188868083103E0BF
:104B4000038D934202D200688842F9D1884200D195
:104B5000002070472C0700202C070000034610B5EA
:104B60000E480F49006841188868083103E0148D29
:104B70009C4203D8104602688A42F8D18A420CD17E
:104B8000018D994209D20146026A20318A4203D03E
:104B9000416A898B994200D2002010BD2C07002069
:104BA0002C070000024610B50B48120501680920C9
:104BB00000020818436B0020120DA031097B07E0AA
:104BC00044011C5B2405240D944203D0401CC0B258
:104BD0008142F5D810BD00002C070020F7B505462E
:104BE0001746019809F05CFE2E050446360D0CE0D0
:104BF000A0882568B04207D12146019809F09DFEA2
:104C00003946204604F008F82C46002CF0D1FEBDB1
:104C1000F0B58BB000206349029063480A6814180D
:104C200072B610464030C57902231D43C57162B685
:104C300025464035287AC0077DD00920000210188B
:104C40000026476B49E071017A5A002A43D0C919FE
:104C5000069109694A021ED48A0226D502210491CE
:104C60000699012309880905090D03913721490196
:104C70004118097B89070ED5D90208304018232234
:104C80004069022109F0E4F8010004D0039A8A8007
:104C9000049809F0C9F8069800880090069800F07A
:104CA000CBF8009807F034F815E0480713D50698BC
:104CB00000880005000D06F0BDFF002805D106980C
:104CC00000880005000DFDF7F5FA06990420096932
:104CD000814306980161761CF6B23248AC21006827
:104CE000095CB142AFD805F0A7FA20462430064649
:104CF00009F01CFE012802D0012005F0A1F9204690
:104D0000183009F013FE012802D0002005F098F9B0
:104D10003C34204609F00AFE01280FD002A92046A3
:104D200009F02DFE0420029901F08CFD0028F0D03E
:104D30002046029900E032E009F0CFFD287A000613
:104D40002DD5304609F0F2FD012828D1002003F0CE
:104D5000DBFEA98B23314909491CC9B2FBF70CFAC8
:104D600000281CD00F4D044628680123D9020830C2
:104D70004018422638224069314609F069F801009E
:104D80000DD000228A80CC80304609F04DF83B21BE
:104D90002A68490151180A7D802082430A750BB0A8
:104DA000F0BD00002C0700202C070000FFB589B0E3
:104DB000074646251E781022991C05A8FBF7F2F934
:104DC000012E04D0022E02D042200DB0F0BD384694
:104DD000FDF766FC040024D020223946002003F0B1
:104DE000BFFE07001CD005AD04960FCD6D460FC564
:104DF000394620460B9B0A9AFCF713FF050004D0A6
:104E00000021384603F008FF0BE001212069490327
:104E1000084320610448A0613846FFF7FFF800E02E
:104E200064252846D1E700002D4E041010B550210E
:104E300000F0E6FC10BD0000F0B504463B483C49DC
:104E4000006885B04518218A890419D5022104918A
:104E5000372149014118897B412627880123C90749
:104E60000ED0D9020830401831224069022108F0E2
:104E7000EFFF010004D08F808E71049808F0D4FFFA
:104E80002946208801221831FFF7A8FE29462088EC
:104E900001223031FFF7A2FE294620880122243169
:104EA000FFF79CFE2946208800223C31FFF796FE42
:104EB00020880005000DFFF775FE85002946113199
:104EC0006846017307F0D4FC294612316846017325
:104ED00007F0CEFC294613316846017307F0C8FC81
:104EE00068461435057307F0C3FC208800F03CFACF
:104EF000208801050D48090D026825208001101841
:104F0000028B914201D100210183E069002802D087
:104F1000012103F081FE202200212046A56803F034
:104F2000FCFB1720A560608005B0F0BD2C070020B9
:104F30002C07000010B50B480B490068441840349A
:104F4000207AC00709D0002003F0DEFD217A89070E
:104F500001D5002803D0002010BD472010BD6420DB
:104F600010BD00002C0700202C070000F0B55FA04A
:104F700099B000685E4915905E4A08688418092255
:104F800012028218526B2546403514922A7AD207B3
:104F900002D0622019B0F0BDAA8B01235B029A42B5
:104FA00001D9AB8303E0172A01D21722AA83149AEE
:104FB000A0301392067B0DE0761EF6B213987101B5
:104FC0000F18B8680F9038462022002103F0A5FB87
:104FD0000F98B860002EEFD120460830E060646082
:104FE000A06024600830139060612061FF220021DE
:104FF000083009F06AFC2046FF220021243009F025
:1050000064FC2046AA7F0021303009F05EFC204677
:10501000FF2200213C3009F058FC00222A72104681
:105020001721334B05E0149E4701BE19401C7180C7
:10503000C0B21E68A036367B8642F4D80020288392
:105040002F8C688C0026149008E02820E16C7043B7
:105050000918204603F034F8761CB6B2BE42F4D3E9
:10506000002608E03020216D70430918139803F0E2
:1050700027F8761CB6B214988642F3D30120FEF7C7
:10508000EFFF0124684604701B4941802346042237
:1050900069460CA8FFF76CFB002822D16846018EF8
:1050A000818216490183042606858475202108A87B
:1050B00081720024C472047307214173847305A9AB
:1050C0000DA8FFF70BF900280BD168460487468727
:1050D000818E15AB0EAA008E00F056FC002800D180
:1050E00058E700202872472054E700000000FFFF27
:1050F0002C0700202C07000001180000052A0000E2
:10510000F8B5044683480E4600688349471848208E
:10511000C05DC0076FD0B088FEF724FA0546012CA9
:1051200002D0002C68D0F3E0002D04D0286941079C
:1051300003D54520F8BD0121C7E0B268F188147B92
:105140000029F0D062060AD568888842F3D3D22CB1
:1051500001D0522CEFD138463146183048E0A10634
:10516000890E1E2949D81E2C20D101071ED50821E1
:10517000884328612988012007F056F9012130462B
:1051800003F04AFD634801230068D9020830401843
:1051900042242D8839224069214608F059FE010039
:1051A00003D08D80204608F03FFEB1E0E1070BD030
:1051B0001D2C1AD01B2C18D0410533D40121890293
:1051C0000843EE612861A3E0C00606D52B46022203
:1051D0000321422009F0DCFAADE72988002007F01E
:1051E00011F92969102001432961384631462430DC
:1051F00009F086FB8CE015E016E0298820220020CB
:1052000003F0AEFC05000DD00121304603F004FD93
:105210002B46002221460620FCF746FA2846FEF7D8
:10522000FDFE75E04120F8BDB068047B1D2C3CD02C
:105230001B2C43D00021304603F0EEFC002D67D03C
:10524000032C46D0052C44D0072C42D0092C40D04A
:105250000B2C3ED00D2C3CD00F2C3AD0112C38D03A
:10526000132C36D0172C34D0192C32D0012C30D03E
:10527000022C35D0042C33D0062C31D0082C2FD062
:105280000A2C2DD00C2C2BD00E2C29D0102C27D052
:10529000122C25D0162C23D0182C21D0522C1FD004
:1052A000D22C1DD01E2C2FD032E0002D03D0298807
:1052B000012007F0A7F83146022001E03146012025
:1052C00007F02EF8002823D00021304603F0A4FC7C
:1052D0001EE029691020814329612988002015E0FA
:1052E0002869402188432861010511D5FF2101313A
:1052F000084328612988022007F084F801202969E1
:10530000C0028143296103E02988032007F08CF85B
:105310000020F8BD2C0700202C07000010B5104A13
:10532000104B1268D2184032127AD20706D00228E7
:105330000AD0052804D00B2810D101E0412010BD6F
:105340004888FEF72BFE09E04888FEF70BF9002895
:1053500004D001220169920511430161002010BDB2
:105360002C0700202C070000F1B5FFB085B04720C6
:105370000190002069460880534854490068471846
:105380008498FEF7EFF80290002874D0B9680837C7
:105390004FE0684600880D4604AC20186B46022298
:1053A000283112F025F868460088294620186B46F7
:1053B00001222C3112F01CF82E462036307B694633
:1053C0000128098804A809D040186B4610222946F4
:1053D000083112F00DF801902C6A27E040186B4656
:1053E0000222F4E76946098804A8401821466B4662
:1053F00002221C3111F0FCFF6946098804A84018FC
:1054000021466B460122233111F0F2FF2320005D7B
:1054100069460128098804A830D0401821466B4607
:105420001022083111F0E4FF01902468B442D9D170
:105430002968B942ADD1019800281CD1684600887E
:1054400081070AD0224A011D11406A4611800A1ABA
:1054500004A908180B2103F060F90298008806F0EF
:10546000E9FB002807D1849869460005000D04AACD
:10547000098805F00BFF7FB006B0F0BD401821464B
:105480006B460222083111F0B3FF019020891149C7
:105490008842CAD120460299FDF744FF4000A16925
:1054A00003906A460918128804A880186B460222E5
:1054B00011F09EFF0190A1690398022208180021B3
:1054C00003F02BF9B1E700002C0700202C070000A7
:1054D000FCFF000002290000F0B593B00E46044620
:1054E0000020694608760190E0690790002827D0DF
:1054F000C788002F7DD0B006800F03D02088FEF72C
:10550000DBFC019006AB2046019A0799FFF7E0F912
:10551000412861D0B81E80B2009007988068457B12
:10552000002D56D0F006F107039000290FD0022F6E
:105530000DD329460098FAF71FFE002903D006E094
:10554000412013B0F0BD062D17D0142D15D0B00793
:1055500008D5052F06D30321B8078907C84201D112
:10556000022048E070070ED5022F0CD32946009880
:10557000FAF702FE002902D005E001203BE0082DE9
:105580000DD0062D0BD00398800F0ED0022F0CD318
:1055900029460098FAF7F0FD002902D005E0042022
:1055A00029E0072D08D0152D06D0B00611D5012D04
:1055B00004D0022D04D00CE008201CE0042500E0FB
:1055C0001225022F05D929460098FAF7D5FD0029A2
:1055D00010D041206946087601212069490388439B
:1055E0002061019800287DD006AA01213120FEF714
:1055F0008FFAF6E01020810706D57D49B8034018E0
:10560000070CB800C01C0EE0C0060098294604D55F
:10561000401CFAF7B1FD87B202E0FAF7ADFD07468C
:10562000781E6843801D81B205AB0222079803F003
:105630004FFAF0064ED56946A089898A884202D978
:10564000206941065BD4002041E0072D0AD0684361
:105650000B3082B21023A168079803F0D7FA002814
:1056600015D031E01022634908A803F052F80298DF
:105670000BABC100081A0B3081B20222079803F06D
:1056800027FA102208A8A16803F03FF8E7E701987D
:1056900000280ED002980CAB6843801D81B22A46C8
:1056A000079803F015FA0CAA29463320FEF730FAC2
:1056B0000AE00798009002982B466843801CC2B20B
:1056C0002188022008F016FE0298401C80B2029049
:1056D000B842BAD33820484F064207D06946A0895D
:1056E000898A00E077E0884204D86EE06846808AC4
:1056F000B8426AD02069410606D5F10604D40121DA
:105700008902084320616CE021882022002003F0F8
:1057100027FA050011D00521F2070120C902002A4D
:105720000DD06A4611800490908A3B46401C82B29C
:1057300029462046FCF73AFA37E0452001E7B20750
:1057400013D5207901280ED01020A2680290019272
:1057500000916846808A3B46401C82B2294620461A
:10576000FCF795F921E00220EFE7710701D5234A04
:1057700004E00399890F0DD0204A521C69460A8023
:105780000490888AA389401C82B229462046FCF7EF
:1057900048FA0AE0B0060AD56846808AA389401C08
:1057A00082B229462046FCF7B5F9642808D028467D
:1057B000FEF734FC2288304607990FF005FA10E016
:1057C0000021284603F028FAB7E7228830460799D7
:1057D0000FF0FAF900E76846027E2188022008F0FF
:1057E000E5FE0121E06903F017FA0020E061A8E678
:1057F00000C0FFFF2C7A0510FFFF00000228000008
:10580000F0B58BB00D46044600206946087104903F
:10581000E669002E16D0A806800F03D02088FEF778
:105820004BFB049001AB31462046049AFFF750F839
:10583000412865D0E80708D021883246022008F0C8
:10584000B7FA5DE041200BB0F0BD680705D52188AF
:105850003246022008F070FA52E0A80739D5F088E5
:105860006188814205D921883246022008F0A8F9D2
:1058700046E02069410604D50121890208432061E0
:1058800080E021882022002003F06AF905001ED064
:1058900021883246022008F093F9A068801C0EF09F
:1058A00050F96188401E401886B2A0680EF049F990
:1058B0000246334629462046FCF754F92846FEF7AF
:1058C000ADFBA0683146801C0BF084FD54E0452000
:1058D000B9E7E80614D5F088412702280ED9B16847
:1058E000801E4D7B80B2854201D9012016E0002D3B
:1058F00004D02946FAF740FC00290FD0684607710A
:1059000001202169400381432161049800282DD0A2
:1059100001AA01213120FEF7FBF82DE002900220C0
:10592000002703901EE0049800280DD0039805ABD3
:10593000001D81B22A46304603F0CAF805AA29465E
:105940003320FEF7E5F807E003980096C2B22B4635
:105950002188022008F0CEFC0398401980B27F1CF9
:10596000BFB2039002988742DDD3C9E76846027947
:105970002188022008F01AFE0121E06903F04CF9A9
:105980000020E06100205EE7F0B5074617480E46AC
:1059900000683B2149014018007D85B01D46144632
:1059A000C00706D003A9384600F08CFA00280AD1B7
:1059B00002E0472005B0F0BD04AA3046039900F08C
:1059C00071FA002801D06020F4E7049922886088E9
:1059D0000968002A00D0088C32466E4631C603237F
:1059E0003946002000F004F8E4E700002C0700200E
:1059F000FFB5002099B0239A0B90129005461490A1
:105A0000064615901C46DB480B460068DA49229F83
:105A1000411803910021089109915188069111883C
:105A20000A913B2149014018007DC00706D00FA90B
:105A3000184600F047FA00280AD102E047201DB0BE
:105A4000F0BD10AA0F991B9800F02CFA002801D085
:105A50006020F4E71998002803D0600701D50120E1
:105A600000E000201390A007800F1C901098179062
:105A70002030C078012840D11798C04B0189994245
:105A8000F9D11798069904680A98228C4118914216
:105A900033D82046203016908078012816D0E08B2D
:105AA00004901798806900788006800F7ED0039854
:105AB00040301890007A800778D51C980028F5D0DF
:105AC000AE4F0F99FF372031206814E0BA4214D34B
:105AD000B942DDD80497E4E70389A84A934203D189
