:020000041004E6
:100000000060002091A30410FF830410B95D041068
:10001000AA5555AA45554C420000000000000000BA
:1000200000000000000000000000000087BF041076
:100030000000000000000000FB9B0410A9C4041095
:10004000CF3C0410CD84041000000000000000002C
:10005000D1C8041085BF04102D1904105DCA041006
:100060000000000000000000000000000000000090
:100070000000000055030410BD5D0410BB5D0410BA
:1000800000000000777F0410797F04107B7F04104C
:100090007D7F0410B1A3041029850410E52204100B
:1000A0000000000000000000000000000000000050
:1000B0000000000000000000000000000000000040
:1000C000EFF31482EFF309811C4880F31488BFF327
:1000D0006F8FF0B543464C4655465E466746F8B4CA
:1000E000174CEFF30883236006B4164C2068164CB7
:1000F0002060164C2068164C2060164C2068164C68
:100100002060164C276800202060BFF34F8F30BF5F
:1001100027600B4C246884F3088882B003BCF8BCC9
:100120009846A146AA46B346BC46F0BC04BC80F340
:10013000098881F31488BFF36F8F10470000000017
:100140000800002004ED00E0E802002024ED00E0BB
:10015000EC02002000E200E0F00200200800204055
:100160000448854600F0A8F8004800477939051092
:10017000C046C0460060002030B50B460146002056
:100180002022012409E00D46D5409D4205D31D469D
:100190009540491B2546954040191546521E002D95
:1001A000F1DC30BD10B5441A0346944209D28318DD
:1001B000891803E0491E0C785B1E1C70521EF9D290
:1001C00010BD0C460443A40703D009E010C9121F58
:1001D00010C3042AFAD203E00C781C70491C5B1C83
:1001E000521EF9D210BDD2B201E00270401C491E6D
:1001F000FBD270470022F6E710B513460A460446C4
:100200001946FFF7F0FF204610BD30B50446002028
:10021000034600E05B1C934203D2E05CCD5C401BD4
:10022000F8D030BD0321001D401E037812021A438E
:10023000491EF9D510467047F0B51FB40646002098
:1002400082B005464024019100901BE001992246AE
:100250000F46304600F042F8049A059B801A9941F7
:1002600010D310461946224600F016F8361A8F4170
:100270000197224601200021009F00F00DF8381858
:100280004D4100902046641E0028DFDC019B009851
:100290002946324607B0F0BD10B5202A04DB0146DE
:1002A000203A9140002010BD914020239C1A034623
:1002B000E3401943904010BD064C0125064E05E071
:1002C000E36807CC2B430C3C98471034B442F7D377
:1002D000FFF74AFFFC7205109C73051010B5202A29
:1002E00004DB0846203AD040002110BD0B46D34025
:1002F000D0402024A21A91400843194610BD70B581
:100300008C180578401C6B075B0F01D10378401CEB
:100310002A1106D10278401C03E006780E70401CBA
:10032000491C5B1EF9D12B0705D40023521E0DD4A6
:100330000B70491CFAE70378401CCB1A921C03E0AF
:100340001D780D70491C5B1C521EF9D5A142D8D3F3
:10035000002070BD7047F0B50F46B5B015460021BE
:1003600030AA0F23445C5E1A491C94551029F9DB0E
:100370001022694630A800F013FB0026B400E019F3
:10038000401CFFF74FFF395D000208430321891B22
:1003900089002CAC761C6050042EEFDB2146102324
:1003A0006A46084600F0C6F900200326311A890083
:1003B000635C8200AB54635A52191B0A5370635832
:1003C000401C1B0C93706158090ED1700428EDDBA2
:1003D00035B0F0BD70B5BAB0054600200C460090AF
:1003E00020206946087210200A9038901E46039219
:1003F00001A800F085F92246294601A800F008F876
:100400006A46314601A800F045F93AB070BD0000D7
:10041000F7B592B00F46040004D0002F06D114980F
:10042000002803DD6120400115B0F0BD14980028BC
:1004300004DB102804DA2079800601D49448F3E71D
:100440002079410701D4810702D59148401CEBE790
:100450004021084320712046143000250F901430AD
:1004600001901EE00026B00004904019C0190390CE
:10047000FFF7D8FE00BA010A03980902C07807AA5C
:1004800001430498761C0019406941400498042EE9
:100490001150E8DB636A07A8019A0F9900F07CFA13
:1004A000059D28461030059014998842DADB2079A2
:1004B000800620D400291EDD0026B00004904019DB
:1004C000C0190390FFF7AEFE00BA010A03980902B3
:1004D000C07807AA01430498761C0019406941407E
:1004E0000498042E1150E8DB636A07A8019A0F995B
:1004F00000F052FACAE000200B900C900D900E9084
:100500000BA9636A0846019A00F046FA0B98872106
:10051000C00F48430B990C9A4900D20F11430B911D
:100520000C990D9A4900D20F11430C910D990E9A16
:100530004900D20F11430D910E99149A4900414080
:10054000284610300E9190421CD10026B000029037
:100550004019C0190490FFF765FE00BA010A04981B
:100560000902C0780BAB01430298761C001942695E
:100570000298185842405140029807AA1150042E80
:10058000E4DB79E00B988722C00F50430B9A0C9B59
:100590005200DB0F1A430B920C9A0D9B5200DB0F9B
:1005A0001A430C920D9ACB0F52001A430D924A0037
:1005B000424014980E92401B0390C017820F03987C
:1005C000002610188010029019E0B0001090401919
:1005D000C0190490FFF726FE00BA010A0498090228
:1005E000C0780BAB01431098001942691098185855
:1005F00042405140109807AA11500298761CB04210
:10060000E3DCB00001190BAA49691258514007AA4E
:100610001150039B00211B1A42199C4696460BE081
:1006200072465218BA5CCD0018235B1B9A4007AB88
:100630001D586A401A50491C8C45F1DC002909D02C
:10064000CD00182107AA4D1B13588021A9404B400B
:10065000135005E007A90A580123DB075A400A5046
:1006600007A90BAA05E0B00003195B6915586B4098
:100670000B50761C042EF6DB636A07A8019A0F99CB
:1006800000F08AF920790421084320710020CBE68C
:100690001D0C0000F8B516460F46040009D0002EC8
:1006A00007D025468035E86D401E102804D3134836
:1006B000F8BD61204001F8BD2079400604D4002235
:1006C00011462046FFF7A4FE20790221084320713D
:1006D000002018210CE0C217920F12189208920005
:1006E000121983075269DB0ECB1ADA403A54401CC8
:1006F000EA6D8242EFDC00203260F8BD1F0C000082
:1007000010B5040007D002230022A16800F00CFA03
:10071000010003D00CE06120400110BD10202061D9
:100720000020024683001B19401C5A610428F9DB93
:10073000084610BDFFB5D908490083B0891D029154
:100740000368116854684B4041689568614084684B
:10075000C0686C40A446D4681E0E60408B4CC5B285
:10076000A65D655D3606354367460E023F04360ECC
:100770003F0EA65DE75D36043F023E433543AE467D
:100780000F0EDDB2E75D665D3F063E4365462F0214
:1007900005043F0E2D0EE75D655D3F042D022F43DE
:1007A0003E43CDB20096665D65462F0EE75D1D04A3
:1007B0003F063E4307023F0E2D0EE75D655D3F0499
:1007C0002D022F433E4301966546EDB2070E665D4E
:1007D000E75D0D043F063E431F023F0EE75D2D0E11
:1007E000645D3F0424022743029C3E43641E103292
:1007F0000294002C63DD664C704620404300704636
:100800006449C00908401B21484343407046584092
:100810001821C841434070461021C84143407046EA
:100820000821C841434010685A4D43400098594F31
:10083000204041000098C00928401B2568434140E2
:10084000009818254840E841414000981025E841AB
:10085000414000980825E84141405068019D4140D1
:100860000198ED0920403D4040001B277D43684032
:10087000019F05467D401827FD416840019D1027D6
:10088000FD416840019D0827FD416840956868402A
:100890008446304620403F4DF4092C4040001B2543
:1008A0006C436040044674401825EC4160401024BD
:1008B0003546E54108246840E64170404BE7334C3B
:1008C000C5B2665D1D0E645D240626430C02250E2E
:1008D0002E4C645D65462D042F0E2C4D2404ED5DD9
:1008E0002D022C432643294C0096DDB2655D0E0E89
:1008F000A45D2406254364462402260E234CA45DF1
:100900000604370E214E2404F65D36023443254397
:10091000AE461E4CCDB2645D65461C4E2F0EF55D95
:100920002D062C4305022F0EF55D1F042E043D0EEF
:10093000164F7F5D65463F023E433443EEB2134D92
:10094000AF5D050E1148405D000607431802030E17
:100950000E48C05C09040B0E0C490004C95C936886
:100960000902084307431068009E63405168049CD5
:100970007040D268206075460498694041600498D0
:100980007A4083600498C26007B0F0BD8C71051096
:100990007F7F7F7F0101010100B5FFF7CBFE00BD26
:1009A000F7B50298860800240DE00098A7003D18CE
:1009B0002846FFF737FC00BA000AE978000208432E
:1009C0000199641CC851B442EFDB0199029A0846B0
:1009D00000F002F8FEBD0000F0B59208002303E02D
:1009E0009C0005590D515B1C9342F9DB4D4FF81FDC
:1009F000F938042A48D0062A6DD0082A43D10023AA
:100A0000CA6915022D0E140E455D045D2D062C439A
:100A100015042D0ED2B2455D825C2D0412021543E1
:100A20002C439D007D590A686A40544001225B1C9A
:100A30000C62940065180C59EE69521C66402E62D7
:100A4000042AF6DBCA6A150ED4B2455D045D2D0694
:100A50002C4315022D0E1204455D120E825C2D04EE
:100A6000120215430A692C43544005220C6394007A
:100A700065180C59EE69521C66402E62082AF6DB96
:100A80002031072BBCDDF0BD0022CB681D022D0EEE
:100A90001C0E455D045D2D062C431D042D0EDBB29E
:100AA000455DC35C2D041B021D432C4395007D59FD
:100AB0000B686B405C400123521C0C619C00651864
:100AC0000C59EE685B1C66402E61042BF6DB10317E
:100AD000092ADADDF0BD0022CB681D022D0E1C0EA6
:100AE000455D045D2D062C431D042D0EDBB2455DD6
:100AF000C35C2D041B021D432C4395007D590B68DC
:100B00006B405C400123521C0C619C0065180C5921
:100B1000EE685B1C66402E61042BF6DB1831092A57
:100B2000DADDF0BD8C720510F8B59E468C460028C3
:100B300007D0002905D059078C0F002A04D1012CB9
:100B400002D061204001F8BD416A102903D0182964
:100B500001D0202905D1012C05D00169491E102999
:100B600001D31E48F8BDC2600179F9231940017113
:100B7000012C20D000210B468D002D18491C6B61E3
:100B80000429F9DB0021182712E0CB179B0F5B1813
:100B90009B089B001D182B46143300938B07565C53
:100BA000DB0EFB1A6D699E403543009B491C1D609E
:100BB00003698B42E9DC0179C9070CD16146816088
:100BC0007146C90701D0032C05D10146426A28317C
:100BD0006046FFF7E5FE0020F8BD00001F0C000096
:100BE00030B53D4C85B02069C00501D501F0BCF998
:100BF0000BF09AFA207800286CD12069374D8005D7
:100C00001BD52069C00418D42069000537D434A04E
:100C10000FC8049301AB07C3102201A9344807F0A1
:100C20005AFC3348009002232A46012160880DF0C7
:100C3000E7F920690121C9021FE0206980051ED55E
:100C4000206940041BD42069800418D429A00FC84F
:100C5000049301AB07C32648102201A9103007F006
:100C60003AFC23480223103000902A460121608874
:100C70000DF0C6F92069012149030843206120696C
:100C8000800527D52069C00424D52069400421D5DA
:100C9000206940051ED41BA0006802901A48016814
:100CA0000A20414368460BF05DFD04E068460BF006
:100CB00099FC002809D1608902AB801C81B2022214
:100CC00060880DF0E2FB4628F0D0206901218902FE
:100CD0000843206105B030BDF4020020FFFF000092
:100CE000669A0C200008969EE2119EB1E1F273D93B
:100CF000AC030020669A0C200008969EE2119EB17B
:100D0000E2F273D901000000206F05107FB505469F
:100D10009868012202739A681C46517398680222EF
:100D200002A90E3007F0D7FBA16805200D74E08002
:100D30007FBD70B5064608881D460C46001D81B271
:100D400013460222304607F09DFE21882B46891C5F
:100D50002180091D89B20222304607F093FE2088C7
:100D6000801C208070BDFEB500240E462746056815
:100D700045E028680290A968022230460D3107F04C
:100D8000AAFB3088B84209D087B2384603F058FC35
:100D9000014601AA384604F0F7FD019CA968022229
:100DA00068460F3107F097FBE888401F81B2222088
:100DB000005D002806D001280BD0002811D00128A2
:100DC00014D01BE0E08B6A461288401E904206D386
:100DD00007E0208C6A461288401E904206D2072007
:100DE000FEBD684600880818E18B03E0684600886D
:100DF0000818218C884201D90D20FEBD029D002DCE
:100E0000B7D100203080FEBDFFB5C8880025401E48
:100E100083B00E4687B2012427E0B0680222083072
:100E200001196846091D07F056FB6846008803F063
:100E300007FC01001DD068460A8D0088824212D04E
:100E400001AA04F0A1FD00280DD101992620405CE3
:100E5000400708D506986A00101802221C3107F0D6
:100E60003AFB6D1CADB2A41CA4B2BC42D5D30C9805
:100E7000058007B0F0BDFFB5074683B000200090A5
:100E80000D9803F0DDFB069905460C310191002811
:100E900026D00837BD4223D0288D0E9988421FD80E
:100EA0000D99884213D30E99884210D82946022200
:100EB0002A31019807F00FFB10220C99069807F0D1
:100EC00006FB002809D0298D0E98814208D02E46B5
:100ED0002C6A2036B4423FD140E0059800210180C1
:100EE00007B0F0BDA18B0D98814234D30E9881429A
:100EF00034D8204620300290C078012808D02046FF
:100F0000083010220C9907F0E2FA002808D022E0FD
:100F1000214602220831019807F0DDFA0698F0E731
:100F200002988079400716D50098002801D1E08BFF
:100F30000090E18B814211D1059802220088410086
:100F40000498081821461C3107F0C5FA0598059940
:100F50000088401C08802468B442C3D12D6899E7FA
:100F600006480021026849204001101801724172B0
:100F700003218172C1720020704700006C030020C1
:100F800070B50D4D044601232868D90240189026FB
:100F90001A46406931460CF0BBFD010003D03046D3
:100FA0004C600CF0A1FD4920296840010918087A1D
:100FB000401C087270BD00006C03002010B5044690
:100FC00000202082A074A168A16161612060204698
:100FD00006F01EFA452801D0412010BDA08803214B
:100FE0000FF048FA044610F0D3F9002813D072B677
:100FF0000A48012201680920000209184878A24025
:101000001043487062B6002013F02EFA002802D078
:1010100000200DF039FF002010BD00006C030020FF
:1010200070B5C17C0E4D4906490EC17404460123BA
:101030002868D902401890260022406931460CF0F9
:1010400067FD010003D030464C600CF04DFD492097
:10105000296840010918487A401C487270BD000098
:101060006C030020F0B52BA00FC893B006AC0FC4E2
:101070002CA00FC80FC42FA00FC80FC4102206A9A0
:10108000304807F028FA304C062301222D4902206F
:1010900000940CF056FF00282FD12A4810220AA9EC
:1010A000103007F018FA10260027A01C0125254A49
:1010B0000096039602970197049505901423103229
:1010C000022120880CF01EFF002816D11D48102296
:1010D0000EA9103007F0FFF9201D05900C20194AC9
:1010E0000295039604950197009014231032022173
:1010F00020880CF007FF002805D014A00BF06EFF2D
:10110000472013B0F0BDA288618819A00BF066FFDC
:101110000020F6E7669A0C200008969EE2119EB128
:10112000E0F273D9669A0C200008969EE2119EB1F7
:10113000E1F273D9669A0C200008969EE2119EB1E6
:10114000E2F273D9CC050020180300204572726FBB
:1011500072207768696C6520616464696E672043FA
:1011600068617420736572766963652E0A000000F9
:1011700043686174205365727669636520616464B5
:1011800065642E0A545820436861722048616E6479
:101190006C6520253034582C2052582043686172E9
:1011A0002048616E646C6520253034580A000000C8
:1011B000F8B516460D46074600240AF0CFFC002875
:1011C00006D032462946384600F056FE044604E072
:1011D00020356879002802D00E242046F8BD2879F1
:1011E000C10701D1012E09D0810701D4022E03D0FD
:1011F0004007F2D4042EF0D10324EEE70224ECE7FA
:10120000FFB581B00646684680890C9F0C460028D1
:1012100037D06946098A884233D87088C01FB842DF
:101220002FD3FD1DAAB20021204608F0F5FC0028AE
:1012300002D0642005B0F0BDA06806210173A0684B
:10124000022203A90D3007F046F9A068022204A982
:101250000F3007F040F9A06802220AA9113007F008
:101260003AF93A460B2120460B9B07F00BFCE58030
:10127000212130698901084330610720B0730020C3
:10128000D8E74220D6E77FB50546684600890C4678
:1012900000281ED06946898988421AD8A06804218E
:1012A0000173A068022202A90D3007F014F9A068AA
:1012B000022203A90F3007F00EF90520E08021215A
:1012C00028698901084328610520A873002004B01B
:1012D00070BD4220FBE77FB50546684600890C4695
:1012E00000281AD0A0680C210173A068022202A96C
:1012F0000D3007F0F0F8A068022203A90F3007F0C4
:10130000EAF80520E0802121286989010843286145
:101310000D20A873002004B070BD4220FBE77FB50C
:101320000546684600890C9E0C46002816D0694682
:101330008989884212D8A06810210173A06802220E
:1013400002A90D3007F0C7F8A068022203A90F30E8
:1013500007F0C1F8012E04D0022E0AD0422004B0BA
:1013600070BDA068022208A9113007F0B4F8072068
:1013700006E008AB10220921204607F083FB152068
:10138000E080212128698901084328611120A87380
:101390000020E4E77FB50546684600890C9E0C46B0
:1013A000002816D069468989884212D8A068082189
:1013B0000173A068022202A90D3007F08CF8A06822
:1013C000022203A90F3007F086F8012E04D0022E66
:1013D0000AD0422004B070BDA068022208A91130D2
:1013E00007F079F8072006E008AB10220921204613
:1013F00007F048FB1520E080212128698901084376
:1014000028610920A8730020E4E7FFB581B08C684B
:101410000A9E5220207388680D461F46022203A9A7
:101420000D3007F058F83B4632460721284607F0B2
:1014300029FBF61CEE80002005B0F0BDFFB581B0A1
:101440000646684680890A9F0D46002827D0708886
:10145000C01EB84223D3FC1CA2B20021284608F0CB
:10146000DBFB002802D0642005B0F0BDA868122183
:101470000173A868022203A90D3007F02CF83A4640
:1014800007212846049B07F0FDFAEC8021213069F2
:101490008901084330611320B0730020E4E7422043
:1014A000E2E7000070B50E460E4915468A88521CC8
:1014B000904209D1002404E0295D0BA00BF08EFDC1
:1014C000641CB442F8DB70BD4988891C8842FAD19B
:1014D00028780128F7D105480168012292021143BA
:1014E000016070BD18030020256300000403002084
:1014F000034900280A7801D0002008701046704780
:101500007003002070B5124C0E4621780125002989
:101510001BD10146012007F0C9F860703146022056
:1015200007F0C4F86178401860703146203103201C
:1015300007F0BCF8617840180006000E607004D116
:1015400007F02CF9022020700025284670BD00000D
:101550007003002070B5184D90B02878002802D094
:10156000012010B070BD6E46002404F01CFCA100E8
:10157000641C7050082CF8DB6946012007F096F8CF
:101580000128F1D020220D496846FEF70BFE0B49D9
:101590002022203108A8FEF705FE6946022007F048
:1015A00085F808A9032007F081F807F0F7F8012073
:1015B00028700020D5E70000700300201C71051082
:1015C0007EB5044616460D46684604F095FA684610
:1015D00003782370407828706846807830707EBD2C
:1015E00070B500210C4A03E0535C491C5918C9B27C
:1015F000535C002BF8D1CE1C02243525202E04D2BA
:10160000545451184D708870CB7004490C704D7053
:101610008870CB7070BD0000780300201C00002093
:1016200070B50BF011F81D4C01252068ED02411931
:101630000979002909D1A0300079C00727D00FF01F
:1016400019FA00F041FE01F02DF900F0FFF82068D2
:10165000014640310A78C9798A4317D13E21095C95
:10166000002913D10E490A8812070FD50922D20684
:101670001269497A836A4019006FC900801A000212
:1016800059180012814201DA0DF052FB70BD02F0D0
:1016900047F903F02FF80AF051F8D2E76C03002065
:1016A000C000002010B5837F01220024920241680F
:1016B000082B03D94224914202D310E0914201D277
:1016C00042240CE001463422064806F004FF00F0F4
:1016D0007FF8002801DA482401E00BF0D9FB20460E
:1016E00010BD0000FC0500203EB5174D15482968C7
:1016F000827F0846A0310A73002460300476447665
:101700008476E122C276802202770222427730205C
:1017100008704C7002AA01A96846FFF751FF68469D
:101720000078A22201016846007A891C0002014368
:10173000684600790003014328681152A030047103
:101740003EBD0000FC0500206C03002070B50AF0CF
:1017500061FF05F061FD07F007F9FFF701FC04F0F8
:10176000ADFC184C18492068184D4018811009200C
:101770002A68000210184167616889088167A168BA
:101780008908C16709F016FF0F202968C001228B64
:1017900008188281628BC281A28BC280628C028116
:1017A00022462032127882723B2252010020891890
:1017B000087501F0F7FE04F09BFA0DF0D1FE01F080
:1017C000F7F870BDFC0500200000FCEF6C03002062
:1017D00070B50025ED430EF08BFD01282FD00023BE
:1017E00018490322888BFF24401E10438A7F5134FE
:1017F00062438218088B282460431218488B3024D7
:10180000604312180846203040782C24604310189A
:101810000D4A181884184869A0420ED11320C0013F
:1018200084420AD90D690EF063FDC1B2284600F06A
:10183000FFFE01F02FF8401B251A284670BDFF233C
:10184000B533CDE7FC05002051190000F8B52C4F49
:101850003C68206E5C34401C002814D000252948C8
:101860000023C07B00283ED00926F6062648002D1E
:101870001CD000210A460B464169521C994204D1F2
:10188000002902D004E00125E9E7204B9A42F2D377
:101890002160006960603069A1680002090E000AD9
:1018A00009060143A16000F033F81DE03169A26828
:1018B0000902090A150E08D0018BC90712D0416927
:1018C000216000696060E37210E0881A00027D23E5
:1018D00000121B03984205DD100E00060843A060AD
:1018E00000F016F8F8BD6360002DFBD003CC12F0B9
:1018F00061FDFA2012F030F839688862F8BD000006
:101900006C0300201C060020000010488813000013
:101910000449002008610448012100686030C17159
:1019200070470000000010486C03002010B508F05C
:1019300023FC10BD70B5234A0021106804464030D6
:101940004176017609231B02E01841700F253620ED
:10195000055508461468E418E46C21541468E4182A
:10196000E56C0446303429551468E418E56C0446E7
:10197000603429551468E418E56C04469034401C22
:10198000C0B229552D28E5D31268D318D86C5862F7
:10199000044630341C629030D8610B4814464834F9
:1019A00001800921417105238371C1710372428154
:1019B00000F00CF8FF2020706070A070E0701F2015
:1019C000207170BD6C030020C000002010B50648D7
:1019D00001680648406A002803D020220EF0ABFBC5
:1019E00010BD0020087010BD6C030020FC05002015
:1019F000F8B5069C1F4615460646002C13D0A06875
:101A000002220D3006F067FDE81E82B23B46072138
:101A1000204607F037F8E580A068012E05D01D218B
:101A200001730020F8BD4720F8BD1B21F8E7000036
:101A300010B586B00AF03EFC042101200CF09FFD99
:101A40000CF0F6FB040002D0014610A014E004A93B
:101A500003A80191009002AB0722002105200CF0A1
:101A600020F9040002D001460FA005E0FFF7FAFAC2
:101A7000040006D0014613A00BF0B0FA204606B0D1
:101A800010BD09F057F90020F9E700004741545410
:101A90005F496E6974206661696C65643A203078CC
:101AA000253032780A0000004741505F496E697462
:101AB000206661696C65643A203078253032780A96
:101AC000000000004572726F72207768696C6520B3
:101AD000616464696E6720736572766963653A2034
:101AE0003078253032780A0070B515460646FFF783
:101AF0005FFB0446082D0BD1052C09D130460AF0B6
:101B00002DF8002804D000894004800F00D0002464
:101B1000204670BD2423184204D0C81F092803D8CA
:101B20002032D1710020704742207047F1B5FFB0DC
:101B300001248BB0600205900027CC48079701680C
:101B4000CB48C94D081803908A980AAA0005000DD1
:101B500005A909F063FB0690002872D104260AA8A3
:101B600005994218203AD27F0B2A23D00026002064
:101B700004900AA88119022201A8029106F0ABFC88
:101B80006846818809AB08AA039803F0DFFE0128A4
:101B900017D002287ED068468088854200D305464B
:101BA000844200D92046044602988078012872D0E9
:101BB00013363CE1491E761E36040591360CCFD112
:101BC000D5E708980090002F66D1009902222831AD
:101BD000029806F07CFC00281ED100982030017B82
:101BE00002988078814217D1012808D10098029983
:101BF00002220830C91C06F06AFC002815D00298A1
:101C00008078022808D10098029910220830C91C57
:101C100006F05DFC002808D00098008DA84200D88E
:101C20000546A04200D22046044602990AA88978B7
:101C3000012907D013360599B6B28E4204D3012785
:101C400007E006E1761DF6E78119022201A806F0F9
:101C500042FC0399009808318E462FE0844669467D
:101C6000026A8B8820300DE0918B994203D3012FBB
:101C70007ED199427CD9A94200D80D46A14200D319
:101C80000C4612688242EFD10498002804D16046C5
:101C9000006802E015E0BFE08AE070450ED0018DDB
:101CA000994203D3012F09D1994207D98D4200D31C
:101CB0000D468C4200D80C46012F59D17045CDD12C
:101CC000BAE008980090002F72D1009902221C31CE
:101CD000029806F0FCFB00281ED100982030C17845
:101CE00002988078814217D1012808D10098029982
:101CF00002220830C91C06F0EAFB00281AD002981C
:101D00008078022808D10098029910220830C91C56
:101D100006F0DDFB00280DD00098808BA84200D88B
:101D20000546A04200D22046044602988078012849
:101D300026D003E002988078012805D01336079852
:101D4000B6B201281ED021E000984A490089884295
:101D500016D18A9801F002F90146009800F0C2FFFE
:101D60000099098C4843009989694018022200E0D3
:101D700038E00299491D06F0AEFB01200790D4E738
:101D8000761DDCE7B61C0020B6B2079005988642A7
:101D900001D3012705E00AA88119022201A806F053
:101DA0009AFB039A0099083209980968944630E032
:101DB0001AE086466A46938820300DE08A8B9A4264
:101DC00003D3012F0ED19A420CD9AA4200D815464E
:101DD000A24200D3144609688142EFD1049800283A
:101DE0002AD102E00120049026E070460068604598
:101DF0000FD0028D016A9A4203D3012F09D19A4272
:101E000007D9954200D31546944200D81446012FB5
:101E1000E8D16045CDD10FE00298C078022805D105
:101E200002980079292801D1B61CB6B2761D059812
:101E3000B6B2864200D301270598811B042902D33C
:101E4000864200D293E604980028FBD1A54203D92C
:101E500006987FB00CB0F0BD224629468A9804F05F
:101E600043F80690F5E70000FFFF00006C03002038
:101E70002C0700000229000070B515460C460646E6
:101E800009F054FE20346179012D09D00A0702D5EA
:101E90004207920F0FD0CA0625D5020709D522E0C6
:101EA000CA0702D04207920F05D08A0705D502075C
:101EB00003D4082070BD052070BD490707D5C007B1
:101EC00009D0E179304609F0A5FD5F2805D02079D9
:101ED000C00704D005E00F2070BD0C2070BD0220AB
:101EE00070BD002070BD890607D5C007F3D0E17929
:101EF000304609F08FFD5F28EFD02079810701D4AB
:101F0000022D07D0410701D4042D03D00007E8D4E7
:101F1000082DE6D1032070BD00B501F01FF80028A0
:101F200005D0852201699201114200D0002000BD38
:101F300010B508480649416107490723CA691202DA
:101F4000120A44042243CA6100218161036110BD69
:101F5000FE7C000000E000E004ED00E001480068C5
:101F600070470000CC020020F0B55F4C0127208AAA
:101F70008026002587B0082862D019DC002823D0ED
:101F8000012825D002287DD004281BD12078574E67
:101F9000012833D06078012814D1FFF7DFFF616892
:101FA000401AB18888420DD965704020656023E0F1
:101FB000102875D0202837D040282AD0802801D179
:101FC00008F0B8FE07B0F0BD08F0B4FE2782F9E7CC
:101FD0000120002380031A4601460BF07FFF010019
:101FE00001D043A026E050A00AF0F8FFFFF7B6FFAB
:101FF00060602770657075E02082E3E7FFF7AEFF51
:102000006168401AB1888842DCD92570202065605B
:10201000F2E70BF058FF010001D04EA00AE059A0F2
:102020000AF0DCFF2582CDE702200BF063FF010000
:1020300004D05DA00AF0D2FF2682C3E767A02BE0A0
:1020400070A00AF0CBFF0527E019417A74A00AF0CE
:10205000C5FF7F1E3F063F0EF6D1617A72A00AF0DF
:10206000BDFF7D2000010590069028203C210190B5
:1020700002901D4B03950491009509330120227AAB
:10208000800301E00AE00BE001460BF0CCFD01000B
:1020900001D067A0CEE771A00AF0A0FF0220ABE755
:1020A000002108460EF098FF0820069006210591B1
:1020B0000E481021143000239022019102900395C4
:1020C00004950095114618460BF0DCFE010001D086
:1020D0006AA0AFE774A00AF081FFFFF73FFF6060DE
:1020E00067702570042087E798030020F402002021
:1020F0006163695F6761705F73746172745F676564
:102100006E6572616C5F646973636F766572795F27
:1021100070726F632829206661696C65643A2025B6
:102120003032580A000000006163695F6761705FC8
:1021300073746172745F67656E6572616C5F646908
:1021400073636F766572795F70726F63204F4B0AAD
:10215000000000006163695F6761705F7365745FB1
:102160006E6F6E5F646973636F76657261626C65D2
:102170002829206661696C65643A20307825303200
:10218000780A00006163695F6761705F7365745FFF
:102190006E6F6E5F646973636F76657261626C65A2
:1021A0002829204F4B0A00006163695F6761705FF7
:1021B0007465726D696E6174655F6761705F70727E
:1021C0006F6365647572652829206661696C656452
:1021D0003A203078253032780A0000006163695F68
:1021E0006761705F7465726D696E6174655F676168
:1021F000705F70726F6365647572652829204F4B3C
:102200000A00000044657669636520466F756E6458
:10221000207769746820616464726573733A200082
:10222000253032582D000000253032580A000000B9
:102230006163695F6761705F6372656174655F6345
:102240006F6E6E656374696F6E2829206661696CB4
:1022500065643A203078253032780A006163695F1E
:102260006761705F6372656174655F636F6E6E65F1
:102270006374696F6E2829204F4B0A006163695FA0
:102280006761705F7365745F646973636F766572AD
:1022900061626C652829206661696C65643A20304A
:1022A00078253032780A00006163695F6761705F8A
:1022B0007365745F646973636F76657261626C6580
:1022C0002829204F4B0A000010B507F0F5F906F059
:1022D000DFF90EF00DF8012801D100F02FF800F021
:1022E00083F910BD7047000070B5134909220968D1
:1022F000120200208B18AC22525C1AE058241D6B8D
:1023000044432C1954252D5DED0610D54120400184
:102310000818C030428A018A608905F049FB3A28D2
:1023200004D04034207DEF210840207570BD401C52
:10233000C0B28242E2D870BD6C03002010B5FFF736
:10234000D3FF10BDFFB50746464881B000880D4653
:10235000454909220968120240078A18400F126B8A
:10236000582358431418412040010E180DF0C0FFA7
:10237000002822D0142D04D0152D20D0072D59D09F
:102380005CE02146039804F00DFC012120698904DA
:102390000843214640312061087D02221043087520
:1023A000820609D56279520852006271DF2210401C
:1023B0000875002F4ED151E0012005B0F0BD254633
:1023C0004035287DC007F7D02146039804F0EAFB8A
:1023D000204604F0B9FB002825D0A18FE08F814270
:1023E00000D20846E8806989A889814200D208465F
:1023F00068822A89E9898A4200D211462982628F3D
:102400002888824200D21046C9080E3989B26880F5
:10241000884200D30846A880049800680121490634
:10242000084304990860287D400840002875002F63
:1024300010D113E00398C078142802D0002005B012
:10244000F0BD4034207D0421400840000843207541
:10245000002F03D00820C036F073ADE70820C03647
:10246000B073A9E7C00000206C03002010B5FFF78F
:1024700069FF10BD002101E000BF491C8142FBD370
:1024800070470000F3B58BB005461C2248A103A895
:10249000FDF788FE684603F02FFB09240126E406B9
:1024A000002D67D04420694688764848017A314338
:1024B00001724C206946C87520200875B220487703
:1024C0005B2008A90870424A906A4249030C8B427B
:1024D0000AD108AFFB788F273B4008AFFB70FB7831
:1024E0004007400E0343FB70506A020C8A420AD137
:1024F0006B465A7CCF231A406B465A745A7C80072D
:10250000800E02435A7432484038006B020C8A42F3
:1025100009D108AAD17889088900D170D1788007BB
:10252000800F0143D1706946C87DFB210840694690
:10253000C8754878897800010843122808D308A98B
:10254000C8780421084308A9C870C878FFF748F87C
:1025500003A8012180B209044018E060E068C003CC
:10256000FCD469464878897800010843122801D3D1
:1025700009F07CFE1849088B0028FCD00E83172038
:102580008881002008610C98002806D0216910205D
:102590000140226902408A42FBD0002D02D00F493F
:1025A000152008700F490E4808600DB0F0BD0000FE
:1025B000023F00023E30023C20023B4C023A400205
:1025C00039B202345B02350B0000000000002040ED
:1025D000C007001055AA0000000010480000C040CD
:1025E000CCBCECFC14000020F8B5104E3068203054
:1025F000C57D002D19D0002409273F0210E0E9070E
:102600000BD0C019016B5820604308184030417D41
:10261000204604F025FF002807D06D08641CE4B2B2
:102620003068AC21095CA142E9D8F8BD6C030020F8
:10263000F3B581B01322D201012101A805F0D4FE27
:10264000914C04222060432101A805F0CDFE012514
:102650002168ED02491988600422432101A805F090
:10266000C3FE216804224919C860FF21843101A8F2
:1026700005F0BAFE21680C224919844D0861A97F32
:1026800001A80B3105F0B0FE092621683602891930
:102690004865A97F202201A805F0A6FE2168102226
:1026A00089194864A97F01A805F09EFE21682822A7
:1026B00089198864052101A805F096FE2168302259
:1026C00089190865052101A805F08EFE2168FF2201
:1026D0008919C8640132012101A805F085FE21682D
:1026E00058228919C865A97F01A805F07DFE2168D7
:1026F000202289190863A97F01A805F075FE2168C9
:1027000089194863AA8B012101A805F06DFE0F27E6
:102710002168FF01C9190860298B282201A805F04A
:1027200063FE07212268090251188867698B3022ED
:1027300001A805F059FE0721226809025118C8674F
:102740000C22012101A805F04FFE21680C228919F5
:10275000C862012101A805F047FE216828228919D5
:10276000C96A8860284620300090417801A805F0A9
:102770003BFE216804228919C96A8968886000982B
:10278000417801A8491C05F02FFE21681022891903
:10279000C96A89684860A97F01A805F025FE2168FB
:1027A0000222C919C867A97F01A805F01DFE21688A
:1027B0000222C9194865A97F01A805F015FE216804
:1027C0000222C9198865A97F01A805F00DFE2168BC
:1027D0000222C919C865A97F01A805F005FE216874
:1027E0000122C9190866A97F01A8491C05F0FCFD52
:1027F00021681022C91988670B2101A805F0F4FD92
:10280000072122680902511888610422802101A849
:1028100005F0EAFD216889198863029ADC204243A9
:10282000012101A8443205F0DFFD21688919C86340
:10283000029AD8204243012101A82C3205F0D4FD90
:102840002168F02289190864012101A805F0CCFD56
:102850000F4C7C222060A97F01A805F0C5FD2168EE
:102860000822C867032101A805F0BEFD21682822BF
:1028700080310860012101A805F0B6FD2168803192
:1028800048600198FEBD00006C030020FC0500209C
:1028900074030020704710B5C001000C00F0E8F987
:1028A000002010BDFEB572B63F4D082328680146D2
:1028B0004030C2791A43C27162B6002001276C46CB
:1028C000FF0282005218D219526952884300401CFC
:1028D000C0B2E2520328F4D372B6C81900210668C8
:1028E000016062B6F00702D000200EF07FF9B00759
:1028F00002D501200EF07AF9700702D502200EF001
:1029000075F9300702D503200EF070F9002623E098
:102910000D281AD2211D254A8000125820469047C2
:10292000002812D072B62868F7224030C1791140D1
:10293000C17162B630E03A2807D21C49231D8000DD
:10294000E8390A58194620469047029829684018E5
:10295000C01940692188018071006846415AB00061
:1029600002902A688018C019406902889208920073
:102970001418028808348A420ED0A27891070BD02E
:102980009107890F012901D104460834A0788008F5
:10299000C006E078CFD5BBE7761CF6B2032EDBD3BA
:1029A0000EF020F8FEBD00006C030020E87005105A
:1029B00070B50EF031F8104C01252068ED02401979
:1029C000806840210DF006FD216849194861C868FA
:1029D00040210DF0FFFC2168491988610869FF2139
:1029E00081310DF0F7FC216808224B19D8610021D4
:1029F000184605F074FD70BD6C030020FEB5064658
:102A0000294814460068294A8518C888032806D032
:102A10002346002202210420FEF778F942E089686B
:102A2000022268460D3105F056FD326990052ED41C
:102A300068460188172903D35C20405B172801D220
:102A4000172002E0814200D2084670800120400237
:102A50000243022032610190134837210068490186
:102A600041183788097B7688012349070FD5D90299
:102A7000083040182422406902210BF049F8002850
:102A800005D08780C680014601980BF02DF8A0681C
:102A900003260673A068294602225C310D3005F03A
:102AA0001AFDE6800020FEBD6C0300202C0700000C
:102AB000F7B590B000206A460D9090826A4A6B4B41
:102AC00012680446D218CB88022B08D000221821A5
:102AD0000420129BFEF71AF9002013B0F0BD8B689A
:102AE00000205E7B0A900B9088883032019209901A
:102AF000002701980BF09CFD054620E0286808900F
:102B0000A9880998814219D1A968022207A80D3124
:102B100005F0E1FC002F01D16846878B6846808B69
:102B200087420BD1294601980BF0CFFD0020286089
:102B30000A98002811D00B9805600B95089D002D70
:102B4000DCD1002FD4D112981921806801730121A2
:102B50001298012EC18002D081E00A95EDE702A90A
:102B60000AA8FEF700F9002879D069460A891821D9
:102B7000129BFEF7CBF8002671E081680546022221
:102B800002A80D3105F0A7FC012E66D16846008928
:102B900001F056FD014668460EAA008902F0F4FED7
:102BA0000E9C1099204600F09DF80D9055E02F687E
:102BB000012E3FD1002F06D0B968022205A80D31A1
:102BC00005F089FC02E0002069468882A96802229B
:102BD00004A80F3105F07FFCE8880D99401F80B2F2
:102BE0000090208CA269484369461018098A009A0F
:102BF00043180921284605F04DFE2220005D0128DA
:102C000004D16846018A00980818E0836846018963
:102C1000808A81420ED0208C0D99A26948431018F9
:102C20000021019000911098E38B0188A28B022073
:102C30000BF0AAF90A9908680A90002008600A991E
:102C4000002900D10B900121284605F0C7FE6946F6
:102C50000889898A884202D13D46002DA7D10A9869
:102C600000288AD139E700006C0300202C070000FF
:102C700000B508490968084A914209D14006010C8B
:102C800006483F22028181611121018000F022F873
:102C900000BD000014000020CCBCECFC0000104083
:102CA00000B5094A1268094B9A420BD1084A3F23E2
:102CB0001381800890610648403001603320108005
:102CC00000F008F800BD000014000020CCBCECFCB3
:102CD000000010400248018AC907FCD0704700007C
:102CE0000000104030B5024623239B5C0020012BDE
:102CF0001AD112890D4B9A4216D10D4A0923126836
:102D00001B02D318A0325B6B127B0AE045010C88D2
:102D10005D5B24052D05240D2D0DAC4204D0401C17
:102D2000C0B28242F2D8002030BD0000022900006B
:102D30006C030020F7B578480F460068774988B0E3
:102D40004418F888072804D20022062104200A9B90
:102D50002AE0B968022268460D3105F0BCFBB9686B
:102D6000022201A80F3105F0B6FBB968022204A8BF
:102D7000113105F0B0FBF888C01F80B2039068469F
:102D80000288808882420CD8002A0AD00898002144
:102D900042880A9806F039FF002808D045200BB079
:102DA000F0BD062101200A9BFDF7B0FFABE00A98B9
:102DB0000721806808340173012168460181059468
:102DC000008801F03DFC05007CD086E06846008A62
:102DD0000522D202904202D0521C904226D168466F
:102DE0000088814278D329460B2208313846039B5C
:102DF00005F0EEFD69466A8D098A8A426CD1039915
:102E0000022901D0102967D1002865D12A46284619
:102E1000296A28322030814202D06B6A1C3300E0DC
:102E2000134602A90A98FDF784FF55E02E462C6A46
:102E30002036B4424ED14FE06946A08B09888842C3
:102E400047D369468988884257D82320005D0128E6
:102E50003FD120460899FFF745FF218CA2694143E5
:102E600051180B223846039B05F0B2FD06900898D6
:102E70000122008821460005000DFEF799F9014660
:102E80006A462089128A904223D1002921D1E28BFF
:102E900003998A421DD1069900291AD108996A46D8
:102EA00049881289891A042927D322461C491C32D1
:102EB000884208D12068B04205D00089884202D0FB
:102EC0002468F7E719E023461C3302A90A98FDF7A6
:102ED00030FF2468B442AFD12D68059885420CD0EC
:102EE0006846298D8088814207D808986A464088BC
:102EF0001289801A042800D368E7684600890128EF
:102F000003D90A99C880002049E76846028806214B
:102F10000A200A9B48E700006C0300202C070000F1
:102F20000328000010B5002207E08B185B78092BFE
:102F300007D08B5C521C9A18D2B28242F5D3002083
:102F400010BD881810220449401CFDF75EF90028C6
:102F5000F5D1012010BD00000803002010B50D4977
:102F600000050B680921090259184A6B0021000D60
:102F7000A0331B7B0AE04C01145B2405240D844222
:102F800002D14801801810BD491CC9B28B42F2D849
:102F9000002010BD6C030020FFB589B00024054659
:102FA0000794D0881646052804D00022042108463C
:102FB0000C9B20E0B168022208A80D3105F08BFAC5
:102FC000B168022268460F3105F085FA6846028C26
:102FD000008882420CD8002A0AD00A980021428830
:102FE0000C9806F012FE002808D045200DB0F0BD68
:102FF000042101200C9BFDF789FEB9E06846008C96
:1030000001F01EFB060076D0083504950498864230
:1030100072D06946308D098C884230D36946098860
:1030200088422CD8002C0AD1012107910C98052147
:103030008068022401730C980799806841730A988C
:103040004088001B042857D30798012854D1201D1D
:1030500081B23346283302220C9805F013FDA01DDF
:1030600081B233462A330222A41C0C9805F00AFDD3
:103070006946A41C308D0988A4B2884274D03746B2
:10308000356A2037BD42C1D060E06946A88B098C03
:1030900088425AD369460988884265D8002C36D0C0
:1030A0002320415D0798814260D10A984088001B27
:1030B000042802D30799012904D0122856D307986F
:1030C000022853D1201D81B22B461C3302220C98BA
:1030D00005F0D8FCA41C0798A4B201280DD0201D2F
:1030E00081B22B46083310220C9805F0CBFC204609
:1030F000103084B229E03DE036E0201D81B22B463D
:10310000083302220C9805F0BDFCA01CF1E7232037
:10311000415D07910C9805218068022201730C988B
:103120000799806841730C98294680681C310E30DD
:1031300005F0D1F9079901290CD02B46083310224C
:1031400008210C9805F09EFC14242D68BD429CD1EA
:1031500036685BE70C9829468068022208311030F7
:1031600005F0B9F90624F0E7002C03D00C98C480D0
:1031700000203BE76846028C04210A200C9B3AE7BA
:10318000064909220968120289188008496B400122
:1031900008180188002900D1002070476C03002026
:1031A00070B50C460B4E81000B4832680D18012398
:1031B0002032D37721462846FFF772FD2868002188
:1031C000844201D1084600E0FB2032682032D177EA
:1031D00070BD00006C0300200000041038B5184AD0
:1031E00014682246BA32AE34A378DD0701D0012933
:1031F0000AD05B070CD501290AD0217949070BD5E4
:10320000E17A002905D007E0E07880210843E070EA
:1032100038BD0121E172508020794106090FF7D0B5
:103220007821084069460870002048706A460221EB
:1032300042200AF0EDFD207987210840207138BD39
:103240006C030020F8B5054600276846077015484E
:1032500046260468AE3420798006800F03D0002112
:10326000084603F0E7FDA078400718D520794C21E7
:10327000084214D10023287E6A46194600F03CFA21
:1032800000280DD16846007828762F74284603F070
:1032900007FB060003D12079402108432071304606
:1032A000F8BD00006C03002070B592B006462022E5
:1032B00021A101A8FCF776FF202109A8FCF79AFFBD
:1032C0000A216846017000242546694601A803F0DA
:1032D0004DFF6846027801A909A805F0FCF801A88D
:1032E00024E0015D491CC9B2914223D803195B78DF
:1032F000B34214D16B461A78521A6118C9B24118F8
:10330000D2B209A81A70401905F0E5F86B46187892
:103310002818C1B209A804F0BFF912B070BD521A42
:103320006B461A7062186918D4B2CDB269460A7831
:10333000002AD6D11F20F0E702FF01020104030298
:103340008FFC0000000000000000000000000000F2
:10335000000000000000000038B51048002104689B
:103360000846AE3403F066FD694648702079C1070F
:1033700004D001216A46117088432071C0B28107D0
:1033800005D502216A461170FD21084020710221F5
:103390006A4608460AF03CFD38BD00006C03002078
:1033A00010B5FFF7D9FF10BDFFB50C4678A103C9D2
:1033B00095B001910090002108A801730321C90272
:1033C00068464186012108A8734E01743568174686
:1033D000AE3502F0F5FC002808D17049306840187D
:1033E00002F046FBA878002802D0462019B0F0BDB4
:1033F0000BA8159900F09FFB0028F7D1072010A912
:103400000871012C05D0022C0AD0002C0ED04220CD
:10341000ECE708A8017B1020014308A8017305E030
:1034200011A90BA800F0D4FB0028DFD110A8027965
:1034300001230CA9284600F0B9FF00287ED1022202
:103440002946189805F047F8298868468181152192
:10345000490201820784012686734E2108A88170E3
:103460000024C470067107214171867103A902A866
:1034700000F052FD002861D1022202A91E9805F039
:103480002AF8082F02D26846478502E008206946DC
:10349000488569460C850B4628880AAA098901F0E7
:1034A000E5FF00286DD13E49684601820227078466
:1034B00008A8847103A902A800F02EFD002860D19D
:1034C000022202A91F9805F006F8684604706946B2
:1034D00044704F850B4628880AAA098901F0C6FF67
:1034E00000284ED108A8007BC00723D02C4968468D
:1034F000C91C01820821018408A88770047103A9EE
:1035000002A800F009FD00283BD1FF216846C171E7
:103510008171C1708170417001704471047169469C
:10352000082048850B4628880AAA098901F09EFFD1
:10353000002826D108A8007B800600E021E022D5E3
:103540002988684681811649A531018206848673DF
:1035500008A88770C470047107214171847103A9A0
:1035600002A800F0D9FC00280BD169460E700C852A
:103570004E850B4628880AAA098901F077FF0028A2
:1035800001D0472032E708A8007BA87000202DE773
:10359000626C75656E7267216C030020EF06000097
:1035A000012A0000034800210068AE30C17081701C
:1035B000704700006C03002070B50D4B1C68AE34E2
:1035C0002379DD0612D45B0710D533280ED1E07ABB
:1035D00002280BD10420107000205070C9B20220C4
:1035E0000AF016FC2079FB210840207170BD000014
:1035F0006C03002038B50246174801240068AE303D
:10360000022A1FD0052A03D0072A07D00B2A20D16F
:10361000084609794088FFF7E1FD1AE000790024A7
:10362000020600D50124820703D1C20601D4800618
:103630000FD5084600216A461170694609F09CFCC6
:10364000044606E08178490703D50179FB22114041
:103650000171204638BD00006C03002010B50948F8
:103660000468AE34E07880070BD5002003F0D4FA6C
:1036700002200AF031FBE07801210843FD210840D7
:10368000E07010BD6C0300200FB410B5079C01283A
:103690002DD1684680891749884210D103A80FC8E8
:1036A00000F0BCFA00281DD107F0CEFCFA281ED08D
:1036B00001281CD92078F3210840207017E00D491B
:1036C000491C884208D0C91E884205D0491C88423E
:1036D00002D0C91C88420AD103AC0FCC00F09EFA7C
:1036E000002800D0632010BC08BC04B0184700209C
:1036F000F9E70000022A0000FFB5074673480D46AF
:1037000004688FB0AE34A1781E46C80602D5E078B2
:10371000C0067DD4880607D5E0788006800F03D0E8
:10372000022F01D0002E73D08806800F06D0022F02
:1037300008D0032F06D0002E6AD003E0012F01D05D
:10374000002FF8D1880603D4002D01D0012D5FD1C0
:10375000002E06D130200140384602F053FF0028E9
:1037600056D1119900200870A17889068A0F7DD062
:103770000CA908A803F0DAFC07900DA90AA803F029
:103780002BFD06900798002802D00698002801D14A
:10379000012E58D1022F04A807D002F01DF9002EE7
:1037A0003CD00798002803D012E008F0B3FBF6E7FE
:1037B000464F47483B68062208A9181804F087FEC0
:1037C0000028386808D04030417E490849004176D9
:1037D0000698002805D014E04030417E01221143B4
:1037E000F5E73A4F3A483B6806220AA9181804F050
:1037F0006EFE002838680CD04030417EFD2211401A
:1038000041760798002809D00698002806D01AE0CB
:1038100043E04030417E02221143F1E72B4806226B
:1038200003682B4804A9181804F055FE05206946C2
:103830000873002E02D1084608F0E6FF25480290E2
:10384000684608F096FFA078800611D511980321EC
:1038500001702079C10603D5002D01D0022D1CD1A5
:10386000800605D5012D03D0032D00E018E014D10A
:10387000A078C00627D51199012008702079C106CB
:1038800001D5002D09D1810601D5012D05D10006F4
:1038900019D5002D17D0012D15D0422013B0F0BD41
:1038A000012F01D1002E03D0890F314309D00AE046
:1038B0000648062203680648611D181804F00BFE2E
:1038C0000120119908700020E8E700006C03002037
:1038D000EF060000A0BB0D003EB50CF0A7FD0446AE
:1038E0000CF030FE082C01D1082813D00A480B49EF
:1038F000006806224118684604F0EDFD68464079EC
:10390000400601D5022000E00320012302AA002185
:10391000FFF7F2FE3EBD00006C030020EF06000042
:103920001FB50E480468AE34E078010612D5A178C0
:10393000C9070CD0800708D504206946087368467B
:1039400008F062FF02200AF0C7F90020E07040068C
:10395000400EE07000F016F91FBD00006C0300205F
:10396000F0B58DB00C4616A9E0C900210891099167
:103970000A910B911599049105A9E0C112A962C998
:1039800000930191134601460396029522460120B9
:1039900009F0ECFB0DB0F0BD002000B58DB00A9031
:1039A0000B90089009900590069007900490009065
:1039B00001900290034602460146039009F0D6FBAF
:1039C0000DB000BDFEB51E4617460C460546002349
:1039D00002AA19463846FFF78FFE00281DD1684617
:1039E000017A81710D4A281F904200D300250B4AAD
:1039F000A01E921C904200D300246846058044809B
:103A00000022427181710121017104F0ABF800289C
:103A100003D13146012003F00DFAFEBDFD3F000049
:103A2000F0B5104C4625246885B0AE34A6787607EC
:103A300014D52679B3273E4210D1FFF7C3FF050006
:103A40000CD12079022108432071062069460873B1
:103A50000520C0020290684608F08BFE284605B09B
:103A6000F0BD00006C0300200949B222096814234C
:103A7000525CBA311A4208D0498800050905090D7F
:103A8000000D814201D101207047002070470000E5
:103A90006C03002070B5044620484625066886B0B1
:103AA000AE36012C0FD0022C0DD0042C0BD0082CDC
:103AB00009D0102C07D0202C05D0402C03D0802C0E
:103AC00001D0422527E03079204224D0082C12D0A2
:103AD000402C10D00620012C03D0022C01D0802CC9
:103AE00004D169460873684608F08EFE0021084636
:103AF00003F0A0F901E003F00BF805000BD13079D9
:103B00000021A0433071684604744174022104AA64
:103B100008460AF07DF9284606B070BD6C03002007
:103B200010B503F05BF810BD02780907090F0A43CE
:103B300002700020704710B5FFF7F6FF10BD0000BF
:103B400030B50E4885B005682C46AE352879BA34B4
:103B5000400711D5E87A01280ED11521490268469F
:103B600041800121017060886B46054A00F090FE9B
:103B7000002801D10220E87205B030BD6C0300209E
:103B8000FFFF000010B5FFF7DBFF10BD7CB504465A
:103B9000E1200D46800003F029FC0BA103C9009031
:103BA000019168460DF0F8F9012003F071FD00283D
:103BB00001D047207CBD20782021084320700920B7
:103BC000287000207CBD00001F02000000000000E3
:103BD00010B5FFF7DBFF10BD10B50446022000F062
:103BE0005DF80D4800210268092000021018A0327B
:103BF000436B107B05E04A019A5A002A04D0491C05
:103C0000C9B28842F7D810BD48011C52C0180269D9
:103C100004210A43026110BD6C0300201FB582B06D
:103C2000002401F01DFF694601F0BEFE009A6846BF
:103C3000116A0089203209E023235B5C012B04D147
:103C40000B89834201D1641CE4B209689142F3D12B
:103C5000204606B010BD000010B504460146042001
:103C600002F062FB002808D00448054900684018AB
:103C700021463C300AF00CFD432010BD6C030020AF
:103C80002C07000004490A683B21490151180A7DAC
:103C900002430A75704700006C03002004490A685B
:103CA0003B21490151180A7D02430A757047000003
:103CB0006C03002000B51138C0B2FFF761FA00288C
:103CC00004D00122016952051143016100BD704712
:103CD000F0B5027901239B070168002A02D0062A69
:103CE00003D006E05C688C4302E05C6800220C4371
:103CF0005C6000210F240568CD40ED07ED0F37D043
:103D0000082909D2DE6A8D002746AF40BE43174618
:103D1000AF403E43DE622BE00D46083D082D0AD23F
:103D20008D002646203D1F6BAE40B7431646AE4081
:103D300037431F631CE00D46103D082D0AD28D004D
:103D40002646403D5F6BAE40B7431646AE40374314
:103D50005F630DE017290BD9114E8D002746603D9A
:103D6000368BAF40BE431746AF400D4D3E432E83CA
:103D7000491CC9B21A29BED341790129D968026800
:103D800009D09143D960817901299968006804D0EC
:103D900081439960F0BD1143F4E70143F9E7000066
:103DA0002000004003480068AE3080788006800F15
:103DB000704700006C030020F3B597B00D88488869
:103DC0000590081D1DC80DAE1DC68C8ACE8A087EC2
:103DD0001390C869203101900878009048780490C9
:103DE00088780390C87802900F7900F015FE0028BB
:103DF00017D10120400284425FD8B4425DD8002F21
:103E000001D1B44259D114A9284601F0CDFD0028B2
:103E100006D115AA1499059801F0B6FD002802D024
:103E2000602019B0F0BD149D11A92846183004F087
:103E300069F810A88088002810D0284612A92030E0
:103E400004F060F810A8838800892A8D1818696A20
:103E500010188A8B904203D16120E2E74820E0E706
:103E600015982C4B02899A4227D12322125C012AF1
:103E700023D1006800681690139801281FD1684666
:103E8000808E29221202801A030009F0C4F8060469
:103E9000180404070A18022C0FD110E0072C0CD1CB
:103EA0000DE0042C09D3E00707D1012F07D1A6426A
:103EB00003D3042E01D3F00701D04220B1E70298CA
:103EC0000B90039B049A0A9309920098019A0C970D
:103ED00008900696059407920DA81DC8019002A8A7
:103EE0001CC013980B4600902A461699179800F0AC
:103EF000B1F9002895D168460649808EFF31884285
:103F000005D01798018800200A4601F0EDFF002037
:103F100087E7000003280000F3B5A5B008881A90D1
:103F200088780C4611901022091D13A8FCF73AF965
:103F3000A08A1090A17D68460172E07D0F90207EDE
:103F40002090677EA07E1F900020064601461290BA
:103F500020A801810F20BB4C2390BB49206840184A
:103F6000199000F059FD00280BD101211098490249
:103F700088425FD821A91A9801F016FD002802D0C6
:103F8000602027B0F0BD2198179001F069FD1A99C3
:103F900088420CD102A801901698009013AD0ECD66
:103FA0001198FFF771FB002801D06320E9E768460C
:103FB000017A8806800F05D0012012902068A03079
:103FC000007B4600C80703D01298401CB61C129014
:103FD000080603D51298401CB61C129017980DA91C
:103FE00018301D9003F08EFF6846129C808EA41C32
:103FF000A04237D317980EA92030019003F082FF1A
:104000006846018F00290DD01798179A6B46406AB1
:104010009B8E128D5918808B5118081AA04201D21C
:104020006120AEE71798846911982568012803D0AC
:10403000022803D04220A4E7052000E01320E083FB
:104040002A4639460F98FDF765FD422899D0199FF9
:10405000E28B4037788B398B411A109810188019F1
:10406000814201DA48208CE70EA9019803F04AFF4B
:104070006846008F0028179802D0406A808B00E0C5
:10408000008D2599401C0880259801210088A08377
:10409000259802220088401CA8836C482081204675
:1040A00020301790C1700021817081711998398B6F
:1040B000406D40186946A061097A0170A0692946DF
:1040C0001C31401C04F007FA11980128A0697DD02A
:1040D000102213A9C01C04F0FEF92846102213A9CF
:1040E000083004F0F8F9388B133038832E46203628
:1040F0001198F0701098E8831F98B0701098208481
:10410000109828841998398B406D4018A8610021B7
:10411000109A04F0E4F9398B10980818388317992D
:104120000120087117990020487130716846007AA3
:10413000810701D50121317101070227002902DA27
:10414000317939433171410703D531790422114363
:104150003171400603D530790821084330710F983A
:1041600070712098B07121461D9803F0F4FE21462D
:10417000019803F0D1FE29461D9803F0ECFE294674
:10418000019803F0C9FE1298002841D068461A9998
:104190008181A18BC18107844784012408A804710F
:1041A00022A80A9008A88473239941730F99382094
:1041B000014008A801730721C173002505746846F2
:1041C000007AC00708D02248694600E02BE0088248
:1041D00003A924A8FFF7F0FD6846007A8006800F47
:1041E00007D01B486946401E088203A924A8FFF790
:1041F000E3FD6846007A00060AD5292109026846CF
:10420000018208A84473057303A924A8FFF7D4FD0D
:10421000259801881298401C081882B2002001F0ED
:1042200063FE0020ADE6022213A9C01C04F053F97E
:104230002846022213A9083004F04DF9388B401D9E
:1042400053E700006C0300202C0700000328000047
:1042500003290000FFB55248524A006887B082180F
:10426000069210AA109B0126169F9288012B04D15A
:104270004D4B9A4201D1A030067B069D3446403515
:10428000688B2B8B7C43C31A099820300390A34280
:1042900022DA48200BB0F0BD2320405C012819D160
:1042A00008896C46208098420CD03F4C641EA04286
:1042B00008D0641CA04205D0641CA04202D0A41CFB
:1042C000A04207D1384CFF3CA04201D0904201D11E
:1042D0006220DFE7096801E029231B02039881427D
:1042E000DAD109981B99846918982246FDF712FCC7
:1042F0004228CFD01C98012804D11598874201D2BA
:104300004220C7E71598E083204620301C9905908D
:10431000817027840A98808B401CA0831098012804
:1043200014D02046102211A9083004F0D4F80599C1
:104330001098C8700698298B406D4018A061298B91
:10434000384670430818288300250FE011A80FC8CD
:1043500008340FC4183CEAE72846A16978430818D6
:10436000159A179904F0B7F86D1CEDB2B542F3D366
:1043700005991898487105991998087105991A981E
:10438000887109982146183003F0E5FD214603980D
:1043900003F0C2FD0798A18B018000207AE700009E
:1043A0006C0300202C07000002290000FFB58FB02D
:1043B00014460E78102205A8891CFBF7F3FE4F481F
:1043C0004F490068451800F027FB00281ED1002C3B
:1043D00057D0012E09D16846808A4A49884204D1C3
:1043E0002846A968083081424BD1284610302969F7
:1043F0000390814209D00AA9284603F083FD68464C
:10440000018D601E0D90814202D2482013B0F0BD94
:10441000284608300CA9049003F074FD6846008E0D
:10442000002814D0EF680AA93846183003F06AFD56
:10443000384620300CA903F065FD6846398D008DA3
:1044400009186846008E401C081887B200E0012752
:1044500001200004C01BA04201D26120D6E72C69D4
:10446000286801901298012802D0022803D008E0A1
:104470000520C00200E024486085012E03D0022EF2
:1044800005D04220C2E720460830022202E0204642
:104490000830102205A904F01EF8204631462030CD
:1044A000064601730F98214607802785039803F07D
:1044B00052FD2146049803F02FFD27461837E76187
:1044C0006662A76126620D9884B20BE028460199C6
:1044D00003F041FD3846019903F01EFD2868641E73
:1044E000A4B20190002CF1D10F9801880D98081802
:1044F00082B2002001F0F8FC002087E76C03002066
:104500002C0700000118000001280000FEB58C688F
:10451000CD88267B012E01D00020FEBD4126052D31
:1045200001D01E7019E0247C0A2C00D01E70002AD5
:104530000DD08968052268460C3103F0CCFF6D1E52
:1045400000AAA9B232200132FFF736F805E0008850
:104550000A460146022009F0E5FD4120FEBD10B5E6
:10456000102100F02BFD10BDFFB589B0074646268F
:104570001D781022991C05A8FBF714FE012D04D00C
:10458000022D02D042200DB0F0BD3846FDF7C4FC2C
:10459000040037D020223946002004F0C3F9070078
:1045A0002FD01948694608800120049039462046DA
:1045B0000B9B0A9AFCF7EEFE060004D00021384659
:1045C00004F00CFA1EE00B98A081A068012D0FD01A
:1045D000102205A903F07FFF2571012120694903FD
:1045E000084320610948A0613846FFF735FB09E020
:1045F0001022074903F06FFFA068022205A90C30C2
:10460000E8E764263046BEE7032800005F45041053
:104610007C710510024608480849006841188868FE
:10462000083103E0038D934202D200688842F9D139
:10463000884200D1002070476C0300202C07000046
:10464000034610B50E480F490068411888680831C4
:1046500003E0148D9C4203D8104602688A42F8D1C8
:104660008A420CD1018D994209D20146026A203159
:104670008A4203D0416A898B994200D2002010BD42
:104680006C0300202C070000024610B50B481205F1
:104690000168092000020818436B0020120DA031A8
:1046A000097B07E044011C5B2405240D944203D0E0
:1046B000401CC0B28142F5D810BD00006C03002040
:1046C000F7B505461746019809F0B2FF2E050446D6
:1046D000360D0CE0A0882568B04207D1214601982C
:1046E00009F0F3FF3946204604F078F92C46002CF7
:1046F000F0D1FEBDF0B58BB0002063490290634855
:104700000A68141872B610464030C57902231D435A
:10471000C57162B625464035287AC0077DD009208C
:10472000000210180026476B49E071017A5A002AEE
:1047300043D0C919069109694A021ED48A0226D5B6
:10474000022104910699012309880905090D0391A5
:10475000372149014118097B89070ED5D902083054
:10476000401823224069022109F0D2F9010004D047
:10477000039A8A80049809F0B7F906980088009097
:10478000069800F0CBF8009807F0C2F915E048074A
:1047900013D5069800880005000D07F04BF9002896
:1047A00005D1069800880005000DFDF7BFF90699B0
:1047B00004200969814306980161761CF6B23248EB
:1047C000AC210068095CB142AFD805F01FFC20465F
:1047D0002430064609F072FF012802D0012005F0BE
:1047E00019FB2046183009F069FF012802D000208B
:1047F00005F010FB3C34204609F060FF01280FD083
:1048000002A9204609F083FF0420029901F08CFDE3
:104810000028F0D02046029900E032E009F025FFA0
:10482000287A00062DD5304609F048FF012828D106
:10483000002004F04BF8A98B23314909491CC9B267
:10484000FBF79AFC00281CD00F4D04462868012372
:10485000D90208304018422638224069314609F012
:1048600057F901000DD000228A80CC80304609F033
:104870003BF93B212A68490151180A7D8020824377
:104880000A750BB0F0BD00006C0300202C0700007F
:10489000FFB589B0074646251E781022991C05A849
:1048A000FBF780FC012E04D0022E02D042200DB076
:1048B000F0BD3846FDF730FB040024D020223946F5
:1048C000002004F02FF807001CD005AD04960FCD92
:1048D0006D460FC5394620460B9B0A9AFCF75AFDD8
:1048E000050004D00021384604F078F80BE00121DF
:1048F00020694903084320610448A0613846FFF756
:10490000ABF900E064252846D1E700001149041006
:1049100010B5502100F0E6FC10BD0000F0B50446D3
:104920003B483C49006885B04518218A890419D55F
:1049300002210491372149014118897B41262788AA
:104940000123C9070ED0D90208304018312240692E
:10495000022109F0DDF8010004D08F808E710498E7
:1049600009F0C2F82946208801221831FFF7A8FE75
:104970002946208801223031FFF7A2FE29462088EF
:1049800001222431FFF79CFE2946208800223C3179
:10499000FFF796FE20880005000DFFF775FE8500E5
:1049A000294611316846017307F02EFF294612315E
:1049B0006846017307F028FF2946133168460173E2
:1049C00007F022FF68461435057307F01DFF2088A5
:1049D00000F03CFA208801050D48090D02682520E9
:1049E00080011018028B914201D100210183E069FE
:1049F000002802D0012103F0F1FF202200212046EF
:104A0000A56803F06CFD1720A560608005B0F0BDBF
:104A10006C0300202C07000010B50B480B49006800
:104A200044184034207AC00709D0002003F04EFF1C
:104A3000217A890701D5002803D0002010BD472026
:104A400010BD642010BD00006C0300202C07000086
:104A5000F0B55FA099B000685E4915905E4A08689D
:104A60008418092212028218526B2546403514928E
:104A70002A7AD20702D0622019B0F0BDAA8B012396
:104A80005B029A4201D9AB8303E0172A01D21722B5
:104A9000AA83149AA0301392067B0DE0761EF6B21C
:104AA000139871010F18B8680F9038462022002122
:104AB00003F015FD0F98B860002EEFD120460830A6
:104AC000E0606460A0602460083013906061206141
:104AD000FF220021083009F0C0FD2046FF220021FE
:104AE000243009F0BAFD2046AA7F0021303009F0B9
:104AF000B4FD2046FF2200213C3009F0AEFD00222B
:104B00002A7210461721334B05E0149E4701BE1947
:104B1000401C7180C0B21E68A036367B8642F4D835
:104B2000002028832F8C688C0026149008E0282011
:104B3000E16C70430918204603F0EEF9761CB6B21A
:104B4000BE42F4D3002608E03020216D70430918DE
:104B5000139803F0E1F9761CB6B214988642F3D3A9
:104B60000120FFF79BF80124684604701B4941802F
:104B70002346042269460CA8FFF718FC002822D11E
:104B80006846018E81821649018304260685847554
:104B9000202108A881720024C47204730721417384
:104BA000847305A90DA8FFF7B7F900280BD1684653
:104BB00004874687818E15AB0EAA008E00F056FC46
:104BC000002800D158E700202872472054E7000051
:104BD0000000FFFF6C0300202C07000001180000FC
:104BE000052A0000F8B5044683480E46006883494C
:104BF00047184820C05DC0076FD0B088FEF7AEF9F7
:104C00000546012C02D0002C68D0F3E0002D04D022
:104C10002869410703D54520F8BD0121C7E0B268E6
:104C2000F188147B0029F0D062060AD56888884292
:104C3000F3D3D22C01D0522CEFD138463146183064
:104C400048E0A106890E1E2949D81E2C20D1010753
:104C50001ED50821884328612988012007F0B6FB6A
:104C60000121304603F0BAFE634801230068D902EF
:104C70000830401842242D8839224069214608F026
:104C800047FF010003D08D80204608F02DFFB1E0E2
:104C9000E1070BD01D2C1AD01B2C18D0410533D4A2
:104CA000012189020843EE612861A3E0C00606D510
:104CB0002B4602220321422009F032FCADE729886D
:104CC000002007F071FB2969102001432961384653
:104CD0003146243009F0DCFC8CE015E016E0298830
:104CE0002022002003F01EFE05000DD001213046D9
:104CF00003F074FE2B46002221460620FCF706F83E
:104D00002846FEF7A9FF75E04120F8BDB068047B96
:104D10001D2C3CD01B2C43D00021304603F05EFEFE
:104D2000002D67D0032C46D0052C44D0072C42D050
:104D3000092C40D00B2C3ED00D2C3CD00F2C3AD05F
:104D4000112C38D0132C36D0172C34D0192C32D04B
:104D5000012C30D0022C35D0042C33D0062C31D08D
:104D6000082C2FD00A2C2DD00C2C2BD00E2C29D077
:104D7000102C27D0122C25D0162C23D0182C21D063
:104D8000522C1FD0D22C1DD01E2C2FD032E0002D43
:104D900003D02988012007F007FB3146022001E0FB
:104DA0003146012007F014FA002823D000213046B4
:104DB00003F014FE1EE0296910208143296129882F
:104DC000002015E02869402188432861010511D59C
:104DD000FF210131084328612988022007F0E4FA05
:104DE00001202969C0028143296103E02988032049
:104DF00007F0ECFA0020F8BD6C0300202C0700003F
:104E000010B5104A104B1268D2184032127AD207ED
:104E100006D002280AD0052804D00B2810D101E0C2
:104E2000412010BD4888FEF7D7FE09E04888FEF70C
:104E300095F8002804D0012201699205114301610F
:104E4000002010BD6C0300202C070000F1B5FFB05E
:104E500085B0472001900020694608805348544996
:104E6000006847188498FEF779F80290002874D0FB
:104E7000B96808374FE0684600880D4604AC201832
:104E80006B460222283111F035FE6846008829461B
:104E900020186B4601222C3111F02CFE2E462036B4
:104EA000307B69460128098804A809D040186B4660
:104EB00010222946083111F01DFE01902C6A27E0CE
:104EC00040186B460222F4E76946098804A8401896
:104ED00021466B4602221C3111F00CFE69460988FE
:104EE00004A8401821466B460122233111F002FE2E
:104EF0002320005D69460128098804A830D04018A5
:104F000021466B461022083111F0F4FD019024680F
:104F1000B442D9D12968B942ADD1019800281CD139
:104F20006846008881070AD0224A011D11406A465E
:104F300011800A1A04A908180B2103F0D0FA02986C
:104F4000008806F077FD002807D18498694600059F
:104F5000000D04AA098806F099F87FB006B0F0BDEC
:104F6000401821466B460222083111F0C3FD019022
:104F7000208911498842CAD120460299FDF7B2FE24
:104F80004000A16903906A460918128804A8801895
:104F90006B46022211F0AEFD0190A1690398022236
:104FA0000818002103F09BFAB1E700006C03002011
:104FB0002C070000FCFF000002290000F0B593B0B0
:104FC0000E4604460020694608760190E069079085
:104FD000002827D0C788002F7DD0B006800F03D0CF
:104FE0002088FEF741FD019006AB2046019A079903
:104FF000FFF78CFA412861D0B81E80B20090079864
:105000008068457B002D56D0F006F10703900029FB
:105010000FD0022F0DD329460098FBF7ADF80029D9
:1050200003D006E0412013B0F0BD062D17D0142D9B
:1050300015D0B00708D5052F06D30321B807890777
:10504000C84201D1022048E070070ED5022F0CD3D0
:1050500029460098FBF790F8002902D005E00120CE
:105060003BE0082D0DD0062D0BD00398800F0ED0FD
:10507000022F0CD329460098FBF77EF8002902D0B6
:1050800005E0042029E0072D08D0152D06D0B00634
:1050900011D5012D04D0022D04D00CE008201CE015
:1050A000042500E01225022F05D929460098FBF7B8
:1050B00063F8002910D04120694608760121206953
:1050C000490388432061019800287DD006AA012168
:1050D0003120FEF771FAF6E01020810706D57D49F0
:1050E000B8034018070CB800C01C0EE0C0060098BA
:1050F000294604D5401CFBF73FF887B202E0FBF7D6
:105100003BF80746781E6843801D81B205AB02223A
:10511000079803F0BFFBF0064ED56946A089898A3F
:10512000884202D9206941065BD4002041E0072D66
:105130000AD068430B3082B21023A168079803F0AD
:1051400047FC002815D031E01022634908A803F07D
:10515000C2F902980BABC100081A0B3081B20222CF
:10516000079803F097FB102208A8A16803F0AFF995
:10517000E7E7019800280ED002980CAB6843801D29
:1051800081B22A46079803F085FB0CAA29463320F2
:10519000FEF712FA0AE00798009002982B4668433F
:1051A000801CC2B22188022008F078FF0298401CBF
:1051B00080B20290B842BAD33820484F064207D096
:1051C0006946A089898A00E077E0884204D86EE0C9
:1051D0006846808AB8426AD02069410606D5F10641
:1051E00004D401218902084320616CE02188202237
:1051F000002003F097FB050011D00521F2070120E4
:10520000C902002A0DD06A4611800490908A3B465C
:10521000401C82B229462046FCF781F837E0452041
:1052200001E7B20713D5207901280ED01020A2681B
:105230000290019200916846808A3B46401C82B2EF
:1052400029462046FBF7DCFF21E00220EFE771074B
:1052500001D5234A04E00399890F0DD0204A521C3E
:1052600069460A800490888AA389401C82B2294634
:105270002046FCF78FF80AE0B0060AD56846808A17
:10528000A389401C82B229462046FBF7FCFF642814
:1052900008D02846FEF7E0FC2288304607990EF039
:1052A000E3FF10E00021284603F098FBB7E72288CF
:1052B000304607990EF0D8FF00E76846027E218845
:1052C000022009F039F80121E06903F087FB002092
:1052D000E061A8E600C0FFFF7C710510FFFF000041
:1052E00002280000F0B58BB00D4604460020694648
:1052F00008710490E669002E16D0A806800F03D02E
:105300002088FEF7B1FB049001AB31462046049A99
:10531000FFF7FCF8412865D0E80708D0218832461D
:10532000022008F0A5FB5DE041200BB0F0BD68074E
:1053300005D521883246022008F05EFB52E0A8071E
:1053400039D5F0886188814205D92188324602200A
:1053500008F096FA46E02069410604D50121890249
:105360000843206180E021882022002003F0DAFA3F
:1053700005001ED021883246022008F081FAA0687C
:10538000801C0EF07AFA6188401E401886B2A06830
:105390000EF073FA0246334629462046FBF79BFF80
:1053A0002846FEF759FCA0683146801C0BF0AEFE83
:1053B00054E04520B9E7E80614D5F08841270228D3
:1053C0000ED9B168801E4D7B80B2854201D9012083
:1053D00016E0002D04D02946FAF7CEFE00290FD0A2
:1053E00068460771012021694003814321610498C7
:1053F00000282DD001AA01213120FEF7DDF82DE093
:1054000002900220002703901EE0049800280DD08F
:10541000039805AB001D81B22A46304603F03AFAE4
:1054200005AA29463320FEF7C7F807E0039800963F
:10543000C2B22B462188022008F030FE03984019A2
:1054400080B27F1CBFB2039002988742DDD3C9E7C8
:10545000684602792188022008F06EFF0121E06988
:1054600003F0BCFA0020E06100205EE7F0B50746DB
:1054700017480E4600683B2149014018007D85B061
:105480001D461446C00706D003A9384600F08CFA22
:1054900000280AD102E0472005B0F0BD04AA30463A
:1054A000039900F071FA002801D06020F4E7049914
:1054B000228860880968002A00D0088C32466E462F
:1054C00031C603233946002000F004F8E4E7000069
:1054D0006C030020FFB5002099B0239A0B90129026
:1054E00005461490064615901C46DB480B4600689E
:1054F000DA49229F411803910021089109915188AE
:10550000069111880A913B2149014018007DC0078E
:1055100006D00FA9184600F047FA00280AD102E089
:1055200047201DB0F0BD10AA0F991B9800F02CFA6F
:10553000002801D06020F4E71998002803D0600704
:1055400001D5012000E000201390A007800F1C90DF
:10555000109817902030C078012840D11798C04B80
:1055600001899942F9D11798069904680A98228C02
:105570004118914233D82046203016908078012877
:1055800016D0E08B04901798806900788006800F11
:105590007ED0039840301890007A800778D51C9808
:1055A0000028F5D0AE4F0F99FF372031206814E066
:1055B000BA4214D3B942DDD80497E4E70389A84A74
:1055C000934203D12322125C012A08D0BB4203D1AB
:1055D0002322125C012A03D000688842EED134E114
:1055E00005900028FBD09C48092102680902511847
:1055F000496B0027009162E0780100990390085AF6
:1056000001055AD01999002901D0884255D1059930
:105610007A008B69511C595C9A5C0902891889B21D
:105620000D91890749D002220599FBF7C1FD002899
:1056300004D01998002840D0652072E7002008A9FE
:10564000C8551C98C00718D0179880690078C00604
:1056500013D50D98C00710D00120C8550543009AF6
:10566000039880184088159A904206D91590009AA0
:105670000398105A0005000D14901C9880071CD543
:10568000179880690078800617D50D98800700E08C
:1056900083E012D50220CA5D05430243CA55009932
:1056A0000398401840881599884206D915900099AA
:1056B0000398085A0005000D14907F1CFFB266483D
:1056C0000068A030037BBB4296D8002D65D01898A7
:1056D000007A00065FD460480168092000020818BB
:1056E000416B00201BE042018E5A360515D0AE07F3
:1056F0000BD556183669B7070DD408AF3F5CBF0706
:1057000003D5360701D546200BE7EE0705D0521822
:10571000127CD20701D0432003E7401CC0B2834271
:10572000E1D81598C01E86B20498864200D9064674
:10573000A8070FD520220020149903F0F3F8129047
:1057400000287DD0F01C82B20021129804F056FA95
:10575000002811D1E80720D020220020149903F05E
:10576000E1F80B90002807D0F01C82B200210B98C2
:1057700004F044FA002810D08020FEF78FFA129827
:10578000002802D0002103F029F90B98002802D04C
:10579000002103F023F96420C3E6A1690A98069A60
:1057A0000818249902F097FE16988078012801D1F4
:1057B0000498E083002D46D0274B09201968000289
:1057C0000818416B002008AA0CE04301CF5A3F059E
:1057D00006D05F18BC463B69175C3B4367463B619C
:1057E000401CC0B21C4B1B68A0331B7B8342ECD80F
:1057F000A8070DD512980090F01C82B221461C31EA
:105800000220A369FCF7F4F80220129906F0E0FCEC
:10581000E80718D00B980090F61C2146B2B21C3154
:105820000120A369FCF7E4F81398002805D00B9831
:105830008021C07C08430B99C87401200B9900E0BB
:1058400005E006F0C5FC00206BE6422069E68020FA
:10585000FEF724FA9FE700006C0300202C070000ED
:1058600003280000FFB581B01F4606464625FCF719
:1058700053FB040020D020223146002003F052F8D0
:10588000060018D0014600972046039B029AFBF7BA
:10589000D5FD050004D00021304603F09FF80BE051
:1058A000012120694903084320610548A061304671
:1058B000FEF7D2F900E06425284605B0F0BD0000EF
:1058C000C558041010B56021FFF70CFD10BD10B5D0
:1058D0001C4613462246FFF7C5FF10BDFFB581B039
:1058E000154606464624FDF739FB070025D00298E9
:1058F000002803D07888C01EA84201D242241CE0B0
:1059000011483B21006849014018007D000602D57E
:10591000642005B0F0BDE81C81B2304602F0F4FF0F
:1059200006000CD0014600953846049B029AFBF70E
:105930006CFD04463046FEF78FF92046E9E7642403
:105940008020FEF79FF9F8E76C030020F0B584682B
:10595000083015E0258D8D4203D1146018600120B8
:10596000F0BD26461C602036256A06E0AF8B8F42CC
:1059700002D102201560F0BD2D68B542F6D1246831
:105980008442E7D10020F0BD10B50B6A203106E05B
:105990009C8B844202D10020136010BD1B688B4297
:1059A000F6D1412010BD000010B5094A094B12681C
:1059B000D2189368083206E01C8D844202D1002080
:1059C0000B6010BD1B689342F6D1412010BD000052
:1059D0006C0300202C070000F8B5204E0446356803
:1059E000AE3500F0C3F92070000A607000F0BEF917
:1059F000A070000AE07000F0B9F9C2B28004830E12
:105A00002271002163710846275C401C7918C0B2DE
:105A100089B20628F8D30029E3D02078FF280CD1DA
:105A20006078FF2809D1A078FF2806D1E078FF2808
:105A300003D1FF2A01D1FF2BD3D00622691D2046B6
:105A400002F045FD0028CCD031680622204678318E
:105A500002F03DFD0028C4D0F8BD00006C0300201A
:105A600002480068AE300088704700006C030020D8
:105A700010B5034906220968B33102F02CFD10BDB0
:105A80006C030020F7B5164600241CE0009811496D
:105A9000001940188108019889000019427805789A
:105AA000120215438278C0781204000602430948A6
:105AB000154340420F1829463846FDF7F1F838687B
:105AC000854204D1241DB442E0D30020FEBDFB205A
:105AD000FEBD00000000FCEFF0B50E4607460024B6
