:020000041004E6
:1000000000600020790B0410990A0410A30A041060
:10001000AA5555AA000000000000000000000000E2
:10002000000000000000000000000000AD0A041005
:100030000000000000000000B30A0410BF0A041012
:10004000C50A0410E30A04100000000000000000CC
:10005000DD0A0410D70A0410CB0A0410D10A0410D8
:100060000000000000000000000000000000000090
:1000700000000000E90A0410EF0A0410F50A041059
:1000800000000000FB0A0410010B0410070B041011
:100090000D0B0410130B0410190B04101F0B04108C
:1000A00010B503680124A3430360C1604260016886
:1000B00001220A43026010BD08206D4908806D4886
:1000C0006D4908608020C0056C49C1626C490163BC
:1000D000C1686C4A0A40C260416880220A4342609B
:1000E000016880229143016067480168674A0A40BD
:1000F000872111430160416806220A434260644837
:100100004169644A1140644B0B4343616349C161D7
:1001100003681A40624B1343036081600168012247
:100120000A4302605F48017805220A430270704763
:100130001CB508204E4908805B490191410301AB81
:100140009BB20B43594A136014680C40FCD1584CC5
:100150000194136013680B40FCD15B1C554C009458
:100160006C46A4B20C43146014680C40FCD1009C93
:10017000240C052C02D0DCB2642CEEDB4E493E4A46
:1001800011604E494A6A4E4B13404E4A1A434A6226
:100190000A684D4B13400B604C4908812C200873B2
:1001A000087C602202430A740878702202430A70B5
:1001B000087EC72202400A764869012202434A614A
:1001C00043480168334A0A404249114301604249A9
:1001D00081604248017802220A43027013BDFFB5D4
:1001E00004000D0010003E4909683E4A914239D191
:1001F00001008207920F01D0091D891A3A4A002393
:10020000D36000266B460394019500E0361D8E42B4
:100210002AD20024019D3719874201D2EF5D00E008
:10022000FF271F55641C042CF5DB01953F24146146
:10023000039CA519AC03240C94611F785C782402FC
:100240003C439F783F042743DC7824063C431464F6
:10025000332717601769FF07FCD52D680295029DAB
:10026000A542D3D0012000E0002004B0F0BD000082
:100270000400104073C001002000904004440000BE
:100280001041000072F7FFFF0000404020009FFF78
:10029000580000A00F80FFFF9010000008004040B1
:1002A000A020000024004040023A44000C00004816
:1002B00002341B00824300006BC001000C000040B0
:1002C000F00FFFFF01100000FFF6FFFF1C003040A1
:1002D0001C0000A09020000000003040480030408A
:1002E00014000020CCBCECFC00001040F2B5FFB0C4
:1002F00095B000216A4611701172117351815173CA
:1003000007910F9101215172049194A909780D91DF
:1003100092490D9A895C0C9152A90C9A8918019105
:100320000421019A1170FF21019A51700321019A51
:1003300091700121019AD1700021019A11710199E6
:100340004871062005900120694608728448854955
:1003500041180B9184494018069052A80A9010A8A1
:1003600009909DE2072072E294A80078002803D14A
:100370000898008B9028FBD1BFF34F8FBC48BD4934
:100380000860BFF34F8FFEE7D1680179C907FBD53D
:1003900011460A78FD2313400B70FF21016043E0F2
:1003A0004A0713681B053CD56B465B7A002B38D196
:1003B00001236C466372049B042B32DB1368802498
:1003C000A3431360BF4A526884225200BD4B5B684E
:1003D0009BB2D21A062A0CDB10AA13780A2B03D17F
:1003E00001226B461A7004E00B2B02D100226B46EF
:1003F0001A72012204926A46127A002A52D0049A92
:10040000012A4FD152AA0823137001235370059B70
:100410009370059B1B12D370AB4A1378194311706C
:1004200029E0049A032AE6D104A8A8490A680260D0
:10043000842252000999A348FFF732FE042204A93E
:10044000A348FFF72DFE8020C005016880220A43E3
:100450000260842040009B49496889B2401A042800
:10046000F7DD8020C00501688022914301600720EC
:1004700004901FE0D1680179C907FBD511460A78BD
:10048000FD2313400B70FF21016084225200099963
:100490008C48FFF705FE059A121D0A998C48FFF754
:1004A000FFFDD0E70498052804D1D2E76B465A73C4
:1004B0000F910E9068460078012802D16846007BB3
:1004C000002800D0C7E110A882490D9A895C441821
:1004D00052AE0420019A10700E21019A51700199B8
:1004E000887001200199C87020780199087160789E
:1004F00001994871002001998871012069460872AC
:100500006078FC2800D08BE1A07804280FDBE0782D
:10051000009021790902014300910846617909049C
:10052000014300910846A179090601430091207812
:1005300021380928E6D802A14000095A8F4400BF9B
:100540001400D200DA00EE000601380198013A02E8
:1005500072021C010120694608736DE1920B0410C0
:1005600000200000140004100000041094A800787B
:1005700000289FD16846427B0F990E9800E0012227
:10058000089B9B8FDB0691D5089B1B88DBB2140070
:1005900002D100246E4674816C466489661C6F46E5
:1005A0007E8110AF3B55140005D1012BE7D0FF2B06
:1005B000E6D10322E4E7012A01D10222E0E7022A80
:1005C00001D10622DCE7032A01D10422D8E7042A5C
:1005D00002D118000522D3E7052A06D119024018D6
:1005E00080B20021002806D10EE0062A05D11800AD
:1005F0000021002808D00B22C2E70B2AC0D1491CD9
:100600008BB284B2A342BBD3002201236C46237079
:10061000B6E701988570062026E0062001998870CB
:1006200040200199C87100200199087204E100205E
:100630000090042269460B98FFF7D1FD00283ED0B8
:100640004A20B072F8E0AC480090042269460B984A
:10065000FFF7C5FD002832D04A20EBE001988570F5
:10066000A64800680006000F0199C871E4E000BFC9
:100670000400FA050CED00E0FC2001998871009857
:1006800006998842F2D38005F0D1009908009C4A6F
:1006900012689C4B9A42E9D13F229B4B1A61890315
:1006A000090C9961112119601969C907FCD5590D07
:1006B0000023DB4302689A42D8D1001D491E58D05E
:1006C000F8E700BF580000A0800040408C0B0410E9
:1006D0006C0000A0900B0410FB2001998871009819
:1006E00006998842C2D3E079217A0E020643032795
:1006F0000098032505400ED0401B0090761900207D
:1007000007E000990918097822000932431BD154E7
:10071000401CA842F5DB3740032086430ED0320050
:1007200020000930694241180098FFF758FD002861
:100730009CD101998871009880190090002F7BD07E
:100740000020874206D221000931721B1218009B3B
:100750001B788B54401C0428F3DB089504222846A0
:1007600041426018811909310098FFF738FD0028CF
:1007700001D100205EE0FB205CE0009806998842F1
:1007800015D3E179207A000208430021F31D08E027
:10079000009A12780C9C64181A55009A521C009208
:1007A000491C8142F4D3001D01998870E1E7FA20C9
:1007B00040E0FA2001998871082001998870FF2093
:1007C000019AD071019A1072019A5072019988723F
:1007D0000098069988422FD3002001998871E0790A
:1007E000C10200230022494D0CE0009880180068E7
:1007F0005840030020205C00DB0F6B436340401E29
:10080000F9D1121D8A42F0D30199CB71180A0199CE
:100810000872180C01994872180E019988720BE041
:100820000F200199487001200199087120780199E1
:1008300048716078019988716846007A012807D16B
:1008400001988078042800DC8CE5C01C80B20590FB
:1008500000206946087094A80078002820D16846D6
:10086000007A00280CD00798002809D101200790B1
:10087000059A0A992648FFF713FC0020694608727A
:100880002020A02109060968014009D0A0210906FD
:100890004860002007901E480168012291430160D2
:1008A0001C4808906846007A002807D16846007BFB
:1008B000002803D00798002800D155E5052594A805
:1008C0000078012800D051E6134802214A07126837
:1008D000120500D564E56A46527A002A00D15FE528
:1008E00000226B465A72049A012A00D099E50B4AFD
:1008F00013781943117048E545554C421C0090404F
:1009000014000020CCBCECFC00001040B71DC1045A
:100910001C0000A000003040080040408000404023
:1009200010B50F22474B1C682409144004701B6843
:100930001A400A700178002901D10121017010BD0F
:10094000F8B584B002A800BF49A10CC90CC03E484C
:100950003E4944180194091D45183D480078002877
:100960000BD13C480088052807DD280000F088F8F6
:10097000216881F308888047FEE700A9891C00A848
:10098000401CFFF7CDFF6846407800016946897832
:100990000143122904DB02A8417904220A4342716F
:1009A0002D488021490202AA92B20A4302600268DD
:1009B0000A40FCD129482A4908600020694608708D
:1009C0008020C0050978032906D101688904CA0F6F
:1009D000012151406A46117027A1224A224B1E680C
:1009E000224FBE420DD11A60684600788000085838
:1009F0008047684601780220FFF778FC002005B0A8
:100A0000F0BD6369934208D06846007880000858BA
:100A10008047684601780320EEE70068000708D5A4
:100A200068460078800008588047684601780420AE
:100A3000E2E7280000F024F80199096881F30888AA
:100A40008047FEE71C0090400020000000000410DA
:100A500008009040080010480C000048CCBCECFC9A
:100A60001400002045554C423000002001010101D6
:100A7000023B4802350B000031010410B90004109C
:100A8000C3788278417800781B021A430902120465
:100A900008431043704700002248FFF7F1FF8047EA
:100AA000FEE72148FFF7ECFF8047FEE780B51F48CF
:100AB00001E080B51E48FFF7E3FF804701BD80B528
:100AC0001C48F8E780B51C48F5E780B51B48F2E7FD
:100AD00080B51B48EFE780B51A48ECE780B51A48A7
:100AE000E9E780B51948E6E780B51948E3E780B53E
:100AF0001848E0E780B51848DDE780B51748DAE721
:100B000080B51748D7E780B51648D4E780B51648B2
:100B1000D1E780B51548CEE780B51548CBE780B55D
:100B20001448C8E7082004100C2004102C200410DE
:100B3000382004103C2004104020041058200410D9
:100B40005C20041054200410502004104420041091
:100B500074200410782004107C20041084200410D9
:100B6000882004108C20041090200410942004107D
:100B7000982004109C20041080B5002002490860D1
:100B800072B6FFF7DDFE01BD140000200801000071
:100B900001060004FFFFFFFFFFFFFFFFFFFFFFFF56
:100BA000FFFFFFFFFFFFFFFFFFFFFFFFFFFFFFFF55
:100BB000FFFFFFFFFFFFFFFFFFFFFFFFFFFFFFFF45
:100BC000FFFFFFFFFFFFFFFFFFFFFFFFFFFFFFFF35
:100BD000FFFFFFFFFFFFFFFFFFFFFFFFFFFFFFFF25
:020000041004E6
:102000000060002071F90410E5D90410D5A4041073
:10201000AA5555AA45554C4200000000000000009A
:10202000000000000000000000000000FD1A051084
:10203000000000000000000051F20410891D05108E
:10204000716B0410ADDA0410000000000000000005
:1020500031210510391A0510014304100D23051014
:102060000000000000000000000000000000000070
:1020700000000000FF220410E7A40410E5A40410EF
:10208000000000005BD504105DD504105FD504107E
:1020900061D5041091F9041009DB0410B94804104B
:1020A0000000000000000000000000000000000030
:1020B0000000000000000000000000000000000020
:1020C000EFF31482EFF309811C4880F31488BFF307
:1020D0006F8FF0B543464C4655465E466746F8B4AA
:1020E000174CEFF30883236006B4164C2068164C97
:1020F0002060164C2068164C2060164C2068164C48
:102100002060164C276800202060BFF34F8F30BF3F
:1021100027600B4C246884F3088882B003BCF8BCA9
:102120009846A146AA46B346BC46F0BC04BC80F320
:10213000098881F31488BFF36F8F104700000000F7
:102140000800002004ED00E0D402002024ED00E0AF
:10215000D802002000E200E0DC020020080020405D
:102160000448854600F08EF80048004779E60510DF
:10217000C046C0460060002030B50B460146002036
:102180002022012409E00D46D5409D4205D31D467D
:102190009540491B2546954040191546521E002D75
:1021A000F1DC30BD10B5441A0346944209D28318BD
:1021B000891803E0491E0C785B1E1C70521EF9D270
:1021C00010BD0C460443A40703D009E010C9121F38
:1021D00010C3042AFAD203E00C781C70491C5B1C63
:1021E000521EF9D210BDD2B201E00270401C491E4D
:1021F000FBD270470022F6E710B513460A460446A4
:102200001946FFF7F0FF204610BD30B50446002008
:10221000034600E05B1C934203D2E05CCD5C401BB4
:10222000F8D030BD0321001D401E037812021A436E
:10223000491EF9D510467047034610B508330722EA
:10224000040E090221435B1E1C7800022043521E2B
:10225000F6D510BD034603220870000A491C521E21
:10226000FAD51846704770B504460D46072310701E
:102270000E06000A3043090A521C5B1EF7D52046A1
:10228000294670BD064C0125064E05E0E36807CCE3
:102290002B430C3C98471034B442F7D3FFF764FF4C
:1022A000742C0610142D061070B58C180578401C7F
:1022B0006B075B0F01D10378401C2A1106D102780D
:1022C000401C03E006780E70401C491C5B1EF9D1CF
:1022D0002B0705D40023521E0DD40B70491CFAE7BE
:1022E0000378401CCB1A921C03E01D780D70491C2A
:1022F0005B1C521EF9D5A142D8D3002070BD704797
:10230000F0B50F46B5B01546002130AA0F23445C46
:102310005E1A491C94551029F9DB1022694630A831
:1023200000F012FB0026B400E019401CFFF77AFF12
:10233000395D000208430321891B89002CAC761CFF
:102340006050042EEFDB214610236A46084600F059
:10235000C5F900200326311A8900635C8200AB5462
:10236000635A52191B0A53706358401C1B0C93701C
:102370006158090ED1700428EDDB35B0F0BD70B5A1
:10238000BAB0054600200C4600902020694608722D
:1023900010200A9038901E46039201A800F084F99C
:1023A0002246294601A800F007F86A46314601A8EE
:1023B00000F044F93AB070BDF7B592B00F46040092
:1023C00004D0002F06D11498002803DD61204001BD
:1023D00015B0F0BD1498002804DB102804DA207929
:1023E000800601D49448F3E72079410701D481079E
:1023F00002D59148401CEBE740210843207120465C
:10240000143000250F90143001901EE00026B0001B
:1024100004904019C0190390FFF704FF00BA010AA5
:1024200003980902C07807AA01430498761C001992
:10243000406941400498042E1150E8DB636A07A804
:10244000019A0F9900F07CFA059D284610300590FE
:1024500014998842DADB2079800620D400291EDD19
:102460000026B00004904019C0190390FFF7DAFE6F
:1024700000BA010A03980902C07807AA0143049828
:10248000761C0019406941400498042E1150E8DB85
:10249000636A07A8019A0F9900F052FACAE0002077
:1024A0000B900C900D900E900BA9636A0846019A50
:1024B00000F046FA0B988721C00F48430B990C9AFD
:1024C0004900D20F11430B910C990D9A4900D20F7C
:1024D00011430C910D990E9A4900D20F11430D91A1
:1024E0000E99149A49004140284610300E919042AE
:1024F0001CD10026B00002904019C0190490FFF7CB
:1025000091FE00BA010A04980902C0780BAB01439E
:102510000298761C001942690298185842405140AE
:10252000029807AA1150042EE4DB79E00B98872269
:10253000C00F50430B9A0C9B5200DB0F1A430B92B7
:102540000C9A0D9B5200DB0F1A430C920D9ACB0F85
:1025500052001A430D924A00424014980E92401BBA
:102560000390C017820F0398002610188010029065
:1025700019E0B00010904019C0190490FFF752FE06
:1025800000BA010A04980902C0780BAB0143109805
:10259000001942691098185842405140109807AAF3
:1025A00011500298761CB042E3DCB00001190BAA6E
:1025B00049691258514007AA1150039B00211B1A68
:1025C00042199C4696460BE072465218BA5CCD0002
:1025D00018235B1B9A4007AB1D586A401A50491CD0
:1025E0008C45F1DC002909D0CD00182107AA4D1B2C
:1025F00013588021A9404B40135005E007A90A5801
:102600000123DB075A400A5007A90BAA05E0B000D6
:1026100003195B6915586B400B50761C042EF6DBD2
:10262000636A07A8019A0F9900F08AF920790421BA
:10263000084320710020CBE61D0C0000F8B51646BB
:102640000F46040009D0002E07D025468035E86DDE
:10265000401E102804D31348F8BD61204001F8BD86
:102660002079400604D4002211462046FFF7A4FE3C
:102670002079022108432071002018210CE0C217A4
:10268000920F121892089200121983075269DB0EFA
:10269000CB1ADA403A54401CEA6D8242EFDC00204B
:1026A0003260F8BD1F0C000010B5040007D00223F3
:1026B0000022A16800F00CFA010003D00CE06120B8
:1026C000400110BD102020610020024683001B192C
:1026D000401C5A610428F9DB084610BDFFB5D90833
:1026E000490083B0891D02910368116854684B400A
:1026F0004168956861408468C0686C40A446D468AD
:102700001E0E60408B4CC5B2A65D655D3606354336
:1027100067460E023F04360E3F0EA65DE75D3604A7
:102720003F023E433543AE460F0EDDB2E75D665DC8
:102730003F063E4365462F0205043F0E2D0EE75D22
:10274000655D3F042D022F433E43CDB20096665D8A
:1027500065462F0EE75D1D043F063E4307023F0E10
:102760002D0EE75D655D3F042D022F433E4301962C
:102770006546EDB2070E665DE75D0D043F063E431C
:102780001F023F0EE75D2D0E645D3F0424022743C8
:10279000029C3E43641E10320294002C63DD664CA2
:1027A00070462040430070466449C00908401B2120
:1027B00048434340704658401821C8414340704642
:1027C0001021C841434070460821C8414340106869
:1027D0005A4D43400098594F204041000098C0098D
:1027E00028401B2568434140009818254840E8418F
:1027F000414000981025E841414000980825E841F3
:1028000041405068019D41400198ED0920403D4004
:1028100040001B277D436840019F05467D401827E7
:10282000FD416840019D1027FD416840019D08273A
:10283000FD416840956868408446304620403F4DE1
:10284000F4092C4040001B256C4360400446744052
:102850001825EC41604010243546E54108246840C5
:10286000E64170404BE7334CC5B2665D1D0E645DBA
:10287000240626430C02250E2E4C645D65462D046D
:102880002F0E2C4D2404ED5D2D022C432643294CA4
:102890000096DDB2655D0E0EA45D240625436446F8
:1028A0002402260E234CA45D0604370E214E240478
:1028B000F65D360234432543AE461E4CCDB2645D10
:1028C00065461C4E2F0EF55D2D062C4305022F0E7E
:1028D000F55D1F042E043D0E164F7F5D65463F02D9
:1028E0003E433443EEB2134DAF5D050E1148405DDB
:1028F000000607431802030E0E48C05C09040B0EC5
:102900000C490004C95C9368090208430743106836
:10291000009E63405168049C7040D26820607546F8
:1029200004986940416004987A4083600498C260CA
:1029300007B0F0BD4C2B06107F7F7F7F01010101A6
:1029400000B5FFF7CBFE00BDF7B50298860800245E
:102950000DE00098A7003D182846FFF763FC00BA79
:10296000000AE978000208430199641CC851B44286
:10297000EFDB0199029A084600F002F8FEBD000064
:10298000F0B59208002303E09C0005590D515B1C33
:102990009342F9DB4D4FF81FF938042A48D0062A34
:1029A0006DD0082A43D10023CA6915022D0E140EDA
:1029B000455D045D2D062C4315042D0ED2B2455DF8
:1029C000825C2D04120215432C439D007D590A6838
:1029D0006A40544001225B1C0C62940065180C593B
:1029E000EE69521C66402E62042AF6DBCA6A150E96
:1029F000D4B2455D045D2D062C4315022D0E120444
:102A0000455D120E825C2D04120215430A692C43A7
:102A1000544005220C63940065180C59EE69521C51
:102A200066402E62082AF6DB2031072BBCDDF0BDA4
:102A30000022CB681D022D0E1C0E455D045D2D0687
:102A40002C431D042D0EDBB2455DC35C2D041B021F
:102A50001D432C4395007D590B686B405C4001235E
:102A6000521C0C619C0065180C59EE685B1C66409A
:102A70002E61042BF6DB1031092ADADDF0BD0022CD
:102A8000CB681D022D0E1C0E455D045D2D062C43EA
:102A90001D042D0EDBB2455DC35C2D041B021D43DE
:102AA0002C4395007D590B686B405C400123521C00
:102AB0000C619C0065180C59EE685B1C66402E6129
:102AC000042BF6DB1831092ADADDF0BD4C2C061098
:102AD000F8B59E468C46002807D0002905D0590736
:102AE0008C0F002A04D1012C02D061204001F8BDD6
:102AF000416A102903D0182901D0202905D1012CC1
:102B000005D00169491E102901D31E48F8BDC260D5
:102B10000179F92319400171012C20D000210B46C5
:102B20008D002D18491C6B610429F9DB0021182741
:102B300012E0CB179B0F5B189B089B001D182B46C0
:102B4000143300938B07565CDB0EFB1A6D699E40B5
:102B50003543009B491C1D6003698B42E9DC017908
:102B6000C9070CD1614681607146C90701D0032CA9
:102B700005D10146426A28316046FFF7E5FE002094
:102B8000F8BD00001F0C00007FB5054698680122C3
:102B900002739A681C4651739868022202A90E308B
:102BA0000AF089FFA16805200D74E0807FBD000058
:102BB00010B508480C460068074902224118A06871
:102BC0005C310273A0680D300AF075FF0320E080CD
:102BD00010BD0000A80300202C07000070B50646B9
:102BE00008881D460C46001D81B21346022230465D
:102BF0000BF038FA21882B46891C2180091D89B2E7
:102C0000022230460BF02EFA2088801C208070BDF6
:102C1000FEB500240E462746056845E02868029068
:102C2000A968022230460D310AF045FF3088B842CB
:102C300009D087B2384605F043F9014601AA384663
:102C400006F0D4FF019CA968022268460F310AF001
:102C500032FFE888401F81B22220005D002806D0A4
:102C600001280BD0002811D0012814D01BE0E08BE4
:102C70006A461288401E904206D307E0208C6A46BE
:102C80001288401E904206D20720FEBD684600888A
:102C90000818E18B03E0684600880818218C8842F8
:102CA00001D90D20FEBD029D002DB7D1002030803E
:102CB000FEBDFFB5C8880025401E83B00E4687B212
:102CC000012427E0B0680222083001196846091D76
:102CD0000AF0F1FE6846008805F0F2F801001DD008
:102CE00068460A8D0088824212D001AA06F07EFF53
:102CF00000280DD101992620405C400708D5069890
:102D00006A00101802221C310AF0D5FE6D1CADB20B
:102D1000A41CA4B2BC42D5D30C98058007B0F0BD6A
:102D2000FFB5074683B0002000900D9805F0C8F865
:102D3000069905460C310191002826D00837BD427E
:102D400023D0288D0E9988421FD80D99884213D31D
:102D50000E99884210D8294602222A3101980AF099
:102D6000AAFE10220C9906980AF0A1FE002809D0AC
:102D7000298D0E98814208D02E462C6A2036B44206
:102D80003FD140E005980021018007B0F0BDA18B44
:102D90000D98814234D30E98814234D82046203099
:102DA0000290C078012808D02046083010220C99E3
:102DB0000AF07DFE002808D022E0214602220831D8
:102DC00001980AF078FE0698F0E7029880794007AB
:102DD00016D50098002801D1E08B0090E18B81424C
:102DE00011D1059802220088410004980818214654
:102DF0001C310AF060FE059805990088401C088087
:102E00002468B442C3D12D6899E700000648002128
:102E10000268492040011018017241720321817239
:102E2000C172002070470000A803002070B50D4D4E
:102E3000044601232868D902401890261A464069A2
:102E4000314610F051FC010003D030464C6010F0C8
:102E500037FC4920296840010918087A401C08728B
:102E600070BD0000A803002010B504460020208299
:102E7000A074A168A16161612060204609F0B4FAE4
:102E8000452801D0412010BDA088032116F0C8FAC2
:102E9000044618F0B3FF002813D072B60A48012286
:102EA00001680920000209184878A24010434870C0
:102EB00062B600201CF066FA002802D0002014F050
:102EC00075FE002010BD0000A803002070B5C17C75
:102ED0000E4D4906490EC174044601232868D902E3
:102EE0004018902600224069314610F0FDFB010099
:102EF00003D030464C6010F0E3FB492029684001C4
:102F00000918487A401C487270BD0000A8030020D0
:102F100002490978024A890051580847E402002012
:102F20001029061010B5154CA078022801D00128F0
:102F300004D1134816F024FA002813D12078002871
:102F400010D1A078042806D0072804D0022804D085
:102F5000012802D006E0012010BD094816F010FA41
:102F6000002801D0002010BD0220A0704007016998
:102F7000C21411430161032010BD0000440300206E
:102F8000880D002010B50B4C6078002804D10A4849
:102F900016F0F6F9002808D10748103016F0F0F9BD
:102FA000002802D12078002801D0002010BD012087
:102FB00010BD000044030020880D002010B5144C03
:102FC0006078002804D1134816F0DAF9002808D1F7
:102FD0001048103016F0D4F9002802D120780028CB
:102FE00001D0002010BD10200FF08AF8012805D173
:102FF0004403204603F030FE012801D0012010BD1B
:10300000012189070A6922430A61032010BD0000DB
:1030100044030020880D0020F8B516460D460746EB
:1030200000240EF011FA002806D032462946384610
:1030300001F0B6FB044604E020356879002802D090
:103040000E242046F8BD2879C10701D1012E09D0F0
:10305000810701D4022E03D04007F2D4042EF0D110
:103060000324EEE70224ECE788681E2202730120A5
:10307000C8800020704710B58B6818241C738B68BB
:103080005A730222CA80212201699201114301610F
:1030900019218173002010BDFFB581B00646684636
:1030A00080890C9F0C46002837D06946098A8842DF
:1030B00033D87088C01FB8422FD3FD1DAAB200219B
:1030C00020460CF0D4F8002802D0642005B0F0BDF2
:1030D000A06806210173A068022203A90D300AF03E
:1030E000EAFCA068022204A90F300AF0E4FCA06800
:1030F00002220AA911300AF0DEFC3A460B212046D2
:103100000B9B0AF0AFFFE58021213069890108435C
:1031100030610720B0730020D8E74220D6E77FB5A2
:103120000546684600890C4600281ED069468989F4
:1031300088421AD8A06804210173A068022202A95B
:103140000D300AF0B8FCA068022203A90F300AF083
:10315000B2FC0520E080212128698901084328610B
:103160000520A873002004B070BD4220FBE7FFB526
:1031700081B00646684680890B9F0D4600282DD0F9
:103180007088401FB84229D37C1DA2B20021284676
:103190000CF06DF8002802D0642005B0F0BDA868DE
:1031A00016210173A868022203A90D300AF083FCDE
:1031B000A868022204A90F300AF07DFC3A460921D2
:1031C00028460A9B0AF04EFFEC80212130698901D4
:1031D000084330611720B0730020DEE74220DCE7AF
:1031E0007FB50546684600890C4600281AD0A068BD
:1031F0000C210173A068022202A90D300AF05BFCC9
:10320000A068022203A90F300AF055FC0520E080D7
:10321000212128698901084328610D20A873002015
:1032200004B070BD4220FBE77FB5054668460089C3
:103230000C9E0C46002816D069468989884212D80F
:10324000A06810210173A068022202A90D300AF0C3
:1032500032FCA068022203A90F300AF02CFC012ED8
:1032600004D0022E0AD0422004B070BDA068022211
:1032700008A911300AF01FFC072006E008AB102255
:10328000092120460AF0EEFE1520E0802121286960
:103290008901084328611120A8730020E4E77FB565
:1032A0000546684600890C9E0C46002816D06946E3
:1032B0008989884212D8A06808210173A068022277
:1032C00002A90D300AF0F7FBA068022203A90F3013
:1032D0000AF0F1FB012E04D0022E0AD0422004B0E5
:1032E00070BDA068022208A911300AF0E4FB072093
:1032F00006E008AB1022092120460AF0B3FE152093
:10330000E080212128698901084328610920A873E8
:103310000020E4E7FFB507465804040C788881B024
:10332000401E0E46A0421FD3042C1DD3651CAAB21A
:10333000002130460BF09BFF002802D0642005B02E
:10334000F0BDB0680E210173224605213046039B73
:103350000AF088FEF58021203969800101430F20A1
:103360003961B8730020EAE74220E8E737B505463F
:10337000684600890C46002813D0A0680A21017312
:10338000A068022202A90D300AF095FB0320E0801C
:10339000212128698901084328610B20A873002096
:1033A0003EBD42203EBDFFB5064681B00C46886852
:1033B0000A9DD2210173A0681F46022203A90D3085
:1033C0000AF079FB3B462A46072120460AF04AFECE
:1033D000ED1CE580308821460005000D0EF046FA10
:1033E000002005B0F0BDFFB581B08C680A9E522068
:1033F000207388680D461F46022203A90D300AF08B
:103400005AFB3B463246072128460AF02BFEF61CA3
:10341000EE80002005B0F0BDFFB581B006466846DD
:1034200080890A9F0D46002827D07088C01EB842A8
:1034300023D3FC1CA2B2002128460BF018FF002861
:1034400002D0642005B0F0BDA86812210173A868FD
:10345000022203A90D300AF02EFB3A460721284626
:10346000049B0AF0FFFDEC802121306989010843AB
:1034700030611320B0730020E4E74220E2E700004F
:10348000034900280A7801D00020087010467047D0
:10349000AC03002070B5124C0E462178012500299E
:1034A0001BD1014601200AF0F1FB60703146022079
:1034B0000AF0ECFB6178401860703146203103203F
:1034C0000AF0E4FB617840180006000E607004D139
:1034D0000AF054FC022020700025284670BD000030
:1034E000AC03002070B5184D90B02878002802D0A9
:1034F000012010B070BD6E46002406F0E2FFA1006E
:10350000641C7050082CF8DB694601200AF0BEFBF1
:103510000128F1D020220D496846FEF743FE0B49F1
:103520002022203108A8FEF73DFE694602200AF05D
:10353000ADFB08A903200AF0A9FB0AF01FFC01203B
:1035400028700020D5E70000AC030020DC2A06101C
:103550007EB5044616460D46684606F04BFC6846A6
:1035600003782370407828706846807830707EBD7C
:1035700070B500210C4A03E0535C491C5918C9B2CC
:10358000535C002BF8D1CE1C02243525202E04D20A
:10359000545451184D708870CB7004490C704D70A4
:1035A0008870CB7070BD0000140400201C00002047
:1035B00070B50EF06DFC1D4C01252068ED0241191F
:1035C0000979002909D1A0300079C00727D016F069
:1035D00027FA01F041F901F0B7FD00F0C7FD2068BE
:1035E000014640310A78C9798A4317D13E21095CE6
:1035F000002913D10E490A8812070FD50922D206D5
:103600001269497A836A4019006FC900801A000262
:1036100059180012814201DA14F01CFA70BD02F050
:1036200005FE04F009FE0DF0F9FBD2E7A803002027
:10363000C000002004480178002903D00021417017
:1036400001207047002070474404002010B5044C4E
:103650002478012C01D0002010BD0BF0D5FD10BD49
:1036600054040020054A002801D0938A03800029D1
:1036700001D0106908609068704700005404002071
:1036800010B5094B1C78002C01D00C2010BD002A6D
:1036900008D002221A705880998000209860D86063
:1036A000186110BD0122F5E7540400200448017898
:1036B000002903D000210170084670470C20704794
:1036C00054040020FFB5154C07462078C3B01D46B2
:1036D000002802D00C2047B0F0BDF82104A8FEF766
:1036E00089FD0026E66004A9E8B2049603910290E1
:1036F0000123019600953846459A449912F0CEFD73
:103700000028E8D167804498A0804598E080258112
:103710000120E060207066700020DCE74404002097
:103720000148C06870470000440400200448017844
:10373000002903D000210170084670470C20704713
:1037400044040020F7B5124C07462078BEB0154659
:10375000002802D00C2041B0F0BDF8216846FEF7E9
:1037600049FD0026E660EAB26B46009638463F996E
:1037700012F06EFF0028EED167803F98E08025812F
:103780000120E0600220207066700020E3E7000066
:103790004404002030B5144DBFB06878002818D11B
:1037A0002878012813D0022813D16C46F82120462E
:1037B000FEF720FDE86800902A7AE98868886B4661
:1037C00012F046FF002806D0642808D009E00EF069
:1037D000BFF93FB030BD2068401C2060ECE70120FD
:1037E00068702068E860F4E74404002010B5044CD9
:1037F0002478022C01D0002010BD0BF005FD10BD77
:1038000054040020F3B5FFB090B0044601A806F0C0
:10381000F1FAFE48007A0590FD4880880890FD483E
:1038200000685290FC4E002081008B191B68401CE0
:1038300053AAC0B253500828F6D3F848006A5190F2
:10384000F748006A50900120800701684F91416855
:103850004E9181684D91C1684C9101694B914169CC
:103860004A9181694991C1690491C16A4891016B8A
:103870004791406B4590EB48008B4490E9482030DD
:1038800040684690E848C1684391017F4291E6490B
:10389000203189884191E4492031097A4091E249F7
:1038A0002031097B3F91006B3E90DF482030007D46
:1038B0003D90DD482030008B3C90DB484030017A61
:1038C0003B91017C3A91017D3991017E3891007FD5
:1038D0003790D548603000783690D44801683591EB
:1038E00041683491017C3391017D3291CF4920317F
:1038F0000A7931920A893092C06A2F90088A002290
:103900002E90CB4811050818056891007BAB5D50DF
:1039100045687DAB5D50858B7FAB5D50058C81AB81
:103920005D50858C83AB5D50058D85AB5D50C56A60
:1039300087AB5D504C231D5A89AB5D50056D8BAB39
:103940005D50836D521C8DA8D2B24350022AD8D349
:103950000B20000700682D90B64841682A918168C5
:103960002991018A2891818A279181692691017F75
:103970002591B0492031098A2491416B2391816BB3
:103980002291C06B2190AB48403001682091416882
:103990001F9180681E90A84881881D9101891C9103
:1039A000017C1B91017D1A91018B1991007F189068
:1039B000A2488188179101891691017C1591017D9A
:1039C0001491018B1391007F12909D4801692C91F5
:1039D00040692B909B4801681191007A10909A4899
:1039E000006800282ED00020009000201421974A63
:1039F000414389184D68820063AB9D500D685BABF5
:103A00009D508D686BAB9D50CB68401C73A9C0B2B4
:103A10008B500828EAD38120C00541680E91017BB4
:103A20000D91418B0B91018B0C91416A0A91816A36
:103A3000099100880F900320800780680790032C6D
:103A400002D008E08248CFE70920C006416803227F
:103A50001207114341607F49002009687E4D5039AB
:103A600006917E4F296004C98300401CFA50C0B201
:103A700029601428F7D3654908790978012292074B
:103A80001268520A4A4090437ED169464879897942
:103A900000010843122804D37149002008600CF08B
:103AA00013FF0920C00641686E48016001200EF036
:103AB00081F9FEF705FB00200EF07CF96A480078DA
:103AC00000287DD0694801210183002181810161A5
:103AD00008460699296081007A58296804C1401C6B
:103AE000C0B229601428F6D349490898888049490A
:103AF00052980860002053AA8100535889190B601E
:103B0000401CC0B20828F7D3444951980862444980
:103B1000509808628B024F9818604E9858604D98E4
:103B200098604C98D860499898614A9858614B9829
:103B30001861049898620498D8614898D8624798A8
:103B4000186345985863374944980883354846991F
:103B50002030416034494398C86042980877324821
:103B6000419A20308280409A02723F9A02733E9AB4
:103B70000A633D9901753C9901832B483B9940307C
:103B800001723A99017400E048E139990175389958
:103B900001763799017724493698603108702348B7
:103BA00035990160349941603399017432990175F6
:103BB0001E49319A20310A71309A0A812F9A00E009
:103BC000DBE0C2622E98088200227BAD1848110506
:103BD000081891006E5806607DAE765846607FAE3C
:103BE000765A868381AE765A068483AE765A868468
:103BF00085AE765A068587AE7658C66289AE765A05
:103C00004C273E528BAE7658066531E000002040CE
:103C10000000104000E100E000E400E000ED00E002
:103C20000000904020000040000030400000404074
:103C30000000A0400000F0400000D0400000E04044
:103C400000E000E000007040000C7040080000A0A0
:103C500051E5CC1A00200410CC020020C40300203F
:103C600014000020180000200C0000200000104864
:103C70008DAE71588165521CD2B2022AA6D30B2098
:103C800000072D99016097482B99416100218161BE
:103C90002C99016194482A99416029998160289959
:103CA000018227998182269981612599017723993B
:103CB0004163229981632199C1638B4820994030E7
:103CC00001601F9941601E998160874924982031C5
:103CD000088286481D9981801C9901811B99017475
:103CE0001A990175824A199911400183189901772F
:103CF000804817998180169901811599017414994A
:103D00000175139911400183129901777A4811992D
:103D1000016010990172794900980860784F00207D
:103D200063AD14214143C9198200AE584E605BAEA9
:103D3000B6580E606BAEB6588E6073AEB258CA609D
:103D4000401CC0B20828ECD38120C0050E99416008
:103D50000D9901730B9941830C9901830A99416272
:103D6000099981620F99018003218907079888606A
:103D70006448007A002854D07DE0634B1868400600
:103D800037D419686148624A0068556A4140614EFB
:103D90003668B5421AD11B68834203D05E4800687A
:103DA000084213D15D4801210068090703465568A0
:103DB0000B400D40AB4209D18910526808400A40BF
:103DC000904216D047480069800712D50921C906DC
:103DD0000869534B0209D01C984204D80A69120999
:103DE0008242FBD305E04F4810180A69120982424B
:103DF000FBD169464879897900010843122805D327
:103E000001200CF061FD494847490160032C05D1B0
:103E10000920C006426821078A4342607FB012B081
:103E2000F0BD9098002826D041480289092191438D
:103E300002D1D96989051BD402891121914302D18C
:103E4000D969490514D402892121914302D1D96944
:103E500009050DD402894121914302D1D969C904D0
:103E600006D401898120884305D1D869800402D510
:103E7000254801210160032C05D10920C0064268B4
:103E800021078A4342602B4905980872032C26D0EB
:103E90000021002000F060FF0598C007BED00DF0A3
:103EA0001BFF694608800888400514D42248008812
:103EB000000710D50921C9060869204A1268101A9E
:103EC0000002001200D54042202804DC08692D3091
:103ED0000A698242FCD91A49152008709EE701211F
:103EE000D7E7000000E000E00000F0400000D04014
:103EF000BFFF00000000E04000007040000C704078
:103F0000080000A00000904000E200E0DC02002079
:103F100000ED00E0D802002000E100E0D402002023
:103F2000FFFF0F000400F0FFCCBCECFC14000020ED
:103F30000000104800002040C000002018000020B1
:103F40000000C040F7B50746EFF3108472B60020BA
:103F50001849087000F06CF90646384605F0D6FF9F
:103F600005463846FEF7D4FFB84200D338468542AE
:103F700000D22846864200D230460F4A810053586C
:103F80005B1C5350002809D001280BD00B49029A22
:103F90000A70019A0A710199FFF734FC84F31088C2
:103FA0000020FEBD0648017A0022027230BF017275
:103FB000F4E700000C000020B403002000002040C3
:103FC0000000704010B5837F0122002492024168F6
:103FD000082B03D94224914202D310E0914201D22E
:103FE00042240CE001463422064809F064FD00F04A
:103FF0007FF8002801DA482401E00EF0A9FB2046F2
:1040000010BD0000C80D00203EB5174D15482968A9
:10401000827F0846A0310A7300246030047644761B
:104020008476E122C2768022027702224277302013
:1040300008704C7002AA01A96846FFF789FA684621
:104040000078A22201016846007A891C000201431F
:10405000684600790003014328681152A0300471BA
:104060003EBD0000C80D0020A803002070B50DF073
:10407000F5FE07F0CFFD09F067FFFEF7C7FE06F07B
:104080007BFC184C18492068184D401881100920F5
:104090002A68000210184167616889088167A16871
:1040A0008908C1670CF0F6FD0F202968C001228B3A
:1040B00008188281628BC281A28BC280628C0281CD
:1040C00022462032127882723B2252010020891847
:1040D000087501F0EDFE05F0C5FF14F0D3F801F00E
:1040E000B9F870BDC80D00200000FCEFA803002047
:1040F00070B50025ED4315F021F801282FD00023DD
:1041000018490322888BFF24401E10438A7F5134B4
:1041100062438218088B282460431218488B30248D
:10412000604312180846203040782C246043101851
:104130000D4A181884184869A0420ED11320C001F6
:1041400084420AD90D6914F0F9FFC1B2284600F083
:10415000C1FE00F0F1FF401B251A284670BDFF2369
:10416000B533CDE7C80D002051190000F8B52C4F2C
:104170003C68206E5C34401C002814D0002529487F
:104180000023C07B00283ED00926F6062648002DD5
:104190001CD000210A460B464169521C994204D1A9
:1041A000002902D004E00125E9E7204B9A42F2D32E
:1041B0002160006960603069A1680002090E000A90
:1041C00009060143A16000F08DF81DE03169A26885
:1041D0000902090A150E08D0018BC90712D04169DE
:1041E000216000696060E37210E0881A00027D239C
:1041F00000121B03984205DD100E00060843A06064
:1042000000F070F8F8BD6360002DFBD003CC1BF00C
:104210005FF8FA201AF020FA39688862F8BD0000C9
:10422000A8030020E80D00200000104888130000BB
:10423000F8B5294D002029680A4640321378D27912
:10424000934347D14A6E120E44D13E22525C002A5B
:1042500040D1431E21488D6A467A1A460024F60052
:10426000AD190926F606376900887D190707012070
:10427000002F06DAC302CB181C6F631B1B021B1234
:1042800028D407273F02C919496ACF0103D54A1B21
:10429000120212121ED401252D07002B06DA002A65
:1042A0000ADA75600E48856003200AE011200006D6
:1042B00004437460002A03DB294308460DF0A0FC88
:1042C00002200549096840314A78002A02D00020BE
:1042D00048700320F8BD0000A8030020C0000020A3
:1042E000400000480449002008610448012100689A
:1042F0006030C1717047000000001048A803002022
:1043000010B50BF029FA02480168491C016010BD84
:10431000E002002070B5234A0021106804464030B6
:104320004176017609231B02E01841700F253620E3
:10433000055508461468E418E46C21541468E41820
:10434000E56C0446303429551468E418E56C0446DD
:10435000603429551468E418E56C04469034401C18
:10436000C0B229552D28E5D31268D318D86C5862ED
:10437000044630341C629030D8610B4814464834EF
:1043800001800921417105238371C171037242814A
:1043900000F00CF8FF2020706070A070E0701F200B
:1043A000207170BDA8030020C000002010B5064891
:1043B00001680648406A002803D0202214F05EFD00
:1043C00010BD0020087010BDA8030020C80D0020FB
:1043D000F8B5069C1F4615460646002C13D0A0686B
:1043E00002220D3009F067FBE81E82B23B4607212E
:1043F000204609F037FEE580A068012E05D01D217A
:1044000001730020F8BD4720F8BD1B21F8E770B507
:1044100015460646FEF700FE0446082D0BD1052C76
:1044200009D130460DF010F8002804D0008940046E
:10443000800F00D00024204670BD2423184204D0F1
:10444000C81F092803D82032D171002070474220AC
:1044500070470000F1B5FFB001248BB060020590F9
:104460000027CC4807970168CB48C94D081803902E
:104470008A980AAA0005000D05A90CF0CDF906904E
:10448000002872D104260AA805994218203AD27F42
:104490000B2A23D00026002004900AA881190222AA
:1044A00001A8029109F007FB6846818809AB08AAB8
:1044B000039805F07DFB012817D002287ED06846BE
:1044C0008088854200D30546844200D920460446B0
:1044D00002988078012872D013363CE1491E761E7E
:1044E00036040591360CCFD1D5E708980090002FFF
:1044F00066D1009902222831029809F0D8FA0028E2
:104500001ED100982030017B02988078814217D11B
:10451000012808D10098029902220830C91C09F02C
:10452000C6FA002815D002988078022808D1009891
:10453000029910220830C91C09F0B9FA002808D0E5
:104540000098008DA84200D80546A04200D220461F
:10455000044602990AA88978012907D013360599DB
:10456000B6B28E4204D3012707E006E1761DF6E7D6
:104570008119022201A809F09EFA039900980831D6
:104580008E462FE084466946026A8B8820300DE013
:10459000918B994203D3012F7ED199427CD9A942B4
:1045A00000D80D46A14200D30C4612688242EFD1DA
:1045B0000498002804D16046006802E015E0BFE0DE
:1045C0008AE070450ED0018D994203D3012F09D1A5
:1045D000994207D98D4200D30D468C4200D80C4633
:1045E000012F59D17045CDD1BAE008980090002F25
:1045F00072D1009902221C31029809F058FA002861
:104600001ED100982030C17802988078814217D15D
:10461000012808D10098029902220830C91C09F02B
:1046200046FA00281AD002988078022808D100980B
:10463000029910220830C91C09F039FA00280DD05F
:104640000098808BA84200D80546A04200D22046A0
:10465000044602988078012826D003E002988078EA
:10466000012805D013360798B6B201281ED021E0E4
:1046700000984A490089884216D18A9801F0C4F806
:104680000146009800F0A0FF0099098C484300996A
:1046900089694018022200E038E00299491D09F0BA
:1046A0000AFA01200790D4E7761DDCE7B61C00204B
:1046B000B6B207900598864201D3012705E00AA803
:1046C0008119022201A809F0F6F9039A009908322B
:1046D00009980968944630E01AE086466A4693884D
:1046E00020300DE08A8B9A4203D3012F0ED19A42DB
:1046F0000CD9AA4200D81546A24200D31446096834
:104700008142EFD1049800282AD102E001200490D0
:1047100026E07046006860450FD0028D016A9A421B
:1047200003D3012F09D19A4207D9954200D31546E8
:10473000944200D81446012FE8D16045CDD10FE056
:104740000298C078022805D102980079292801D161
:10475000B61CB6B2761D0598B6B2864200D30127C4
:104760000598811B042902D3864200D293E604985F
:104770000028FBD1A54203D906987FB00CB0F0BD4C
:10478000224629468A9805F043FF0690F5E7000087
:10479000FFFF0000A80300202C07000002290000F2
:1047A00070B515460C4606460CF036FE203461798D
:1047B000012D09D00A0702D54207920F0FD0CA0671
:1047C00025D5020709D522E0CA0702D04207920F79
:1047D00005D08A0705D5020703D4082070BD05203F
:1047E00070BD490707D5C00709D0E17930460CF004
:1047F00087FD5F2805D02079C00704D005E00F2091
:1048000070BD0C2070BD022070BD002070BD8906F7
:1048100007D5C007F3D0E17930460CF071FD5F2871
:10482000EFD02079810701D4022D07D0410701D4B0
:10483000042D03D00007E8D4082DE6D1032070BD75
:1048400000B500F0E1FF002805D085220169920142
:10485000114200D0002000BD10B50AF033FA09F073
:1048600007FA14F06BFC012801D100F0D1F900F037
:104870000DFB10BD052149074860704700290168FC
:1048800002D00122114301E049084900016070474C
:10489000002A026801D00A4300E08A4302607047A0
:1048A000406880B27047052149070968014201D07C
:1048B00001207047002070470248007802498000BC
:1048C00008580047E40200207023061030B5036842
:1048D0000C4A0C6A13408A684D6922430C692C43C8
:1048E00022438C692243CC6922434C6A22438C6A5E
:1048F00022431A430260CA6842600A6882604968BB
:10490000C16030BD0F80FFFF03685B085B00036080
:10491000C1604260016801221143016000207047BC
:104920000021016041608160C1600161416181617C
:10493000C16101624162816270470000F0B585B0DB
:104940002020FFF7B0FF002853D02020FFF792FF70
:1049500029480026067005204007C169490849001A
:10496000C161264D264C04E02068401C2060A8420E
:1049700009D880200DF0C4FB0028F5D008200DF0E8
:10498000BFFB0128F0D0402002F0C2F91D49C86BDE
:10499000096C0290039102A802F0F4F8002002F0E2
:1049A0008CF801277F03384602F056F90028FAD028
:1049B000012002F082F82068A84219D2124814F0AF
:1049C00052FC114814F0DCFC002811D0384602F0EB
:1049D00043F901280CD101AA69460B4814F073FC75
:1049E000002805D1684601880198001D1DF06CFB68
:1049F000266005B0F0BD000045030020FFFF0F005A
:104A000040030020A8280610880D00201CB5202097
:104A1000FFF749FF002820D02020FFF72BFF0F4988
:104A20000020087005204007C16949084900C1619C
:104A30000B4814F018FC0A4814F0A2FC00280CD013
:104A400001AA6946064814F03EFC002805D16846D4
:104A500001880198001D1DF025FB1CBD45030020A9
:104A6000880D002010B51848FDF7DCFB174A1849DF
:104A7000904201D90020C043134A8862093AD07994
:104A8000937900021843134B984201D1FF20F5306F
:104A900088850F48137A2030FF2B00D100238373C1
:104AA0005378C373507912790002104319225201CE
:104AB000904201D90A8600E008860548FFF782FA8D
:104AC000002800D0FEE710BD3D040020B00319000F
:104AD000E8020020FFFF0000FEB52C490820888076
:104AE0002B4C207800260125032806D18802006877
:104AF000C00401D5267000E0257026490E22264804
:104B0000FDF750FB2078254980000858804714F0B5
:104B100025FA214F3878002803D12148017A29430A
:104B200001721B480121383080B209044018092461
:104B3000E406E060E068C003FCD4684605F05AF97A
:104B400069464878897800010843122801D30DF09E
:104B50007FF81448018B0029FCD00583172181813F
:104B6000066120691021084022690A408242FBD078
:104B70003878002802D10C49152008700C490B48E0
:104B800008600D490B48086262B6FEBD0000104087
:104B9000E402002000F90710340400207C230610F2
:104BA00000002040000010480000C040CCBCECFCDD
:104BB0001400002066000E000000904070B51349FC
:104BC00009220968120200208B18AC22525C1AE0FC
:104BD00058241D6B44432C1954252D5DED0610D52A
:104BE000412040010818C030428A018A608907F0DC
:104BF000E7FE3A2804D04034207DEF21084020759C
:104C000070BD401CC0B28242E2D870BDA803002033
:104C100010B5FFF7D3FF10BDFFB50746464881B07A
:104C200000880D46454909220968120240078A1882
:104C3000400F126B582358431418412040010E189E
:104C400014F07CFA002822D0142D04D0152D20D089
:104C5000072D59D05CE02146039806F001FC0121A4
:104C6000206989040843214640312061087D0222E1
:104C700010430875820609D56279520852006271A4
:104C8000DF2210400875002F4ED151E0012005B001
:104C9000F0BD25464035287DC007F7D02146039852
:104CA00006F0DEFB204606F0ADFB002825D0A18FE4
:104CB000E08F814200D20846E8806989A889814254
:104CC00000D2084668822A89E9898A4200D21146C0
:104CD0002982628F2888824200D21046C9080E3984
:104CE00089B26880884200D30846A880049800688A
:104CF00001214906084304990860287D40084000C6
:104D00002875002F10D113E00398C078142802D022
:104D1000002005B0F0BD4034207D04214008400053
:104D200008432075002F03D00820C036F073ADE78C
:104D30000820C036B073A9E7C0000020A8030020F7
:104D400010B5FFF769FF10BD002101E000BF491C4D
:104D50008142FBD37047000070B58AB00D4606460D
:104D60001C223EA103A8FDF71DFA684605F042F893
:104D70000924E406002E59D04020694688763E4B2F
:104D8000986A3E49020C8A420AD108AEF2788F2610
:104D9000324008AEF270F2784007400E0243F270E3
:104DA000586A020C8A420AD16B465A7CCF231A40B9
:104DB0006B465A745A7C8007800E02435A742E4800
:104DC0004038006B020C8A4209D108AAD1788908C0
:104DD0008900D170D1788007800F0143D170694676
:104DE000C87DFB2108406946C8754878897800016C
:104DF0000843122808D308A9C8780421084308A941
:104E0000C870C878FEF7B4FB03A8012180B209047A
:104E10004018E060E068C003FCD4694648788978AF
:104E200000010843122801D30CF012FF1448018B33
:104E30000029FCD00121018317218181002101611A
:104E4000002D06D020691021084022690A408242C4
:104E5000FBD00D490B4808600AB070BD023F00024C
:104E60003E30023C20023B4C023A400239B202344E
:104E70005B02350B00000000C007001055AA0000BF
:104E800000001048CCBCECFC14000020F8B5104E1B
:104E900030682030C57D002D19D0002409273F023D
:104EA00010E0E9070BD0C019016B582060430818C7
:104EB0004030417D204607F0BFFA002807D06D083A
:104EC000641CE4B23068AC21095CA142E9D8F8BDA9
:104ED000A8030020F3B581B01322D201012101A85B
:104EE00008F074FD914C04222060432101A808F0D1
:104EF0006DFD01252168ED024919886004224321D6
:104F000001A808F063FD216804224919C860FF2147
:104F1000843101A808F05AFD21680C224919844DFA
:104F20000861A97F01A80B3108F050FD092621680E
:104F3000360289194865A97F202201A808F046FD9C
:104F40002168102289194864A97F01A808F03EFD54
:104F50002168282289198864052101A808F036FDF6
:104F60002168302289190865052101A808F02EFD65
:104F70002168FF228919C8640132012101A808F0C3
:104F800025FD216858228919C865A97F01A808F064
:104F90001DFD2168202289190863A97F01A808F056
:104FA00015FD216889194863AA8B012101A808F021
:104FB0000DFD0F272168FF01C9190860298B2822E0
:104FC00001A808F003FD072122680902511888672B
:104FD000698B302201A808F0F9FC07212268090238
:104FE0005118C8670C22012101A808F0EFFC2168C4
:104FF0000C228919C862012101A808F0E7FC216888
:1050000028228919C96A8860284620300090417892
:1050100001A808F0DBFC216804228919C96A8968A3
:1050200088600098417801A8491C08F0CFFC2168ED
:1050300010228919C96A89684860A97F01A808F007
:10504000C5FC21680222C919C867A97F01A808F018
:10505000BDFC21680222C9194865A97F01A808F092
:10506000B5FC21680222C9198865A97F01A808F04A
:10507000ADFC21680222C919C865A97F01A808F002
:10508000A5FC21680122C9190866A97F01A8491C4D
:1050900008F09CFC21681022C91988670B2101A81F
:1050A00008F094FC07212268090251188861042243
:1050B000802101A808F08AFC216889198863029A76
:1050C000DC204243012101A8443208F07FFC216822
:1050D0008919C863029AD8204243012101A82C32C1
:1050E00008F074FC2168F02289190864012101A8E4
:1050F00008F06CFC0F4C7C222060A97F01A808F00E
:1051000065FC21680822C867032101A808F05EFC3D
:105110002168282280310860012101A808F056FC8E
:105120002168803148600198FEBD0000A80300207E
:10513000C80D0020B0030020704710B5C001000C5E
:1051400000F0E8F9002010BDFEB572B63F4D08230F
:10515000286801464030C2791A43C27162B6002005
:1051600001276C46FF0282005218D21952695288F8
:105170004300401CC0B2E2520328F4D372B6C819EF
:1051800000210668016062B6F00702D0002014F02A
:105190002DFDB00702D5012014F028FD700702D5BF
:1051A000022014F023FD300702D5032014F01EFD69
:1051B000002623E00D281AD2211D254A800012580E
:1051C00020469047002812D072B62868F722403057
:1051D000C1791140C17162B630E03A2807D21C494A
:1051E000231D8000E8390A58194620469047029846
:1051F00029684018C01940692188018071006846FB
:10520000415AB00002902A688018C019406902888B
:10521000920892001418028808348A420ED0A278AC
:1052200091070BD09107890F012901D10446083459
:10523000A0788008C006E078CFD5BBE7761CF6B230
:10524000032EDBD314F0A4FBFEBD0000A803002056
:10525000A82A061070B514F0B5FB104C0125206883
:10526000ED0240198068402113F0DCFF21684919E4
:105270004861C868402113F0D5FF21684919886149
:105280000869FF21813113F0CDFF216808224B19F5
:10529000D8610021184608F012FC70BDA803002058
:1052A000FEB50646294814460068294A8518C8886C
:1052B000032806D02346002202210420FDF764FCC7
:1052C00042E08968022268460D3108F0F4FB326939
:1052D00090052ED468460188172903D35C20405BD3
:1052E000172801D2172002E0814200D208467080C0
:1052F000012040020243022032610190134837210D
:105300000068490141183788097B768801234907DD
:105310000FD5D902083040182422406902210EF02E
:10532000E3F9002805D08780C680014601980EF079
:10533000C7F9A06803260673A068294602225C31DB
:105340000D3008F0B8FBE6800020FEBDA803002069
:105350002C070000F7B590B000206A460D909082AF
:105360006A4A6B4B12680446D218CB88022B08D0CD
:10537000002218210420129BFDF706FC002013B028
:10538000F0BD8B6800205E7B0A900B9088883032DD
:10539000019209900027019811F0A6FF054620E030
:1053A00028680890A9880998814219D1A968022221
:1053B00007A80D3108F07FFB002F01D16846878BCD
:1053C0006846808B87420BD12946019811F0D9FF9E
:1053D000002028600A98002811D00B9805600B95D2
:1053E000089D002DDCD1002FD4D11298192180689E
:1053F000017301211298012EC18002D081E00A952B
:10540000EDE702A90AA8FDF703FC002879D0694658
:105410000A891821129BFDF7B7FB002671E081680D
:105420000546022202A80D3108F045FB012E66D187
:105430006846008902F044FD014668460EAA0089CC
:1054400004F0D4FB0E9C1099204600F0BDF80D909E
:1054500055E02F68012E3FD1002F06D0B9680222F7
:1054600005A80D3108F027FB02E00020694688827C
:10547000A968022204A80F3108F01DFBE8880D99E5
:10548000401F80B20090208CA269484369461018E2
:10549000098A009A43180921284608F0EBFC2220CB
:1054A000005D012804D16846018A00980818E0834D
:1054B00068460189808A81420ED0208C0D99A269AC
:1054C000484310180021019000911098E38B018847
:1054D000A28B02200FF0E4FE0A9908680A900020CF
:1054E00008600A99002900D10B900121284608F094
:1054F00065FD69460889898A884202D13D46002DAA
:10550000A7D10A9800288AD139E70000A803002013
:105510002C07000000B508490968084A914209D1E2
:105520004006010C06483F22028181611121018061
:1055300000F042F800BD000014000020CCBCECFCE0
:105540000000104000B5094A1268094B9A420BD17D
:10555000084A3F231381800890610648403001606B
:105560003320108000F028F800BD00001400002057
:10557000CCBCECFC0000104000B50C4A12680C4B8F
:105580009A4212D10B4A3F23138180089061094847
:105590000B68403003604B6843608B688360C96868
:1055A000C160CC20108000F007F800BD140000207E
:1055B000CCBCECFC000010400248018AC907FCD0BA
:1055C000704700000000104030B5024623239B5C6A
:1055D0000020012B1AD112890D4B9A4216D10D4A87
:1055E000092312681B02D318A0325B6B127B0AE0FE
:1055F00045010C885D5B24052D05240D2D0DAC4265
:1056000004D0401CC0B28242F2D8002030BD00005D
:1056100002290000A8030020F7B578480F4600686B
:10562000774988B04418F888072804D20022062158
:1056300004200A9B2AE0B968022268460D3108F06E
:105640003AFAB968022201A80F3108F034FAB968B1
:10565000022204A8113108F02EFAF888C01F80B287
:10566000039068460288808882420CD8002A0AD0BB
:105670000898002142880A9809F0F2FD002808D015
:1056800045200BB0F0BD062101200A9BFDF77CFAF6
:10569000ABE00A980721806808340173012168464D
:1056A00001810594008802F00BFC05007CD086E0A7
:1056B0006846008A0522D202904202D0521C9042D3
:1056C00026D168460088814278D329460B220831CA
:1056D0003846039B08F06CFC69466A8D098A8A4249
:1056E0006CD10399022901D0102967D1002865D116
:1056F0002A462846296A28322030814202D06B6A25
:105700001C3300E0134602A90A98FDF767FA55E03A
:105710002E462C6A2036B4424ED14FE06946A08B0B
:105720000988884247D369468988884257D8232008
:10573000005D01283FD120460899FFF745FF218CE5
:10574000A269414351180B223846039B08F030FCF4
:10575000069008980122008821460005000DFDF7FB
:105760005BFC01466A462089128A904223D10029B7
:1057700021D1E28B03998A421DD1069900291AD1C1
:1057800008996A4649881289891A042927D322462A
:105790001C491C32884208D12068B04205D00089DB
:1057A000884202D02468F7E719E023461C3302A997
:1057B0000A98FDF713FA2468B442AFD12D68059812
:1057C00085420CD06846298D8088814207D8089888
:1057D0006A4640881289801A042800D368E7684620
:1057E0000089012803D90A99C880002049E7684642
:1057F000028806210A200A9B48E70000A80300202F
:105800002C0700000328000010B50D4900050B68A7
:105810000921090259184A6B0021000DA0331B7B96
:105820000AE04C01145B2405240D844202D1480196
:10583000801810BD491CC9B28B42F2D8002010BD9F
:10584000A8030020FFB589B0002405460794D0883E
:105850001646052804D00022042108460C9B20E0AF
:10586000B168022208A80D3108F025F9B1680222BA
:1058700068460F3108F01FF96846028C00888242A2
:105880000CD8002A0AD00A98002142880C9809F006
:10589000E7FC002808D045200DB0F0BD0421012010
:1058A0000C9BFDF771F9B9E06846008C02F008FB2B
:1058B000060076D0083504950498864272D0694671
:1058C000308D098C884230D36946098888422CD8AB
:1058D000002C0AD1012107910C980521806802242F
:1058E00001730C980799806841730A984088001BDF
:1058F000042857D30798012854D1201D81B233467C
:10590000283302220C9808F0ADFBA01D81B233466B
:105910002A330222A41C0C9808F0A4FB6946A41C9C
:10592000308D0988A4B2884274D03746356A203752
:10593000BD42C1D060E06946A88B098C88425AD329
:1059400069460988884265D8002C36D02320415DFD
:105950000798814260D10A984088001B042802D32E
:105960000799012904D0122856D30798022853D149
:10597000201D81B22B461C3302220C9808F072FBCA
:10598000A41C0798A4B201280DD0201D81B22B467B
:10599000083310220C9808F065FB2046103084B2C2
:1059A00029E03DE036E0201D81B22B46083302227B
:1059B0000C9808F057FBA01CF1E72320415D0791EC
:1059C0000C9805218068022201730C980799806861
:1059D00041730C98294680681C310E3008F06BF832
:1059E000079901290CD02B460833102208210C9866
:1059F00008F038FB14242D68BD429CD136685BE763
:105A00000C982946806802220831103008F053F8BB
:105A10000624F0E7002C03D00C98C48000203BE75C
:105A20006846028C04210A200C9B3AE706490922A9
:105A30000968120289188008496B4001081801881A
:105A4000002900D100207047A803002070B50C4643
:105A50000B4E81000B4832680D1801232032D3779A
:105A600021462846FFF76EFD28680021844201D1B7
:105A7000084600E0FB2032682032D17770BD00007C
:105A8000A80300200000041070B50D46040006D0E5
:105A900006F0C6FAE000001BC6B200240FE0422068
:105AA00070BD285D012803D0002801D01F2070BDE3
:105AB000281906F027FA0028F9D1E41DE4B2B4420F
:105AC000EFD3002070BD000038B5184A1468224694
:105AD000BA32AE34A378DD0701D001290AD05B07C2
:105AE0000CD501290AD0217949070BD5E17A002983
:105AF00005D007E0E07880210843E07038BD01213F
:105B0000E172508020794106090FF7D078210840D2
:105B100069460870002048706A46022142200EF053
:105B20001BFB207987210840207138BDA803002085
:105B300010B50649024609684620AE318978490702
:105B400002D5104607F09AF810BD0000A803002007
:105B5000F8B50546002768460770154846260468CC
:105B6000AE3420798006800F03D00021084605F06E
:105B7000BFFDA078400718D520794C21084214D1E8
:105B80000023287E6A46194600F03CFA00280DD111
:105B90006846007828762F74284605F0DFFA06005C
:105BA00003D120794021084320713046F8BD000020
:105BB000A803002070B592B00646202221A101A8BA
:105BC000FCF7F0FA202109A8FCF714FB0A2168462B
:105BD000017000242546694601A805F025FF6846A6
:105BE000027801A909A807F066FF01A824E0015D79
:105BF000491CC9B2914223D803195B78B34214D12E
:105C00006B461A78521A6118C9B24118D2B209A863
:105C10001A70401907F04FFF6B4618782818C1B268
:105C200009A806F025FD12B070BD521A6B461A7015
:105C300062186918D4B2CDB269460A78002AD6D162
:105C40001F20F0E702FF0102010403028FFC0000A5
:105C50000000000000000000000000000000000044
:105C60000000000038B51048002104680846AE3432
:105C700005F03EFD694648702079C10704D0012136
:105C80006A46117088432071C0B2810705D5022190
:105C90006A461170FD210840207102216A460846BB
:105CA0000EF05AFA38BD0000A803002010B5FFF727
:105CB000D9FF10BDFFB50C4678A103C995B001917D
:105CC0000090002108A801730321C902684641869B
:105CD000012108A8734E017435681746AE3504F0EB
:105CE00003FC002808D170493068401804F000F81F
:105CF000A878002802D0462019B0F0BD0BA815994D
:105D000000F0CAFD0028F7D1072010A90871012C66
:105D100005D0022C0AD0002C0ED04220ECE708A8B7
:105D2000017B1020014308A8017305E011A90BA80D
:105D300000F044FE0028DFD110A8027901230CA94D
:105D4000284601F01FFB00287ED102222946189820
:105D500007F0B1FE29886846818115214902018238
:105D60000784012686734E2108A881700024C47020
:105D7000067107214171867103A902A801F0B8F8E4
:105D8000002861D1022202A91E9807F094FE082F74
:105D900002D26846478502E0082069464885694680
:105DA0000C850B4628880AAA098903F097FB00286E
:105DB0006DD13E49684601820227078408A8847194
:105DC00003A902A801F094F8002860D1022202A9D8
:105DD0001F9807F070FE68460470694644704F854E
:105DE0000B4628880AAA098903F078FB00284ED1BF
:105DF00008A8007BC00723D02C496846C91C018233
:105E00000821018408A88770047103A902A801F081
:105E10006FF800283BD1FF216846C1718171C170C4
:105E20008170417001704471047169460820488591
:105E30000B4628880AAA098903F050FB002826D1BE
:105E400008A8007B800600E021E022D5298868466A
:105E500081811649A53101820684867308A887705E
:105E6000C470047107214171847103A902A801F073
:105E70003FF800280BD169460E700C854E850B4605
:105E800028880AAA098903F029FB002801D04720A5
:105E900032E708A8007BA87000202DE7626C7565CA
:105EA0006E726721A8030020EF060000012A00009F
:105EB000034800210068AE30C17081707047000057
:105EC000A803002070B50D4B1C68AE342379DD06A5
:105ED00012D45B0710D533280ED1E07A02280BD1FB
:105EE0000420107000205070C9B202200EF034F966
:105EF0002079FB210840207170BD0000A80300201C
:105F000038B50246174801240068AE30022A1FD077
:105F1000052A03D0072A07D00B2A20D10846097981
:105F20004088FFF7D1FD1AE000790024020600D571
:105F30000124820703D1C20601D480060FD508468A
:105F400000216A46117069460CF076FC044606E0B2
:105F50008178490703D50179FB2211400171204660
:105F600038BD0000A803002010B509480468AE340D
:105F7000E07880070BD5002005F0ACFA02200DF088
:105F80007FFFE07801210843FD210840E07010BD4B
:105F9000A80300200FB410B5079C01282DD1684636
:105FA00080891749884210D103A80FC800F02CFD42
:105FB00000281DD10AF046FBFA281ED001281CD962
:105FC0002078F3210840207017E00D49491C8842D1
:105FD00008D0C91E884205D0491C884202D0C91C7D
:105FE00088420AD103AC0FCC00F00EFD002800D08F
:105FF000632010BC08BC04B018470020F9E700007B
:10600000022A0000FFB5074673480D4604688FB0AA
:10601000AE34A1781E46C80602D5E078C0067DD40D
:10602000880607D5E0788006800F03D0022F01D0C4
:10603000002E73D08806800F06D0022F08D0032FC1
:1060400006D0002E6AD003E0012F01D0002FF8D136
:10605000880603D4002D01D0012D5FD1002E06D17A
:1060600030200140384604F02BFF002856D111990A
:1060700000200870A17889068A0F7DD00CA908A895
:1060800005F0B2FC07900DA90AA805F077FD06906F
:106090000798002802D00698002801D1012E58D177
:1060A000022F04A807D003F0C9FD002E3CD00798AA
:1060B000002803D012E00BF044FCF6E7464F4748B7
:1060C0003B68062208A9181807F0F1FC0028386878
:1060D00008D04030417E49084900417606980028A2
:1060E00005D014E04030417E01221143F5E73A4FDC
:1060F0003A483B6806220AA9181807F0D8FC00287D
:1061000038680CD04030417EFD221140417607981E
:10611000002809D00698002806D01AE043E0403055
:10612000417E02221143F1E72B48062203682B48E7
:1061300004A9181807F0BFFC052069460873002E53
:1061400002D108460BF07EFF2548029068460BF00E
:106150002DFFA078800611D51198032101702079B8
:10616000C10603D5002D01D0022D1CD1800605D516
:10617000012D03D0032D00E018E014D1A078C00653
:1061800027D51199012008702079C10601D5002D6D
:1061900009D1810601D5012D05D1000619D5002DA3
:1061A00017D0012D15D0422013B0F0BD012F01D121
:1061B000002E03D0890F314309D00AE00648062299
:1061C00003680648611D181807F075FC0120119935
:1061D00008700020E8E70000A8030020EF06000098
:1061E000A0BB0D003EB513F0F7F8044613F080F99C
:1061F000082C01D1082813D00A480B490068062250
:106200004118684607F057FC68464079400601D5BA
:10621000022000E00320012302AA0021FFF7F2FE82
:106220003EBD0000A8030020EF0600001FB50E4889
:106230000468AE34E078010612D5A178C9070CD005
:10624000800708D504206946087368460BF0FAFEFB
:1062500002200DF015FE0020E0704006400EE070B8
:1062600000F086FB1FBD0000A803002010B50C46FF
:10627000417994B0490610D56A4601210AF06CF9BB
:10628000002802D0702014B010BD0FA906222046AD
:10629000023107F010FC0020F5E74220F3E7FFB5DC
:1062A0008DB01898169E179D19991C461746002800
:1062B00003D0FFF7E9FB002813D1002006900890D7
:1062C000099005900490012107900B95039002908E
:1062D0000A9601910094394606200E9B0D9A0CF007
:1062E000FDFB11B0F0BD70B58CB00024109D119E67
:1062F0000A940B94049405940394069407940993C8
:10630000089200900194029433462A4604200CF02F
:10631000E5FB0CB070BDF0B58DB00C4616A9E0C918
:106320000021089109910A910B911599049105A9F1
:10633000E0C112A962C90093019113460146039678
:106340000295224601200CF0C9FB0DB0F0BD000003
:10635000F0B591B00C461AA9E0C900210891099145
:106360000A910B911999049105A9E0C116A962C976
:10637000009301911346014603960295224602209E
:106380000CF0ACFB040007D1042008A908770448EE
:106390000E900CA80BF00AFE204611B0F0BD0000D4
:1063A00020BF020000B500228DB00A9205920B9228
:1063B0000091089209920692079201460492019276
:1063C00002921346039203200CF088FB0DB000BD2F
:1063D000002000B58DB00A900B90089009900590B0
:1063E00006900790049000900190029003460246A8
:1063F000014603900CF072FB0DB000BD10B51446C1
:106400008CB000220B9206920A9208920992059291
:10641000079204920292019303920B460246009463
:10642000002105200CF05AFB0CB010BD38B5144B00
:1064300014461D680246AE35AB7846205B071ED574
:106440002B795B06DB0E1AD11046FFF71DFB0028E7
:1064500015D10023207E6A461946FFF7D3FD002898
:106460000DD168460078207601202074204604F083
:1064700075FE002803D1297908221143297138BDFE
:10648000A8030020FEB51E4617460C46054600230D
:1064900002AA19463846FFF7B5FD00281DD1684607
:1064A000017A81710D4A281F904200D300250B4AC2
:1064B000A01E921C904200D30024684605804480B0
:1064C0000022427181710121017106F053FB002805
:1064D00003D13146012005F00BF9FEBDFD3F000060
:1064E000F8B50E46144905460C684620AE34A1782E
:1064F000490720D52179BB2211421CD1102001432C
:1065000021716979A87900236A46FFF77BFD00288D
:106510000DD168460078A871284606F02BFB0028AC
:1065200005D13146012005F0E3F8002803D0217998
:10653000EF2211402171F8BDA8030020F0B5104CE6
:106540004625246885B0AE34A678760714D526791A
:10655000B3273E4210D1FFF795FF05000CD12079FB
:106560000221084320710620694608730520C002F5
:10657000029068460BF01AFD284605B0F0BD0000F9
:10658000A8030020F0B5104C4625246885B0AE3431
:10659000A678760714D52679B3273E4210D1FFF7A7
:1065A00071FF05000CD120790121084320710620DC
:1065B000694608730520C002029068460BF0F6FC9D
:1065C000284605B0F0BD0000A8030020F8B5124928
:1065D00005460C684620AE34A17849071AD52179C2
:1065E0004C22114216D10023287E6A461946FFF735
:1065F00009FD00280ED168460078287600262E7402
:10660000284604F0ABFD002804D12179042211436F
:106610002171E672F8BD0000A8030020FEB51B49F9
:1066200004460D6826794620AE35012E03D0002E93
:1066300001D04220FEBDA9780907FBD52979B322F4
:106640001142F7D1802001432971E179607900235B
:1066500002AAFFF7D7FC002813D16846017A81719E
:106660002188018061884180E1794171067106F0DD
:1066700081FA002805D1A179012005F039F8002818
:10668000D8D029794906490E2971FEBDA8030020FA
:10669000F8B51E46184B15461C680246AE34A37862
:1066A00046205B0726D52379BB273B4222D11046E3
:1066B000FFF7EAF900281DD1207920210843207135
:1066C0006979A87900236A46FFF79CFC00280DD160
:1066D00068460078A871284606F04CFA002805D1D3
:1066E0003146012005F004F8002803D02179DF228B
:1066F00011402171F8BD0000A80300200949B22211
:1067000009681423525CBA311A4208D0498800053E
:106710000905090D000D814201D1012070470020BB
:1067200070470000A803002070B5044620484625A5
:10673000066886B0AE36012C0FD0022C0DD0042C8A
:106740000BD0082C09D0102C07D0202C05D0402CC1
:1067500003D0802C01D0422527E03079204224D07C
:10676000082C12D0402C10D00620012C03D0022C73
:1067700001D0802C04D16946087368460BF062FC96
:106780000021084604F0B4FF01E004F01FFE0500FC
:106790000BD130790021A0433071684604744174F4
:1067A000022104AA08460DF0D7FC284606B070BDA9
:1067B000A803002010B504F06FFE10BDF3B591B032
:1067C0000446032069460870002501A805F02CF94D
:1067D000224609A8129907F06EF9214634E00020FC
:1067E00001AB5B199C4614E0129B1B5C934239D8A9
:1067F000934201D1002B35D1129ED21A361867462A
:10680000521E76787F78D2B2BE4213D0401C181840
:10681000C0B2A042E8D301AF7A5D4E1C90191F2888
:106820002DD809AB58186146521C07F044F9785D21
:106830008019C1B201A86B46405D1A786D1C121A0E
:10684000521E40191A70C5B26846007822460028C8
:10685000C5D110E0129B1B5C934203D8934204D134
:10686000002B02D0422013B0F0BDD21A521E401CA1
:106870001818D2B2C0B2A042ECD31F2901D94120CE
:10688000F1E709A805F0F4FEEDE702780907090F22
:106890000A4302700020704710B5FFF7F6FF10BDE5
:1068A000F0B521480921006809024018456F99B0E8
:1068B00000206946087004460C27142605F0B0FB3A
:1068C00010A8023017906946284618F0EBFB68467E
:1068D000641C0078E4B2FE2820D101A9284618F0F3
:1068E000CFFB68464079C007179804D0FBF79AFCA5
:1068F0000002401C02E0FBF795FC0002159011A875
:106900000130FBF78FFC0002000A169015A805F075
:10691000F9FA002802D0472019B0F0BDAD19BC42E9
:10692000D1D30020F8E70000A803002030B50E48BE
:1069300085B005682C46AE352879BA34400711D5A4
:10694000E87A01280ED115214902684641800121CB
:10695000017060886B46054A01F09EFD002801D158
:106960000220E87205B030BDA8030020FFFF000040
:1069700010B5FFF7DBFF10BD7CB50446E1200D46E6
:10698000800005F053FC0BA103C9009001916846FB
:1069900014F06AFB012005F067FE002801D04720B3
:1069A0007CBD207820210843207009202870002019
:1069B0007CBD00001F0200000000000010B5FFF7C2
:1069C000DBFF10BD10B50446022000F05DF80D4855
:1069D00000210268092000021018A032436B107BCE
:1069E00005E04A019A5A002A04D0491CC9B28842DB
:1069F000F7D810BD48011C52C018026904210A438F
:106A0000026110BDA80300201FB582B0002403F06E
:106A100059F9694603F0FAF8009A6846116A008944
:106A2000203209E023235B5C012B04D10B898342D4
:106A300001D1641CE4B209689142F3D1204606B04A
:106A400010BD000010B504460146042004F0CAF849
:106A5000002808D0044805490068401821463C3009
:106A600010F072FC432010BDA80300202C0700008A
:106A700004490A683B21490151180A7D02430A75FD
:106A800070470000A803002004490A683B2149011F
:106A900051180A7D02430A7570470000A8030020C0
:106AA00000B51138C0B2FEF7C1FF002804D00122A2
:106AB000016952051143016100BD012210B5520365
:106AC000002806D01446104600F019F8012120468F
:106AD00001E00021104600F016F810BD1CB5684614
:106AE00000F01AF901204003009001206946087166
:106AF0000020FFF7E2FF684600F044F81CBD0121CA
:106B0000890788627047012292070029D16901D064
:106B1000014300E08143D16170470CC8012189071E
:106B20000838012B0B690BD093430B618268012A53
:106B300008D0002A0AD04A69006802434A617047B7
:106B40001343F2E78A6903681A4302E08A6903681B
:106B50009A438A614A6900688243EFE70121890705
:106B6000496A014201D001207047002070470000AF
:106B7000024800780249800008580047E4020020DB
:106B800064230610F0B5027901239B070168002AEF
:106B900002D0062A03D006E05C688C4302E05C6801
:106BA00000220C435C6000210F240568CD40ED07F6
:106BB000ED0F37D0082909D2DE6A8D002746AF4095
:106BC000BE431746AF403E43DE622BE00D46083D14
:106BD000082D0AD28D002646203D1F6BAE40B743DC
:106BE0001646AE4037431F631CE00D46103D082D8E
:106BF0000AD28D002646403D5F6BAE40B743164635
:106C0000AE4037435F630DE017290BD9114E8D005D
:106C10002746603D368BAF40BE431746AF400D4D13
:106C20003E432E83491CC9B21A29BED3417901299A
:106C3000D968026809D09143D9608179012999689E
:106C4000006804D081439960F0BD1143F4E701432B
:106C5000F9E700002000004001218907096801428E
:106C600001D00120704700207047000001490860F2
:106C7000704700004000004070B50126F602304623
:106C8000FFF76CFF012826D185072869000502D58A
:106C90002869B04328613046FFF731FFA869184CD6
:106CA0000005A86918D5B043A8612078042812D33C
:106CB0008020FFF7DBFF1349002008600BF06CF821
:106CC000082020701048FDF7EBFD10490988081ACC
:106CD00080B210F089FE70BD3043A861207804288E
:106CE0000BD0022801D00128F5D10AF06FFEFF2059
:106CF0000AF0CEFE0320207070BD0520FBE70000E7
:106D00004603002054030020580000A04803002040
:106D100001218907C86370470021016001718171F9
:106D2000417170477CB501256D032846FFF716FFBA
:106D3000012820D184072069800402D52069A84356
:106D400020612846FFF7DBFEA0698004A06908D512
:106D5000A843A0614020FFF7DBFF0749C86A096B21
:106D600004E02843A0610449486B896B00900191BD
:106D70006846FFF707FF7CBDA82806100348006897
:106D8000AE3080788006800F70470000A803002096
:106D9000F3B597B00D8848880590081D1DC80DAE45
:106DA0001DC68C8ACE8A087E1390C8692031019056
:106DB000087800904878049088780390C87802900A
:106DC0000F7901F05FFD002817D1012040028442B5
:106DD0005FD8B4425DD8002F01D1B44259D114A973
:106DE000284602F013FF002806D115AA1499059829
:106DF00002F0FCFE002802D0602019B0F0BD149D06
:106E000011A92846183006F06FFB10A880880028CA
:106E100010D0284612A9203006F066FB10A88388FF
:106E200000892A8D1818696A10188A8B904203D13C
:106E30006120E2E74820E0E715982C4B02899A424E
:106E400027D12322125C012A23D100680068169002
:106E5000139801281FD16846808E29221202801AB9
:106E600003000BF072FD0604180404070A18022C34
:106E70000FD110E0072C0CD10DE0042C09D3E00752
:106E800007D1012F07D1A64203D3042E01D3F00767
:106E900001D04220B1E702980B90039B049A0A9319
:106EA00009920098019A0C9708900696059407920B
:106EB0000DA81DC8019002A81CC013980B46009095
:106EC0002A461699179800F0B1F9002895D168461E
:106ED0000649808EFF31884205D01798018800202E
:106EE0000A4603F095FB002087E700000328000016
